:100000002AC04EC04DC08DC54CC04AC049C048C072
:1000100047C046C045C0A6C60AC842C041C040C08D
:100020003FC0250028102E982FAA30AA312D32D497
:1000300033000302048A050506C3119F19291A29F2
:100040001E00260729A0370038003C8F3D10582D90
:100050006F300000400811241FBECFE5D2E0DEBFA4
:10006000CDBF10E0A0E6B0E0ECE1F2E102C0059007
:100070000D92AA37B107D9F721E0AAE7B0E001C095
:100080001D92A237B207E1F710E0C6E5D0E003C049
:100090002297FE018FD8C435D107D1F70DD8BCC83F
:1000A000AFCF1F920F920FB60F9211242F933F9351
:1000B0004F935F936F937F938F939F93AF93BF9370
:1000C000EF93FF93CAD0FF91EF91BF91AF919F91B2
:1000D0008F917F916F915F914F913F912F910F90F1
:1000E0000FBE0F901F90189568EE73E080E090E0CF
:1000F000B3D620E436E044ED62E086E165D580E0E9
:1001000019D6EEE7F0E08081807881608F77808378
:10011000089585E580937F00EAE7F0E08081918192
:10012000A281B3810196A11DB11D80839183A28319
:10013000B3838FEFFFD547E06AE770E080E0DFD55B
:1001400083E0DED580E0F6D580E797E134D068EE35
:1001500073E080E090E080C683FF02C098E28927C8
:1001600087FD05C0806491B59093810002C08091A5
:10017000810094B7977F94BFF89491B5986191BD31
:1001800081BD7894089596B1379885B7877E806150
:1001900085BFF89485B7806285BF85B7846885BFC1
:1001A00085B78B77806885BF7894889585B78F7D74
:1001B00085BF96B90895DF92EF92FF920F931F9338
:1001C000CF93DF938C01EC0198E0E92EF12CC03144
:1001D000D10520F19E01D12C2032310538F0D39485
:1001E00089E0D81619F036952795F6CF109282003F
:1001F0008D2DB2DFC8DF8FEFAFDFC70102C0880FE0
:10020000991FDA94E2F7C81BD90B209182002223B0
:1002100019F0C81BD90BDBCF80E001C081E0409111
:100220003C0150913D0160913E0170913F010C1BDA
:100230001D0B400F511F611D711D40933C015093D8
:100240003D0160933E0170933F01DF91CF911F917B
:100250000F91FF90EF90DF900895809182008F5F63
:100260008093820008958627682F62956827062E5E
:10027000669566956025062E669560256770082E42
:10028000892F669507946795902D86270694679524
:100290009025862708959BB79F7D9BBFC1988FB9F6
:1002A00088E021E193E12DB99DB98150E1F78FB14B
:1002B0006FB988E021E193E12DB99DB98150E1F753
:1002C0008FB1C19A9BB790629BBF089560E0E3CF66
:1002D0001F93CF93DF93D82F8830D8F085E2F6DFD5
:1002E000182FDC3011F460E801C060E485EAD3DF48
:1002F00068E081E8D0DFC0E080E0E8DF811103C082
:10030000CF5FCF37C9F7612F85EAC5DFD83089F0D5
:1003100008C0811105C060E081E8BDDFC0E009C010
:10032000C0E06D2F606881E8B6DF03C0CF5FCE3FCD
:1003300020F487E2CBDF87FFF9CF8C2FDF91CF91BD
:100340001F91089522E0660F771F881F991F2A9535
:10035000D1F729E03DE340E050E0B4D666E0220F5B
:10036000331F441F551F6A95D1F780913101280F23
:10037000311D411D511D20933401309335014093AF
:1003800036015093370110920C0181E28093D60020
:100390008FEF8093F1001092F200089590910E017A
:1003A00081E093300CF080E00895882311F080E024
:1003B00001C084E08DDF83E080930E010895CF9328
:1003C000DF9310921901C19AB99AC19AD6988AB34B
:1003D00080638ABB87B387BB80E18DB96FE084EB14
:1003E0005ADF6AEA85EB57DF65E586EB54DF85E384
:1003F0006DDF8A3A09F07DC086E368DF853509F054
:1004000078C060E88EEA47DF60E885EA44DF8CE088
:100410005FDF65E580E83FDF80E05ADFC2E2D0E0E1
:10042000FE018491882331F031966491806833DF36
:100430002296F6CFE1D46093FD007093FE00809386
:10044000FF00909300018BB78F7B8BBF80913201AF
:10045000882341F0BA9880B5846080BD8BB78062F4
:100460008BBF03C080B58B7F80BD6091330182EB71
:1004700012DF80913301811102C060E901C068E997
:100480008EEA09DF8091340190913501A091360107
:10049000B0913701BD018827992787E8FCDE80915C
:1004A000340190913501A0913601B0913701692F47
:1004B0007A2F8B2F992788E8EEDE6091340189E846
:1004C000EADE84E005DF61E88AE8E5DE8AE0FEDE58
:1004D00086FFFCCF60E188EADEDE83E080930E01D8
:1004E00081E08093190183E790E09093EE00809380
:1004F000ED00DF91CF910895FF920F931F93CF935B
:10050000DF93EB01FB0120E030E0642F70E0261761
:1005100037074CF489010A571F4F9191D8019C93DA
:100520002F5F3F4FF4CF86FD04C0807E9091320153
:10053000890F8093840040938500909185008EEF11
:10054000891B80930E0188E2C1DE807519F080E07E
:10055000BDDEF9CF60E188EA9EDE82E3B7DE682F78
:100560008FEF9FEF80DE9093300180932F01809179
:10057000DC0087FF04C08F798093DC000BC08F37CD
:1005800049F46FE083E987DE6DE58AED84DE6CE790
:100590008CED81DE62E085EA7EDECD2B31F068E90C
:1005A0008EEA79DE6091DC0004C060E08EEA73DEE2
:1005B00060E081E970DE8CE08BDE80910E0182309C
:1005C0000CF03FC088E282DE87FDF7CF80910E01FC
:1005D00087FF1CC0E091850090910C0180910E0175
:1005E000F0E03396E90FF11DE80FF11D87FDFA9554
:1005F000ED57FF4FF0806F2D80912F0190913001CA
:1006000032DE9093300180932F0112C080910E0151
:10061000882361F0813061F480912F019091300145
:10062000F92E9093CB008093CA0002C0F0902F0166
:100630006F2D80E830DE80910E018F5F80930E0178
:10064000BCCFDF91CF911F910F91FF900895FF9242
:100650000F931F93CF93DF9300D0CDB7DEB7F82E63
:1006600020912701309128012F5F3F4F30932801BF
:100670002093270180910E01843009F0F3C181E2BB
:1006800025DE082F10E010932B0100932A0182E24F
:100690001DDE302F2227282B30932B0120932A0197
:1006A00084E214DE80932E0188E110DE809329011C
:1006B0008FE10CDE082F10E010932D0100932C0128
:1006C00080E204DE302F2227282B30932D01209347
:1006D0002C017894FF2009F4C7C08ED36093CC001E
:1006E0007093CD008093CE009093CF001092F800CD
:1006F0001092F70087E2EADD80FF3AC061E08EE900
:10070000CADD8EE1E3DD8FE1E1DD082F10E010931B
:100710002D0100932C0180E2D9DD302F2227282BD8
:1007200030932D0120932C018091E5009091E600FB
:10073000A091E700B091E8000196A11DB11D809342
:10074000E5009093E600A093E700B093E800809165
:10075000CC009091CD00A091CE00B091CF008093BD
:10076000F9009093FA00A093FB00B093FC007CC0CA
:100770008091F7009091F8009C012F5F3F4F3093DC
:10078000F8002093F7002091ED003091EE008217E1
:10079000930708F4AFCF83E080930E0160E085EA11
:1007A0007ADD66E088E977DD64E689EA74DD80E079
:1007B0008FDD8091E1009091E200A091E300B09183
:1007C000E4000196A11DB11D8093E1009093E20029
:1007D000A093E300B093E4000091DD001091DE00EF
:1007E0002091DF003091E000011511052105310550
:1007F00091F14091F9005091FA006091FB007091E5
:10080000FC008091CC009091CD00A091CE00B091E1
:10081000CF00400F511F621F731F481759076A0707
:100820007B07C8F42091F0003091EF00321798F464
:1008300021502093F0008093F9009093FA00A09348
:10084000FB00B093FC008093FD009093FE00A0930A
:10085000FF00B093000180912A0190912B019093A9
:100860000A018093090153C18091CC009091CD0081
:10087000A091CE00B091CF008093E9009093EA0060
:10088000A093EB00B093EC0085E080930E01809183
:10089000F7009091F80090930801809307018091F0
:1008A000E1009091E200909306018093050181E0C0
:1008B0008A838091250190912601019690932601CB
:1008C000809325018FEF9FEF9093300180932F014C
:1008D00010920D0180910B018093150180913301DD
:1008E0008823D9F0E091D400F091D50090911001C7
:1008F00021E0290F20931001E90FF11D80838091E1
:100900000D018F5F80930D01609133018FEF9FEF99
:10091000AADC9093300180932F01AAE0FA2E05E023
:1009200010E088E2D3DC86FFFCCF80E0CFDC898357
:1009300080911001823071F480910C0181110AC004
:1009400089818093DA008981833408F0D3C089815A
:1009500080931501E091D400F091D50080911001B1
:1009600091E0980F909310019981E80FF11D908309
:1009700080910D018F5F80930D01698180912F011E
:100980009091300170DC9093300180932F01209181
:10099000100180910C0130E040911501B801681BF5
:1009A0007109CB01840F911D47FD9A9528173907CE
:1009B0000CF4B7CF62E08EE96EDC60E085EA6BDCB8
:1009C00080E086DC1A828091100190E090931D01F6
:1009D00080931C0120910D0140910C0130E085E0D5
:1009E00090E0841B9109281739074CF480911A0173
:1009F00090911B01019690931B0180931A018A81AB
:100A0000882349F0809111019091120101969093F1
:100A1000120180931101FCD10091D0001091D100FE
:100A20002091D2003091D300601B710B820B930B8D
:100A3000609301017093020180930301909304017C
:100A400062E08EE928DC60E085EA25DC80E040DCBD
:100A500081E080930F0160E188EA1DDC84E08093EF
:100A60000E0155C088E232DC83FF26C06AE183E9CB
:100A700012DC65E58AED0FDC60E78CED0CDC609143
:100A8000DC006F71606881E906DC78948091230155
:100A9000909124010196909324018093230180E09A
:100AA00017DC83E080930E018091330181112FC008
:100AB00060E98EEAF0DB2BC0809121019091220148
:100AC0000196909322018093210180910E018093E1
:100AD000200188E2FBDB80931F0181E0F7DB80933C
:100AE0001E0160E188EAD7DB83E080930E0180E09D
:100AF000EFDB0DC0F0921501F98280911301909106
:100B000014010196909314018093130123CF0F9049
:100B10000F90DF91CF911F910F91FF90089581E089
:100B200096CD1F920F920FB60F9211242F933F93E1
:100B30004F935F936F937F938F939F93AF93BF93E5
:100B4000EF93FF93CF93DF931F92CDB7DEB786B3BA
:100B5000898385B78F7D85BF9981809138018927E9
:100B600090911601892B80931601998190933801F9
:100B7000809580BD80B5846080BD80911701909183
:100B8000180101969093180180931701898182FFC3
:100B900007C08BB78F7D8BBFC2DF8BB780628BBFE7
:100BA0000F90DF91CF91FF91EF91BF91AF919F9106
:100BB0008F917F916F915F914F913F912F910F9006
:100BC0000FBE0F901F9018954F925F927F928F9259
:100BD0009F92AF92BF92CF92DF92EF92FF920F93CC
:100BE0001F93CF93DF93CDB7DEB728970FB6F89456
:100BF000DEBF0FBECDBF182F762E042F2901EFEFD9
:100C0000E60FE33028F4F0E0E959FF4F608101C0BE
:100C100060E070E080E090E020E836E948E950E0EC
:100C200073D249015A01672D70E080E090E024EC16
:100C300039E040E050E068D2F901DA0180913901F1
:100C4000B201680F711D87FD7A957F7080E090E09A
:100C50009F01AD0159D229833A834B835C836D8315
:100C60007E838F83988769817A818B819C81680DCF
:100C7000791D8A1D9B1D66DB00933301812F8F71C7
:100C80008093320164E170E080E090E0E5D097DB92
:100C90006091DC00662319F081E9FDDA03C08FE979
:100CA0008093DC0060E089E2F6DA90916600992397
:100CB00069F020E6280F9093EF002F3518F09093FD
:100CC000F00004C0809366008093F00010933A0116
:100CD000812F28960FB6F894DEBF0FBECDBFDF91EF
:100CE000CF911F910F91FF90EF90DF90CF90BF9029
:100CF000AF909F908F907F905F904F900895FCCB26
:100D0000CF93C82F4BDB882399F0CC23D9F395B729
:100D1000977EC33011F480E101C080E0982B95BF2D
:100D200095B7906295BF889595B79F7D95BFEACF9F
:100D3000CF91089591E0811190E0892F36CB8EB547
:100D4000887F8EBD8FB581608FBD8FB58D7F8FBD44
:100D50008EB5877F8EBD8EB58F7E8EBD8EB583603E
:100D60008EBD08951F920F920FB60F9211242F93EC
:100D70003F938F939F93AF93BF9380913C0190914A
:100D80003D01A0913E01B0913F0130913B0126E031
:100D9000230F2D3730F029E8230F0396A11DB11D35
:100DA00003C00296A11DB11D20933B0180933C011D
:100DB00090933D01A0933E01B0933F01809140018B
:100DC00090914101A0914201B09143010196A11D72
:100DD000B11D8093400190934101A0934201B093D3
:100DE0004301BF91AF919F918F913F912F910F90B0
:100DF0000FBE0F901F9018952FB7F89460913C018B
:100E000070913D0180913E0190913F012FBF089567
:100E10003FB7F8948091400190914101A091420127
:100E2000B091430122B708B600FE05C02F3F19F06C
:100E30000196A11DB11D3FBF6627782F892F9A2FDC
:100E4000620F711D811D911D43E0660F771F881F82
:100E5000991F4A95D1F70895CF92DF92EF92FF92B2
:100E6000CF93DF936B017C01D3DFEB01C114D1047D
:100E7000E104F10471F0CCDF6C1B7D0B683E734024
:100E8000A8F381E0C81AD108E108F108C851DC4F85
:100E9000EDCFDF91CF91FF90EF90DF90CF9008954D
:100EA00080B7826080BF80B7816080BF83B7887F52
:100EB000836083BF789489B7816089BF40DF86B142
:100EC0008877866886B9379A0895CF92DF92EF9235
:100ED000FF920F931F93CF93DF936C017A01EB0185
:100EE000E60EF71E00E010E0CE15DF0561F0699117
:100EF000D601ED91FC910190F081E02DC60109959C
:100F0000080F191FF1CFC801DF91CF911F910F91E9
:100F1000FF90EF90DF90CF900895DC011796ED9150
:100F2000FC91189780A191A122A133A1821B930B60
:100F30008F7199270895DC011796ED91FC91189710
:100F400082A193A120A131A12817390729F0E80F28
:100F5000F91F808190E008958FEF9FEF0895DC01E5
:100F60001796ED91FC91189722A133A180A191A130
:100F70008217930761F0DF01A20FB31F8C912F5FDF
:100F80003F4F2F71332733A322A390E008958FEFB3
:100F90009FEF08952FB7F894FC01458156813AE000
:100FA0006095089420F47BB375237BBB04C07BB3AE
:100FB000742B7BBB000021D020D01FD01ED06695A3
:100FC0003A9581F72FBF81E090E00895089520E0E1
:100FD0004091480138E011D010D00FD00ED00DD084
:100FE000889479B3742309F0089427953A9509F009
:100FF000F3CF03D002D0822F089580914D01982F16
:101000009A95F1F70895FB0140A151A19A012F5F34
:101010003F4F2F71332762A173A12617370731F095
:10102000DF01A40FB51F8C9331A320A308951F9255
:101030000F920FB60F9211242F933F934F935F930C
:101040006F937F938F939F93AF93BF93EF93FF9390
:10105000BEDF60914B0170914C01D5DF449AFF9146
:10106000EF91BF91AF919F918F917F916F915F9120
:101070004F913F912F910F900FBE0F901F90189599
:1010800010924701109246018EE690E09093450140
:10109000809344018EE491E090934C0180934B0146
:1010A00084E08093480182E0809349018DEF809332
:1010B0004A0110924D01089581B781BFF1DE14D825
:1010C00028D8FECFA1E21A2EAA1BBB1BFD010DC022
:1010D000AA1FBB1FEE1FFF1FA217B307E407F507E8
:1010E00020F0A21BB30BE40BF50B661F771F881FC4
:1010F000991F1A9469F760957095809590959B015A
:10110000AC01BD01CF01089568940013E894A0E0FC
:10111000B0E0ECE8F8E01DC0EFEFE7F959016A0133
:101120005E23550FEE08FE2C87019B01AC019E2328
:10113000990F660B762FCB0141D0CDB7DEB7EAE031
:1011400024C02F923F924F925F926F927F928F9224
:101150009F92AF92BF92CF92DF92EF92FF920F9346
:101160001F93CF93DF93CDB7DEB7CA1BDB0B0FB650
:10117000F894DEBF0FBECDBF09942A88398848880D
:101180005F846E847D848C849B84AA84B984C884A3
:10119000DF80EE80FD800C811B81AA81B981CE0F9A
:1011A000D11D0FB6F894DEBF0FBECDBFED0108957F
:1011B000EE0FFF1F0590F491E02D0994DF93CF937C
:1011C0009F92A0E49A2E0024D001E001F001169530
:1011D0000795F794E794D794C794B794A79448F4E5
:1011E0001068A20FB31FC41FD51FE61FF71F081EEC
:1011F000191E220F331F441F551F661F771F881F9C
:10120000991F9A9421F79D01AE01BF01C0011124DD
:0C1210009F90CF91DF910895F894FFCFDC
:10121C00000072018000A02B565A00000000CA0783
:0A122C0065078D07AF079B07E60773
:00000001FF
