:10000000BCC0ACC7DFC0DEC0DDC0DCC0DBC0DAC056
:10001000D9C0D8C0D7C0CFC7D5C0D4C0D3C0D2C034
:10002000D1C00D4E6577204E6F6465204E756D62B0
:100030006572206973200043656E74726520667274
:10004000657175656E6379206F6666736574206986
:100050007320002D005363616E20646F776E206300
:100060006F6D706C65746520000D004E6F204163EC
:100070006B20000A476F6F6420202000202B2F2D5B
:1000800020005363616E6E696E6720646F776E2027
:100090007374617274656420002D005363616E2077
:1000A000757020636F6D706C65746520000D004E77
:1000B0006F2041636B20000A476F6F64202020008F
:1000C000202B2F2D20005363616E6E696E672075A3
:1000D00070207374617274656420004E6F646520D3
:1000E000416C6C6F636174696F6E2000436F6E6664
:1000F00069672073617665206661696C6564000AD2
:1001000000313730306F2038622032303967203389
:100110003169205246313254756E653300496E7331
:10012000756666696369656E7420706172616D657C
:1001300074657273203078000A5B524631327475F0
:100140006E65332E305D0A00003A37003B380039C7
:1001500036003240020202010101010101010101E8
:100160000204804020100804020100000102030480
:100170000000000000000B0B470B11241FBECFE551
:10018000D2E0DEBFCDBF10E0A0E6B0E0E2E5F7E1EF
:1001900002C005900D92A839B107D9F711E0A8E97E
:1001A000B0E001C01D92AD32B107E1F711E0CAE73E
:1001B000D1E003C02297FE01A7DAC637D107D1F7F5
:1001C00051D8C5CA1DCF1F93CF93DF93EC01FE0119
:1001D00021961491112379F01A3031F485E291E0DF
:1001E0006DE040E050E069D985E291E0612F40E0A8
:1001F00050E063D9ECCFDF91CF911F9108950F9319
:100200001F93DF93CF9300D00F92CDB7DEB701C01D
:100210004DD4DAD48823E1F380E265EA70E040E26D
:1002200022E04FD51B828E010F5F1F4F15C03ED4B9
:10023000882391F08091C5009091C600892B61F4CC
:100240002091C80030E08091A50090E08F719070FF
:10025000806C2817390741F0C80162E370E01AD3B7
:10026000882329F380E01EC08091C9008130C9F441
:100270008091CA00807E803EA1F48091A1008823F5
:1002800081F48091CA008F718093A1008BED90E082
:100290009ADF6091A10085E291E070E04AE050E0D1
:1002A00077D981E00F900F900F90CF91DF911F9140
:1002B0000F9108958F70682F605D6A330CF0695F4D
:1002C00085E291E040E050E0F8D808951F93CF9385
:1002D000DF9320919C0090919D009F708091A700DA
:1002E000807F892B8093A7002093A8008FEF9FEF3A
:1002F0009093C4008093C300E5EAF0E021918091DF
:10030000C3009091C4008227282F22952827022E0F
:10031000269526952025022E269520252770082E25
:10032000892F269507942795902D82270694279547
:10033000902582279093C4008093C30080E0E33C23
:10034000F807E1F6C0E2D0E0FE01EB57FF4F108165
:10035000CE01612FEED9812F82958F70ABDF812F77
:10036000A9DF2196C034D10579F78FEF90E02BDF1C
:1003700062E370E080E090E09CD681E032D5882393
:1003800021F48CEE90E01FDF06C062E370E080E0B5
:1003900090E08FD634DF62E370E080E090E089D6B1
:1003A000DF91CF911F9108958F929F92AF92BF924C
:1003B000CF92DF92FF920F931F93CF93DF9386EC40
:1003C00090E001DF60919C0070919D0085E291E0DA
:1003D0004AE050E02ED880EC90E0F5DE85E291E036
:1003E0006EE170E04AE050E0D3D81092A100C091D5
:1003F0009C00D0919D006E97AA24AA94BA2C8824C0
:1004000099242FC0CE018050904687D2F8DE182F55
:100410008823A9F0813051F087EB90E0D4DE85E2AB
:1004200091E0612F70E04AE050E0B2D88C169D0652
:1004300008F44E01CA15DB0570F45E010CC08FEAAA
:1004400090E0C1DE85E291E0BE014AE050E0F1D7E4
:100450008DEA90E0B8DE62E370E080E090E029D6BB
:10046000219680919C0090919D004E96C817D907C7
:1004700048F28114910409F4EAC08FEFA8168FEFB7
:10048000B80609F4E4C08BE990E09DDE85E291E0D6
:10049000B5014AE050E0CDD789E990E094DE85E2ED
:1004A00091E0B4014AE050E03BD862E370E080E0C4
:1004B00090E0FFD582E890E086DE60919C0070912C
:1004C0009D0085E291E04AE050E0B3D78CE790E0F0
:1004D0007ADE85E291E06EE170E04AE050E058D8C3
:1004E00000919C0010919D00025E1F4FCC24CA9485
:1004F000DC2CC0E0D0E031C0C801805090460DD265
:100500007EDEF82E8823B1F081E0F81651F083E703
:1005100090E059DE85E291E06F2D70E04AE050E016
:1005200037D8C017D10708F4E8010C151D0570F481
:1005300068010CC08BE690E046DE85E291E0B801F0
:100540004AE050E076D789E690E03DDE62E370E075
:1005500080E090E0AED50150104080919C009091D9
:100560009D004E978017910738F2209709F46FC0CD
:100570008FEFC8168FEFD80609F469C085E590E0C3
:1005800022DE85E291E0B6014AE050E052D783E5F1
:1005900090E019DE85E291E0BE014AE050E0C0D76C
:1005A000C6018A0D9B1D96958795C80DD91DD695B8
:1005B000C795C81BD90BD695C795C80FD91FD0931F
:1005C0009D00C0939C0087E390E0FDDD60919C005E
:1005D00070919D0085E291E04AE050E0A1D762E38E
:1005E00070E080E090E065D59091A1009923B9F08A
:1005F0009F718091A500807E980F9093A50082E264
:1006000090E0E1DD6091A10085E291E070E04AE0D8
:1006100050E0BED76AE070E080E090E04AD556DE58
:10062000409198005091990060919A0070919B00C0
:1006300085E291E02AE030E06AD785E291E060E669
:1006400070E09DD76FEF7FE780E090E032D5DF91DB
:10065000CF911F910F91FF90DF90CF90BF90AF90FF
:100660009F908F900895BF92CF92DF92EF92FF926A
:100670000F931F938BE291E09093280180932701C1
:10068000E0912B01F0912C010190F081E02D099572
:1006900088E391E098DD68E873E180E090E009D5B7
:1006A0000091A500B0909C00D0909D0040919E00CC
:1006B000C090A6002091A2003091A3001091A40048
:1006C000F090A000E0909F0074C020E030E0EF2D9B
:1006D000F0E0EF5FFE4F4491442319F4EE24E394DD
:1006E00002C04032D1F0842F80538A3070F04736F8
:1006F00009F447C0483618F4423689F426C0493612
:1007000009F442C04F3659F44AC0C9016AE070E0AA
:10071000C5D74F709C01240F311DF394D8CFA9EA9F
:10072000B0E08F2DE82FF0E0EF5FFE4FE491EC9307
:10073000EE2321F41160EE24E3943AC08F5F11960A
:1007400050E0A33CB50771F733C0243011F491E0B9
:1007500009C0283011F492E005C0293011F090E072
:1007600001C093E0292F30E02115310541F0802FA1
:100770008F73092F0295000F000F007C080F126085
:1007800017C0C22E146014C0C90101974F9728F4F6
:10079000802F807E022F0F71080F186009C0C901D9
:1007A0008F579040825A9E4010F4B22ED32E106183
:1007B000F394EE2009F489CF0093A500B0929C0039
:1007C000D0929D0040939E00C092A6003093A3005B
:1007D0002093A2001093A400F092A000E0929F004A
:1007E0001F31A1F18DE191E0EEDC2091A4008FE1B9
:1007F00090E0821B910954E0959587955A95E1F711
:1008000059DD9091A4008FE1891B54DD85E291E0D0
:1008100067D685E291E06091A60040E050E097D66F
:1008200085E291E06091A50040E050E090D66091B3
:100830009C0070919D0085E291E04AE050E070D606
:100840006FEF7FE780E090E034D4FACF3FDD1F9177
:100850000F91FF90EF90DF90CF90BF9008950F938E
:100860001F93CF93DF938C01EB0180E0611571053D
:1008700009F081E0F8018283882339F0E5D32197DC
:10088000C60FD71FF801D183C083DF91CF911F918D
:100890000F910895EF92FF920F931F93CF93DF93E1
:1008A000EC017B018A81882311F400E00EC00881ED
:1008B0001981CAD3C801861B970B2AEE813692078D
:1008C00010F400E005C0082F0195CE01B701C7DF85
:1008D000802FDF91CF911F910F91FF90EF9008959E
:1008E000C1989FB990E031E123E13DB92DB99F5FF7
:1008F0009830D9F73FB18FB980E021E193E12DB96C
:100900009DB98F5F8830D9F72FB1932F80E0C19ABE
:1009100030E0282B392BC90108952BB72F7B2BBF33
:10092000DFDF2BB720642BBF089580E090E0D8DF95
:1009300080911501853009F052C080E090EBD0DF46
:10094000282F80911901882371F490911601992321
:1009500051F080911901E82FF0E0E953FF4F9083A7
:100960008F5F8093190180911901E82FF0E0E9531E
:10097000FF4F20838F5F809319018091C500909174
:10098000C6008227282F22952827022E26952695F5
:100990002025022E269520252770082E892F2695A2
:1009A00007942795902D82270694279590258227D6
:1009B0009093C6008093C5008091C90020911901D1
:1009C00090E0049630E0821793072CF08091190193
:1009D000873408F46AC08DE092E882DF0895809140
:1009E000150187FF2EC0E091C900809115018F5F2E
:1009F000809315018150ED5FE80FF0E0E953FF4F60
:100A0000E0818091C5009091C6008E27282F229505
:100A10002827022E269526952025022E269520256C
:100A20002770082E892F269507942795902D8227C9
:100A300006942795902582279093C6008093C50041
:100A40002FC0809115018F5F8093150181508330F5
:100A500019F184302CF4882399F0813001F516C007
:100A6000893019F08A30D9F402C0EDE219C0E09162
:100A700016019091C9008EEF891B8093150110C05B
:100A80008091C5009091C600E82F0AC08091C500F2
:100A90009091C600E92F04C08DE092E821DFEAEAD8
:100AA0008E2F90E0805098441BDF089580911501AF
:100AB000853009F042C08091C9002091190190E071
:100AC000049630E08217930724F08091190187344F
:100AD000A0F184E0809315018091C900833430F047
:100AE00081E090E09093C6008093C5008091C8009B
:100AF00086FF12C080911401282F30E0C9018F7148
:100B000090704F9749F08091C80090E0822793271A
:100B10008F719070892B89F48091C5009091C600E7
:100B2000892B09F043C0E0911201F0911301309735
:100B300009F43CC080E0099545C0809115018430DE
:100B400011F080E008951092C9008091C90080934F
:100B500019018FEF9FEF9093C6008093C5002091FD
:100B600016012223D9F08227282F22952827022E2A
:100B7000269526952025022E269520252770082EBD
:100B8000892F269507942795902D822706942795DF
:100B9000902582279093C6008093C50085E08093BE
:100BA00015018DED92E89CDE80E008958FEF9FEFB8
:100BB000AFEFBFEF80930E0190930F01A093100150
:100BC000B093110181E0089580911501853089F479
:100BD00080911901882369F480E090E09EDE90FD09
:100BE00008C08DE092E899DE84E08093150181E0F1
:100BF000089580E00895982F86FD05C0907E80912D
:100C000014018F71980F9093C800E0911201F09138
:100C10001301309711F081E009958FEF9FEF9093CA
:100C2000C6008093C5008091C5009091C6002091B8
:100C300016018227282F22952827022E26952695F1
:100C40002025022E269520252770082E892F2695EF
:100C500007942795902D8227069427959025822723
:100C60009093C6008093C50086E0809315018DE3C4
:100C700092E836DE0895282F12C0222381F095B71E
:100C8000233011F080E001C080E1977E892B85BF81
:100C900085B7806285BF889585B78F7D85BF809138
:100CA0001501843051F708951F93182F4093C90000
:100CB0002AEC30E0C90150E02BD5812F9CDF1F9139
:100CC00008951F93122FF0DF812FD5DF1F91089514
:100CD000C19AB99A81E061E056D281E061E02FD2F9
:100CE00085E061E02CD284E060E029D286E061E01A
:100CF00026D280E18DB982E060E021D282E061E01D
:100D000042D208951F93162F809314014093160129
:100D10003093180120931701DBDF80E090E0E0DDE5
:100D200085E092E8DDDD80E098EB02C080E090E0B5
:100D3000D7DD82E062D2892BC9F3812F90E064E095
:100D4000880F991F6A95E1F7876C9068C9DD8091DB
:100D500017019091180180509046C2DD86E096EC14
:100D6000BFDD82EA94E9BCDD8CEA92ECB9DD10913A
:100D70001601112339F083E89AECB2DD812F90E05F
:100D80009E6C05C08BE89AECABDD8DE29EECA8DD95
:100D900083E894ECA5DD80E598E9A2DD87E79CEC8B
:100DA0009FDD80E090EE9CDD80E098EC99DD89E4A9
:100DB00090EC96DD84E0809315018091140190E021
:100DC0008F719070892B39F080E065E974E040E024
:100DD00050E0A9D002C080E0B7D0809114011F91EB
:100DE0000895AF92BF92CF92DF92EF92FF920F934E
:100DF0001F93CF93DF93B82E0FEF1FEFEE24FF2446
:100E0000C0E0D0E0CE0180968CD40827902F929538
:100E10009027092E969596959025092E96959025C2
:100E20009770002E012F969507949795102D0927FE
:100E30000694979510250927CE3119F4F82EEE2443
:100E400004C0CF3111F4E80EF11C2196C032D10557
:100E5000C9F6012B11F080E05BC080E290E061D424
:100E6000C82E81E290E05DD4A82E82E290E059D4B1
:100E7000282F30E0D82ED294AFE0DA22D1FE03C082
:100E800000E416E009C02F703070122F002783E2B3
:100E900090E047D4080F111DBB2059F085E291E086
:100EA0006D2D40E150E009D385E291E060E770E00C
:100EB00014D2C4E2D0E0CE0134D4682F803258F08E
:100EC000BB2029F085E291E040E050E0F6D2219687
:100ED000CE33D10581F7BB2071F085E291E062E766
:100EE00070E0FBD185E291E0B70140E150E0A1D292
:100EF00085E291E0F5D26C2D70E0E6E0759567959E
:100F0000EA95E1F78C2D4A2D9801FCDE8C2D8F712E
:100F1000DF91CF911F910F91FF90EF90DF90CF90D5
:100F2000BF90AF900895882371F48FB7F8947093B1
:100F30001B0160931A018FBF85B78C7F842B85BFFF
:100F40008BB780648BBF0895882339F48BB78F7B70
:100F50008BBF10921B0110921A0108951F920F92DD
:100F60000FB60F9211242F933F934F935F936F937C
:100F70007F938F939F93AF93BF93EF93FF93809152
:100F80001A0190911B01892B29F0E0911A01F0912F
:100F90001B010995FF91EF91BF91AF919F918F91A7
:100FA0007F916F915F914F913F912F910F900FBE65
:100FB0000F901F9018951F920F920FB60F92112449
:100FC0002F933F938F939F93AF93BF938091200173
:100FD00090912101A0912201B0912301309124012F
:100FE000232F2A5F2D3728F02D570396A11DB11D01
:100FF00003C00296A11DB11D2093240180932001FE
:1010000090932101A0932201B093230180911C01B0
:1010100090911D01A0911E01B0911F010196A11D8B
:10102000B11D80931C0190931D01A0931E01B093EC
:101030001F01BF91AF919F918F913F912F910F9081
:101040000FBE0F901F9018958FB7F8942091200134
:101050003091210140912201509123018FBFB901AC
:10106000CA0108959FB7F89420911C0130911D0189
:1010700040911E0150911F0182B708B600FE06C0C4
:101080008F3F21F02F5F3F4F4F4F5F4F9FBF542F38
:10109000432F322F2227280F311D411D511D83E080
:1010A000220F331F441F551F8A95D1F7B901CA017A
:1010B0000895EF92FF920F931F93CF93DF937B01DD
:1010C0008C01D0DFEB010DC0CDDF6C1B7D0B685EAA
:1010D0007340D0F30894E108F10801091109C851DF
:1010E000DC4FE114F1040105110571F7DF91CF9197
:1010F0001F910F91FF90EF900895789480B78360CF
:1011000080BF83B7877F83BF83B7887F836083BFB8
:1011100089B7816089BF8EB5887F8EBD8FB58C7F82
:1011200081608FBD8EB5877E8EBD8EB5887F8360D2
:101130008EBD86B1887F866086B9379A0895482F1C
:1011400050E0CA01815A9E4FFC0124914C5A5E4FD7
:10115000FA0184918823B1F0E82FF0E0E85BFE4FBC
:10116000E491F0E0662341F49FB7F89480812095E4
:10117000822380839FBF08959FB7F8948081822B3C
:1011800080839FBF0895282F482F50E0CA01815ABD
:101190009E4FFC0134914C5A5E4FFA019491992371
:1011A00059F1223019F480B78F7304C0233021F431
:1011B00080B78F7C80BF0AC0243019F48FB58F733D
:1011C00004C0253019F48FB58F7C8FBDE92FF0E076
:1011D000E55BFE4FE491F0E0662341F49FB7F8949D
:1011E00080813095832380839FBF08959FB7F894B3
:1011F0008081832B80839FBF0895282F482F50E044
:10120000CA01815A9E4FFC0194914C5A5E4FFA01DB
:101210003491332319F420E030E022C0223019F455
:1012200080B78F7304C0233021F480B78F7C80BFD8
:101230000AC0243019F48FB58F7304C0253019F417
:101240008FB58F7C8FBDE32FF0E0E25BFE4FE49122
:10125000F0E0808120E030E0892311F021E030E0EF
:10126000C90108954ADFFFD99FD8FECF0F931F937E
:10127000CF93DF938C01EB0109C02196D801ED914A
:10128000FC910190F081E02DC801099568816623E9
:10129000A1F7DF91CF911F910F910895EF92FF92E7
:1012A0000F931F93CF93DF938C017B01EA010CC056
:1012B000D7016D917D01D801ED91FC910190F081F4
:1012C000E02DC80109952197209791F7DF91CF91E3
:1012D0001F910F91FF90EF900895DC01ED91FC912B
:1012E0000280F381E02D099508952F923F924F924D
:1012F0005F926F927F928F929F92AF92BF92CF92A6
:10130000DF92EF92FF920F931F93DF93CF93CDB7AE
:10131000DEB7A0970FB6F894DEBF0FBECDBF1C019D
:101320006A017B01411551056105710541F440E3F6
:1013300050E060E070E020E030E08BD053C08824C3
:1013400099245401422E55246624772401E010E0AC
:101350000C0F1D1F080D191DC701B601A301920135
:10136000AFD1F80160830894811C911CA11CB11CB1
:10137000C701B601A3019201A3D1C901DA016C0131
:101380007D01C114D104E104F10401F781E0E82EEC
:10139000F12CEC0EFD1EE80CF91C3E010894611CBA
:1013A000711CD501C4010197A109B1096C01C818CC
:1013B000D90815C0F601EE0DFF1D40814A3010F42A
:1013C000405D01C0495C552747FD5095652F752F3D
:1013D000C10120E030E03DD00894E108F1086E142E
:1013E0007F0441F7A0960FB6F894DEBF0FBECDBFC5
:1013F000CF91DF911F910F91FF90EF90DF90CF90F1
:10140000BF90AF909F908F907F906F905F904F9024
:101410003F902F900895DC012115310541F4ED91A5
:10142000FC910190F081E02D642F099508955DDF16
:101430000895EF92FF920F931F939A017B0100E0B2
:1014400010E0B801A701E7DF1F910F91FF90EF9027
:101450000895EF92FF920F931F93CF93DF93EC01C8
:101460007A018B012115310541F4E881F981019060
:10147000F081E02D642F099519C02A303105A9F4B7
:1014800077FF0FC04DE250E060E070E020E030E018
:10149000E0DF10950095F094E094E11CF11C011D33
:1014A000111DCE01B801A7012AE01FDFDF91CF9106
:1014B0001F910F91FF90EF900895EF92FF920F937D
:1014C0001F93E62E9A01FF24E7FCF0940F2D1F2DA9
:1014D000B801A701BEDF1F910F91FF90EF90089513
:1014E0000F931F938C014DE050E060E070E020E02E
:1014F00030E0AFDFC8014AE050E060E070E020E09B
:1015000030E0A7DF82E090E01F910F9108950F93E4
:101510001F938C0180DFC801E3DF1F910F910895B5
:10152000CF92DF92EF92FF920F931F938C019A015B
:101530006B01EE24FF24B701A6016DDFC801D0DFE7
:101540001F910F91FF90EF90DF90CF900895CF9271
:10155000DF92EF92FF920F931F938C019A01C62E98
:10156000DD24EE24FF24B701A60155DFC801B8DF52
:101570001F910F91FF90EF90DF90CF9008950F9300
:101580001F938C01AADEC801ABDF1F910F91089554
:10159000CF92DF92EF92FF920F931F938C016B011A
:1015A0009A01EE24D7FCE094FE2CB701A60151DF8E
:1015B000C80196DF1F910F91FF90EF90DF90CF90C1
:1015C00008950895089580E090E008958FEF9FEFCB
:1015D00008958FEF9FEF08950895FC01A281B381D4
:1015E000ED91FC9111970280F381E02DCD010995D9
:1015F00081E090E0089529E231E0FC013383228309
:10160000C901DFDF0895FC0182E890E091838083C7
:10161000CF01F1DF08958AE790E090932A0180934B
:10162000290185E291E0EFDF0895B89AC09A089504
:10163000862F880F8E7162956F70606122E095E051
:1016400059E0F89407C0000000000000000000000E
:1016500000000000879510F0C09802C0C09A0000FA
:10166000579510F40000000033E049E54A95F1F782
:1016700000003A95D1F700009A9529F700002A95C5
:1016800021F095E0862F54E0E5CF7894089584E921
:1016900090E090932C0180932B010895552700240E
:1016A00080FF02C0060E571F660F771F6115710578
:1016B00021F096958795009799F7952F802D08959D
:1016C000A1E21A2EAA1BBB1BFD010DC0AA1FBB1F46
:1016D000EE1FFF1FA217B307E407F50720F0A21BB8
:1016E000B30BE40BF50B661F771F881F991F1A9425
:1016F00069F760957095809590959B01AC01BD014F
:10170000CF010895EE0FFF1F0590F491E02D09948D
:10171000FB01DC0102C001900D9241505040D8F70E
:101720000895E199FECF9FBB8EBBE09A99278DB3B8
:101730000895262FE199FECF1CBA9FBB8EBB2DBB0F
:101740000FB6F894E29AE19A0FBE01960895F894C4
:02175000FFCFC9
:1017520044656C6179696E672033322C3736370005
:1017620020002030780000000000E10AE20A0000B8
:101772000000ED0A36094E09E30AE90AE60AEC0A14
:0817820000000000150B180B1C
:00000001FF
