:100000002AC04EC04DC030C797C04AC049C048C082
:1000100047C046C045C076C8DAC97FC041C040C0AD
:100020003FC0250028102E982FAA30AA312D32D497
:1000300033000302048A050506C3119F19291A29F2
:100040001E00260729A0370038003C8F3D10582D90
:100050006F300000100A11241FBECFE5D2E0DEBFD2
:10006000CDBF10E0A0E6B0E0E4EEF5E102C00590FF
:100070000D92AC37B107D9F721E0ACE7B0E001C091
:100080001D92A93DB207E1F710E0C6E5D0E003C03C
:100090002297FE0173DAC435D107D1F7DDD9A0CAA2
:1000A000AFCFEDE7F0E080819181A281B38101962D
:1000B000A11DB11D80839183A283B3838FEF0AD8E2
:1000C00047E06DE770E080E0CED783E0E9D780E0DD
:1000D00001D8089585B7877E886085BF81E287B99A
:1000E000339A85E0815071F010927C0090917C00F1
:1000F0009111F8CF95B7906295BF889595B79F7D80
:1001000095BFF4CF339864B175B16F5F7F4F80E0D6
:100110009CEDA8D98EEC860F08951F920F920FB612
:100120000F9211248F9381E080937C008F910F9028
:100130000FBE0F901F9018951F920F920FB60F923F
:1001400011242F933F934F935F936F937F938F93DC
:100150009F93AF93BF93EF93FF93BAD0FF91EF912B
:10016000BF91AF919F918F917F916F915F914F91CF
:100170003F912F910F900FBE0F901F901895F894FC
:1001800080E886BD16BC7894B89AC09820E436E022
:1001900044ED62E086E1BBD680E09CD7E1E8F0E088
:1001A0008081807881608F778083089593DF80934A
:1001B0008200873418F475DF81E004C0853520F0B3
:1001C00070DF88DF8093830080E797E12FC083FF93
:1001D00002C098E2892787FD05C0806491B590939D
:1001E000840002C08091840094B7977F94BFF894F4
:1001F00091B5986191BD81BD7894089596B1379875
:1002000085B7877E806185BFF89485B7806285BF9A
:1002100085B7846885BF85B78B77806885BF7894FC
:10022000889585B78F7D85BF96B90895DF92EF9247
:10023000FF920F931F93CF93DF938C01EC0198E013
:10024000E92EF12CC031D10520F19E01D12C2032B4
:10025000310538F0D39489E0D81619F036952795F2
:10026000F6CF109285008D2DB2DFC8DF8FEFAFDFA4
:10027000C70102C0880F991FDA94E2F7C81BD90B97
:1002800020918500222319F0C81BD90BDBCF80E019
:1002900001C081E04091A3015091A4016091A501AA
:1002A0007091A6010C1B1D0B400F511F611D711D8C
:1002B0004093A3015093A4016093A5017093A601FC
:1002C000DF91CF911F910F91FF90EF90DF900895F4
:1002D000809185008F5F8093850008958627682F21
:1002E00062956827062E669566956025062E6695AA
:1002F00060256770082E892F669507946795902D65
:100300008627069467959025862708959BB79F7D3D
:100310009BBFC1988FB988E021E193E12DB99DB9C8
:100320008150E1F78FB16FB988E021E193E12DB9F8
:100330009DB98150E1F78FB1C19A9BB790629BBF85
:10034000089560E0E3CF1F93CF93DF93D82F8830D9
:10035000D8F085E2F6DF182FDC3011F460E801C038
:1003600060E485EAD3DF68E081E8D0DFC0E080E0C8
:10037000E8DF811103C0CF5FCF37C9F7612F85EA6E
:10038000C5DFD83089F008C0811105C060E081E880
:10039000BDDFC0E009C0C0E06D2F606881E8B6DF56
:1003A00003C0CF5FCE3F20F487E2CBDF87FFF9CFDA
:1003B0008C2FDF91CF911F91089522E0660F771F58
:1003C000881F991F2A95D1F729E03DE340E050E0CE
:1003D0005DD866E0220F331F441F551F6A95D1F781
:1003E00080914F01280F311D411D511D2093520155
:1003F00030935301409354015093550110922701BB
:1004000081E28093EE008FEF8093090110920A0140
:1004100008959091290181E093300CF080E00895D7
:10042000882311F080E001C084E08DDF83E08093B9
:10043000290108951F93CF93DF9380912B01882387
:1004400029F080912A01882309F445C081E079DFF1
:10045000182F85E276DFD82F60E085EA57DF80E04D
:1004600072DF6FEF89EA52DF80E16DDF10924B019E
:1004700061E083EA4BDF87E264DF83FD06C0909191
:100480004B019F5F90934B01F6CF84E25ADFC82F58
:1004900062E08EE93BDF60E489EA38DF80E053DF29
:1004A0006091080189EA32DF6D2F85EA2FDF812F05
:1004B0008C7149DF809108018C1760F480910901EB
:1004C000C81710F4C093090180910A018C1710F429
:1004D000C0930A018C2FDF91CF911F9108958093D3
:1004E000660080912B01882379F080912A01811187
:1004F0000BC010920B0180912B018093EF00809133
:100500002A018093F0000DC080E01DDF93DF80930F
:100510000B0190916600891720F093E090932901D8
:10052000089580E00895CF93DF9310923401C19A2B
:10053000B99AC19AD6988AB380638ABB87B387BBBE
:1005400080E18DB96FE084EBE1DE6AEA85EBDEDE07
:1005500065E586EBDBDE85E3F4DE8A3A09F07DC0F3
:1005600086E3EFDE853509F078C060E88EEACEDEFE
:1005700060E885EACBDE8CE0E6DE65E580E8C6DE95
:1005800080E0E1DEC2E2D0E0FE018491882331F018
:10059000319664918068BADE2296F6CFFDD56093DD
:1005A00016017093170180931801909319018BB76E
:1005B0008F7B8BBF80915001882341F0BA9880B522
:1005C000846080BD8BB780628BBF03C080B58B7F9A
:1005D00080BD6091510182EB99DE809151018111C2
:1005E00002C060E901C068E98EEA90DE80915201A4
:1005F00090915301A0915401B0915501BD018827FC
:10060000992787E883DE8091520190915301A09150
:100610005401B0915501692F7A2F8B2F992788E8C3
:1006200075DE6091520189E871DE84E08CDE61E85C
:100630008AE86CDE8AE085DE86FFFCCF60E188EA2E
:1006400065DE83E08093290181E08093340183E7B4
:1006500090E09093060180930501DF91CF9108957A
:1006600020912901233021F0243009F44CC0E4C04A
:1006700010922A0110925B0110922B019093ED00D1
:100680008093EC0084E05FDED5DE80930F018091E3
:10069000220190912301909394008093930060EC49
:1006A00085EA34DE60E088E931DE6091F4006F7144
:1006B000606881E92BDE6AE183E928DE65E58AED81
:1006C00025DE60E78CED22DE80E13DDE80930C01CB
:1006D00060E188EA1BDE84E08093290162E08EE914
:1006E00015DE66D56093E8007093E9008093EA0018
:1006F0009093EB0081E025DE80930E0187E221DEFE
:1007000080930D0199C080912A01882309F494C037
:1007100080914C0180939A008091460180939900CA
:100720008091490190914A0190939800809397009D
:100730008091470190914801909396008093950095
:100740008091010190910201A0910301B0910401F7
:1007500080938E0090938F00A0939000B0939100AF
:10076000109223011092220165DE80939200809105
:1007700020019091210190938D0080938C008091B5
:100780001E0190911F0190938B0080938A008091AD
:100790001A0190911B01A0911C01B0911D01809341
:1007A000860090938700A0938800B09389002091E1
:1007B0003001332727FD30952C5F3F4F40E0842FD9
:1007C00090E02817390754F0FC01E75AFE4F50819A
:1007D000FC01E556FF4F50834F5FF1CF80914D01F3
:1007E00090914E019093E3008093E20083E0809328
:1007F00029018091E2009091E300892B71F48091AE
:100800005A0186FF0DC0909150019F3149F08091AF
:100810005A018F71891307C003C081E090E00895E9
:1008200080E090E0089580913E0190913F01019613
:1008300090933F0180933E018FEF9FEF0895FF92C9
:100840000F931F93CF93DF93EB01FB0120E030E088
:10085000642F70E0261737074CF4890102561F4FAA
:100860009191D8019C932F5F3F4FF4CF86FD04C038
:10087000807E90915001890F80939C0040939D0051
:1008800090919D008EEF891B8093290188E259DDAC
:10089000807519F080E055DDF9CF60E188EA36DD3A
:1008A00082E34FDD682F8FEF9FEF18DD90934E01AD
:1008B00080934D018091F40087FF04C08F7980936D
:1008C000F4000BC08F3749F46FE083E91FDD6DE55D
:1008D0008AED1CDD6CE78CED19DD62E085EA16DD42
:1008E000CD2B31F068E98EEA11DD6091F40004C08F
:1008F00060E08EEA0BDD60E081E908DD8CE023DD5D
:100900008091290182300CF03FC088E21ADD87FD1A
:10091000F7CF8091290187FF1CC0E0919D00909145
:10092000270180912901F0E03396E90FF11DE80FCE
:10093000F11D87FDFA95E556FF4FF0806F2D8091F0
:100940004D0190914E01CADC90934E0180934D0170
:1009500012C080912901882361F0813061F4809177
:100960004D0190914E01F92E9093E3008093E200A7
:1009700002C0F0904D016F2D80E8C8DC8091290104
:100980008F5F80932901BCCFDF91CF911F910F9191
:10099000FF900895FF920F931F93CF93DF9300D0A2
:1009A000CDB7DEB7F82E20914401309145012F5F7D
:1009B0003F4F3093450120934401809129018430B9
:1009C00009F0F3C181E2BDDC082F10E0109348016B
:1009D0000093470182E2B5DC302F2227282B309389
:1009E00048012093470184E2ACDC80934C0188E10C
:1009F000A8DC809346018FE1A4DC082F10E010935F
:100A00004A010093490180E29CDC302F2227282BE9
:100A100030934A01209349017894FF2009F4C7C01C
:100A2000BBD36093E4007093E5008093E60090935D
:100A3000E700109211011092100187E282DC80FF22
:100A40003AC061E08EE962DC8EE17BDC8FE179DC2B
:100A5000082F10E010934A010093490180E271DCF5
:100A6000302F2227282B30934A012093490180916F
:100A7000FD009091FE00A091FF00B0910001019651
:100A8000A11DB11D8093FD009093FE00A093FF0077
:100A9000B09300018091E4009091E500A091E60000
:100AA000B091E7008093120190931301A093140179
:100AB000B09315017CC080911001909111019C01AF
:100AC0002F5F3F4F309311012093100120910501BA
:100AD000309106018217930708F4AFCF83E080932B
:100AE000290160E085EA12DC66E088E90FDC64E653
:100AF00089EA0CDC80E027DC8091F9009091FA0013
:100B0000A091FB00B091FC000196A11DB11D809346
:100B1000F9009093FA00A093FB00B093FC000091C1
:100B2000F5001091F6002091F7003091F8000115C2
:100B300011052105310591F14091120150911301E8
:100B400060911401709115018091E4009091E5008D
:100B5000A091E600B091E700400F511F621F731F84
:100B6000481759076A077B07C8F42091080130919C
:100B70000701321798F42150209308018093120145
:100B800090931301A0931401B09315018093160163
:100B900090931701A0931801B09319018091470118
:100BA00090914801909325018093240153C1809135
:100BB000E4009091E500A091E600B091E7008093F9
:100BC000010190930201A0930301B093040185E019
:100BD000809329018091100190911101909321013E
:100BE000809320018091F9009091FA0090931F0169
:100BF00080931E0181E08A8380914201909143019C
:100C0000019690934301809342018FEF9FEF909361
:100C10004E0180934D01109228018091260180930E
:100C20003001809151018823D9F0E091EC00F091DE
:100C3000ED0090912B0121E0290F20932B01E90F6A
:100C4000F11D8083809128018F5F8093280160913E
:100C500051018FEF9FEF42DB90934E0180934D0146
:100C6000AAE0FA2E05E010E088E26BDB86FFFCCFFD
:100C700080E067DB898380912B01823071F4809161
:100C8000270181110AC089818093F2008981833410
:100C900008F0D3C0898180933001E091EC00F0919D
:100CA000ED0080912B0191E0980F90932B01998199
:100CB000E80FF11D9083809128018F5F80932801B8
:100CC000698180914D0190914E0108DB90934E0116
:100CD00080934D0120912B018091270130E04091BC
:100CE0003001B801681B7109CB01840F911D47FDCC
:100CF0009A95281739070CF4B7CF62E08EE906DB26
:100D000060E085EA03DB80E01EDB1A8280912B0124
:100D100090E0909338018093370120912801409111
:100D2000270130E085E090E0841B910928173907FE
:100D30004CF48091350190913601019690933601E3
:100D4000809335018A81882349F080912C0190910C
:100D50002D01019690932D0180932C0129D20091B1
:100D6000E8001091E9002091EA003091EB00601B4F
:100D7000710B820B930B60931A0170931B0180938C
:100D80001C0190931D0162E08EE9C0DA60E085EA03
:100D9000BDDA80E0D8DA81E080932A0160E188EA58
:100DA000B5DA84E08093290155C088E2CADA83FF6E
:100DB00026C06AE183E9AADA65E58AEDA7DA60E789
:100DC0008CEDA4DA6091F4006F71606881E99EDABD
:100DD0007894809140019091410101969093410156
:100DE0008093400180E0AFDA83E080932901809115
:100DF000510181112FC060E98EEA88DA2BC0809101
:100E00003C0190913D01019690933D0180933C01FE
:100E10008091290180933B0188E293DA80933A0123
:100E200081E08FDA8093390160E188EA6FDA83E04C
:100E30008093290180E087DA0DC0F0923001F982B9
:100E400080912E0190912F01019690932F01809314
:100E50002E0123CF0F900F90DF91CF911F910F9113
:100E6000FF90089581E096CD1F920F920FB60F92DA
:100E700011242F933F934F935F936F937F938F939F
:100E80009F93AF93BF93EF93FF93CF93DF931F9203
:100E9000CDB7DEB786B3898385B78F7D85BF99814E
:100EA00080915601892790913101892B80933101DE
:100EB000998190935601809580BD80B5846080BDF6
:100EC0008091320190913301019690933301809388
:100ED0003201898182FF07C08BB78F7D8BBFC2DF54
:100EE0008BB780628BBF0F90DF91CF91FF91EF9115
:100EF000BF91AF919F918F917F916F915F914F9132
:100F00003F912F910F900FBE0F901F9018954F9209
:100F10005F927F928F929F92AF92BF92CF92DF9219
:100F2000EF92FF920F931F93CF93DF93CDB7DEB76E
:100F300028970FB6F894DEBF0FBECDBF182F762EC0
:100F4000042F2901EFEFE60FE33028F4F0E0E85931
:100F5000FF4F608101C060E070E080E090E020E839
:100F600036E948E950E0B4D249015A01672D70E0F2
:100F700080E090E024EC39E040E050E0A9D2F901B3
:100F8000DA0180915701B201680F711D87FD7A95D2
:100F90007F7080E090E09F01AD019AD229833A836F
:100FA0004B835C836D837E838F83988769817A818D
:100FB0008B819C81680D791D8A1D9B1DFED9009334
:100FC0005101812F8F718093500164E170E080E0C6
:100FD00090E012D1A8DA6091F400662319F081E95B
:100FE00095D903C08FE98093F40060E089E28ED93F
:100FF00090916700992369F020E6280F90930701EC
:101000002F3518F09093080104C0809367008093F7
:10101000080110935801812F28960FB6F894DEBF6F
:101020000FBECDBFDF91CF911F910F91FF90EF9039
:10103000DF90CF90BF90AF909F908F907F905F9008
:101040004F90089589E591E00BDB9093A101809387
:10105000A0012091A0013091A10181E02F3F3F4FDD
:1010600009F480E00895EF92FF921F93CF93DF93EE
:101070001F92CDB7DEB7182F7B0180EA49832FDAA4
:101080004981811104C04983DDDF4981F6CFB70171
:10109000812F0F90DF91CF911F91FF90EF90CFCBD9
:1010A000CF93C82FB6D9882399F0CC23D9F395B71D
:1010B000977EC33011F480E101C080E0982B95BF8A
:1010C00095B7906295BF889595B79F7D95BFEACFFC
:1010D000CF91089591E0811190E0892FA1C98EB53B
:1010E000887F8EBD8FB581608FBD8FB58D7F8FBDA1
:1010F0008EB5877F8EBD8EB58F7E8EBD8EB583609B
:101100008EBD08951F920F920FB60F9211242F9348
:101110003F938F939F93AF93BF938091A30190913F
:10112000A401A091A501B091A6013091A20126E0F1
:10113000230F2D3730F029E8230F0396A11DB11D91
:1011400003C00296A11DB11D2093A2018093A301AB
:101150009093A401A093A501B093A6018091A7014B
:101160009091A801A091A901B091AA010196A11D99
:10117000B11D8093A7019093A801A093A901B093FA
:10118000AA01BF91AF919F918F913F912F910F90A5
:101190000FBE0F901F9018952FB7F8946091A30180
:1011A0007091A4018091A5019091A6012FBF08958F
:1011B0003FB7F8948091A7019091A801A091A9014F
:1011C000B091AA0122B708B600FE05C02F3F19F062
:1011D0000196A11DB11D3FBF6627782F892F9A2F39
:1011E000620F711D811D911D43E0660F771F881FDF
:1011F000991F4A95D1F70895CF92DF92EF92FF920F
:10120000CF93DF936B017C01D3DFEB01C114D104D9
:10121000E104F10471F0CCDF6C1B7D0B683E734080
:10122000A8F381E0C81AD108E108F108C851DC4FE1
:10123000EDCFDF91CF91FF90EF90DF90CF900895A9
:1012400080B7826080BF80B7816080BF83B7887FAE
:10125000836083BF789489B7816089BF40DF86B19E
:101260008877866886B9379A0895CF92DF92EF9291
:10127000FF920F931F93CF93DF936C017A01EB01E1
:10128000E60EF71E00E010E0CE15DF0561F0699173
:10129000D601ED91FC910190F081E02DC6010995F8
:1012A000080F191FF1CFC801DF91CF911F910F9146
:1012B000FF90EF90DF90CF900895DC011796ED91AD
:1012C000FC91189780A191A122A133A1821B930BBD
:1012D0008F7199270895DC011796ED91FC9118976D
:1012E00082A193A120A131A12817390729F0E80F85
:1012F000F91F808190E008958FEF9FEF0895DC0142
:101300001796ED91FC91189722A133A180A191A18C
:101310008217930761F0DF01A20FB31F8C912F5F3B
:101320003F4F2F71332733A322A390E008958FEF0F
:101330009FEF08952FB7F894FC01458156813AE05C
:101340006095089420F47BB375237BBB04C07BB30A
:10135000742B7BBB000021D020D01FD01ED06695FF
:101360003A9581F72FBF81E090E00895089520E03D
:101370004091AF0138E011D010D00FD00ED00DD079
:10138000889479B3742309F0089427953A9509F065
:10139000F3CF03D002D0822F08958091B401982F0B
:1013A0009A95F1F70895FB0140A151A19A012F5F91
:1013B0003F4F2F71332762A173A12617370731F0F2
:1013C000DF01A40FB51F8C9331A320A308951F92B2
:1013D0000F920FB60F9211242F933F934F935F9369
:1013E0006F937F938F939F93AF93BF93EF93FF93ED
:1013F000BEDF6091B2017091B301D5DF449AFF91D5
:10140000EF91BF91AF919F918F917F916F915F917C
:101410004F913F912F910F900FBE0F901F901895F5
:101420001092AE011092AD018FE690E09093AC0166
:101430008093AB0185EB91E09093B3018093B2016F
:1014400084E08093AF0182E08093B0018DEF8093C0
:10145000B1011092B401089581B781BFF1DE8FD63A
:10146000A5D6FECFAA1BBB1B51E107C0AA1FBB1FFD
:10147000A617B70710F0A61BB70B881F991F5A9520
:10148000A9F780959095BC01CD010895A1E21A2E8F
:10149000AA1BBB1BFD010DC0AA1FBB1FEE1FFF1F18
:1014A000A217B307E407F50720F0A21BB30BE40B68
:1014B000F50B661F771F881F991F1A9469F76095AF
:1014C0007095809590959B01AC01BD01CF01089569
:1014D00068940013E894A0E0B0E0E0E7FAE01DC0F3
:1014E000EFEFE7F959016A015E23550FEE08FE2C74
:1014F00087019B01AC019E23990F660B762FCB01D0
:1015000041D0CDB7DEB7EAE024C02F923F924F9290
:101510005F926F927F928F929F92AF92BF92CF9283
:10152000DF92EF92FF920F931F93CF93DF93CDB78C
:10153000DEB7CA1BDB0B0FB6F894DEBF0FBECDBF04
:1015400009942A88398848885F846E847D848C84D5
:101550009B84AA84B984C884DF80EE80FD800C81DE
:101560001B81AA81B981CE0FD11D0FB6F894DEBFC1
:101570000FBECDBFED010895EE0FFF1F0590F49152
:10158000E02D0994DF93CF939F92A0E49A2E00243C
:10159000D001E001F00116950795F794E794D794F0
:1015A000C794B794A79448F41068A20FB31FC41F40
:1015B000D51FE61FF71F081E191E220F331F441FD9
:1015C000551F661F771F881F991F9A9421F79D0149
:1015D000AE01BF01C00111249F90CF91DF9108950A
:0415E000F894FFCFAD
:1015E4000000D9018000A0A02B565A000000009AE8
:0C15F4000935095D097F096B09B6090083
:00000001FF
