:100000000C9487020C94E30A0C94100B0C94AF022E
:100010000C94AF020C94AF020C94AF020C94AF029C
:100020000C94AF020C94AF020C94AF020C94AF028C
:100030000C94AF020C94AF020C94AF020C94AF027C
:100040000C943D0B0C94AF020C94E30D0C94150E24
:100050000C94AF020C94AF020C94AF020C94AF025C
:100060000C94AF020C94AF02400568041805990582
:1000700099054B0513058F055E048F055B058A0501
:100080008F058F0592048F057605990540051F059C
:100090008F05870599057D058F056005205A7A7AB9
:1000A0002E2E2E0A007465737420003E20002062FC
:1000B0000A00202D3E2000202D3E2061636B0A00A7
:1000C00020494920004153432000292000202800D6
:1000D000204700203F004F4B0043757272656E74DD
:1000E00020636F6E66696775726174696F6E3A0A34
:1000F000005B5246313264656D6F2E31325D000A0D
:10010000417661696C61626C6520636F6D6D616ED3
:1001100064733A0A20203C6E6E3E20692020202025
:10012000202D20736574206E6F646520494420285B
:100130007374616E64617264206E6F6465206964BB
:10014000732061726520312E2E3330290A20203C25
:100150006E3E20622020202020202D2073657420F8
:100160004D487A2062616E64202834203D2034336B
:10017000332C2038203D203836382C2039203D20A3
:10018000393135290A20203C6E6E6E6E3E206F207C
:1001900020202D206368616E676520667265717529
:1001A000656E6379206F666673657420776974681D
:1001B000696E207468652062616E642028646566DB
:1001C00061756C742031363030290A2020202020BF
:1001D0002020202020202020202039362E2E3339A8
:1001E0003033206973207468652072616E67652002
:1001F000737570706F7274656420627920746865BD
:100200002052464D3132420A20203C6E6E6E3E2016
:1002100067202020202D20736574206E6574776F11
:10022000726B2067726F7570202852464D313220F4
:100230006F6E6C7920616C6C6F7773203231322C69
:100240002030203D20616E79290A20203C6E3E201E
:10025000632020202020202D2073657420636F6C84
:100260006C656374206D6F64652028616476616ECF
:100270006365642C206E6F726D616C6C792030291F
:100280000A202074202020202020202020202D2023
:1002900062726F616463617374206D61782D73693C
:1002A0007A652074657374207061636B65742C20AB
:1002B000726571756573742061636B0A20202E2E40
:1002C0002E2C3C6E6E3E2061202D2073656E6420C6
:1002D00064617461207061636B657420746F206E5B
:1002E0006F6465203C6E6E3E2C207265717565737F
:1002F000742061636B0A20202E2E2E2C3C6E6E3EE5
:100300002073202D2073656E6420646174612070F9
:1003100061636B657420746F206E6F6465203C6E42
:100320006E3E2C206E6F2061636B0A20203C6E3E77
:1003300020712020202020202D20736574207175CD
:10034000696574206D6F6465202831203D20646FDD
:100350006E2774207265706F727420626164207001
:1003600061636B657473290A20203C6E3E207820FF
:1003700020202020202D20736574207265706F72FC
:1003800074696E6720666F726D61742028303A2040
:10039000646563696D616C2C20313A206865782C46
:1003A00020323A206865782B6173636969290A20D5
:1003B00020313233207A2020202020202D20746FFD
:1003C00074616C20706F77657220646F776E2C207B
:1003D0006E65656473206120726573657420746F47
:1003E00020737461727420757020616761696E0A90
:1003F00052656D6F746520636F6E74726F6C2063ED
:100400006F6D6D616E64733A0A20203C68636869A1
:100410003E2C3C68636C6F3E2C3C616464723E2CE5
:100420003C636D643E206620202020202D20465312
:10043000323020636F6D6D616E642028383638204D
:100440004D487A290A20203C616464723E2C3C6449
:1004500065763E2C3C6F6E3E206B202020202020B5
:1004600020202020202020202D204B414B55206390
:100470006F6D6D616E642028343333204D487A29C6
:100480000A00636F6E666967207361766520666136
:10049000696C65640A00010402000302048A050510
:1004A00006C30B2019421E2C25802E902FAA302D1A
:1004B000370038003C8F3D106F200000000008001E
:1004C000020100000304070000000000000000011A
:1004D00002040810204080010204081020010204D8
:1004E00008102004040404040404040202020202AA
:1004F0000203030303030300000000250028002B70
:100500000000000000240027002A0000450E1124EE
:100510001FBECFEFD8E0DEBFCDBF11E0A0E0B1E05D
:10052000E0EBF0E202C005900D92AA34B107D9F7D2
:1005300023E0AAE4B1E001C01D92A936B207E1F7B9
:1005400015E0CEE0D5E004C02297FE010E94051020
:10055000CC30D107C9F70E94890E0C9456100C9428
:100560000000682F8CE092E00C94D80E1F93CF937C
:10057000DF93EC01FE011491112351F01A3019F4AC
:100580008DE00E94B102812F0E94B1022196F2CF2C
:10059000DF91CF911F9108958F7060E3680F6A33E8
:1005A00014F067E3680F8CE092E00C94D80ECF93C0
:1005B000C82F61E089E00E94360C61E0C11160E063
:1005C00089E0CF910C946F0CCF93C82F90919A0132
:1005D0009370682F70E061F0CB0124E095958795CA
:1005E0002A95E1F70E94CC028C2FCF910C94CC027B
:1005F0004AE050E08CE092E0CF910C94C60F0F934C
:100600001F93CF93DF9381E080939901E7E9F1E0B5
:100610008FEF9FEF21918227282F22952827022EE6
:10062000269526952025022E269520252770082E12
:10063000892F269507942795902D82270694279534
:100640009025822721E0E53AF20721F79093A60151
:100650008093A5016091970180E290E00E9438109C
:1006600007E911E0C0E2D0E0F80161918F01CE010D
:100670000E9438102196C033D105B1F70E94FD09C0
:10068000882331F0DF91CF911F910F910C94D30605
:1006900082E894E0DF91CF911F910F910C94B60204
:1006A0000F931F93CF93DF9364E670E080E090E0B8
:1006B0000E94AA0B26E040E051EE60E070E08CE082
:1006C00092E00E94810D8CE092E00E94DF0E81EFAB
:1006D00090E00E94B6020E94FD09882379F007E9A4
:1006E00011E0C0E2D0E0CE010E942A10D8018D9323
:1006F0008D012196C033D105B1F71CC080E1E7E937
:10070000F1E0DF011D928A95E9F781E88093970176
:1007100084ED8093980180E496E090939C0180930F
:100720009B0180919A01886080939A010E94FF0248
:100730000E94FD090E94D3068FEF90E00E94B6024E
:1007400089ED90E00E94B602DF91CF911F910F9149
:100750000C94D306CF92DF92EF92FF920F931F93E8
:10076000CF93DF938CE092E00E94A50C892B09F4D3
:10077000E6C18CE092E00E94BE0CC82F80ED8C0F89
:100780008A30A8F440919401509195018AE0849FA9
:100790009001859F300D1124205331092C0F311DFC
:1007A000C7FD3A953093950120939401C8C1CC328E
:1007B00081F4E0914D01E63408F0BDC181E08E0F77
:1007C00080934D01F0E0E25BFE4F809194018083C5
:1007D000B2C18FE98C0F8A3148F58BEA90E00E9414
:1007E000B602D0E080914D01D81788F4ED2FF0E0EB
:1007F000E25BFE4F608170E04AE050E08CE092E006
:100800000E94C60F8CE20E94B102DF5FEBCF6091C5
:100810009401709195014AE050E08CE092E00E94D2
:10082000C60F6C2F8CE092E00E94F50ECE3391F54E
:10083000E0914D0181E08E0F80934D01F0E0E25B8D
:10084000FE4F80919401808320919B0130919C0107
:1008500040914F0180914E01843031F0883031F069
:10086000893031F463E005C061E003C062E001C09B
:1008700060E0809150010E94A40940914D014450D4
:1008800062E571E0809151010E946F0A82E00E944E
:100890008E0A0EC1C1320CF44CC14C2F552747FDB6
:1008A0005095652F752FFA01E156F109EA31F105EE
:1008B00008F035C1EC5CFF4F0C940310809194015B
:1008C0008F7190919701907E890F8093970127C037
:1008D00080919401843031F0883031F0893031F4E6
:1008E00023E005C021E003C022E001C020E0822F08
:1008F00090E09093950180939401892B09F419C19C
:10090000809197018F7340E4249F800D1124809380
:10091000970180E496E090939C0180939B010E9454
:10092000FF0207C180919401909195019C0120568E
:100930003109203E3E4030F490939C0180939B010E
:100940000E94FF02E0919701F0E056E0F595E795EF
:100950005A95E1F7CF0101978330910528F4DC0126
:10096000A55FBE4FAC9101C0A0E0B0E020EA36E840
:1009700041E050E00E941F106B017C0129E130E052
:10098000DF010E9418109B01AC01A0919B01B09166
:100990009C010E941F10C60ED71EE81EF91EC7013B
:1009A000B60120E137E240E050E00E94E10F89010A
:1009B0009A016B017C014AE050E0B8018CE092E0C2
:1009C0000E94C60F8EE20E94B102C60168EE73E07B
:1009D0000E94CD0F80E3860F0E94B102C60164E63B
:1009E00070E00E94CD0FCB01CAE0D0E0BE010E94B2
:1009F000CD0F805D0E94B102C601BE010E94CD0FE5
:100A0000182FCB01BE010E94CD0F805D0E94B10264
:100A100080E3810F0E94B10266E071E08CE092E019
:100A20000E94E30E86C0809194018093980177CF55
:100A300080919A019091940190FB82F965C081E6C2
:100A40008093960182E480934C0110924B01209197
:100A50004A01EEE4F1E080E0982F920F91938F5FCE
:100A60008234D1F785EA90E00E94B60280914A0173
:100A70000E94E40280914A018F5F80934A0159C02D
:100A8000C093960180914D0180934C018091940117
:100A900080934B014EC020E436E040E062E080E00D
:100AA0000E94A40981E00E94D70280E00E94D70240
:100AB0000E94FD093EC020E436E040E061E0EFCF57
:100AC00080919401909195018B37910591F58CE976
:100AD00090E00E94B6028CE092E00E94FE0C80E062
:100AE0000E94AD0AF8940E94B60623C080919A0134
:100AF0009091940190FB83F907C0909194019370B9
:100B000080919A018C7F892B80939A0108CF81EF85
:100B100090E00BC0809194010E94D7020AC08FEF31
:100B200090E00E94B60289ED90E00E94B6020E9419
:100B3000D30610924D0110929501109294010E94DB
:100B4000590A882309F4CAC0F090B7018091FD01C9
:100B50009091FE01892B29F486ED90E00E94B60267
:100B60000DC080919A0183FDF8C083ED90E00E9452
:100B7000B60284E18F1510F444E1F42E80919A01BD
:100B8000837019F088E50E94B1028091980181116B
:100B900008C080ED90E00E94B6028091B5010E94ED
:100BA000E40280E20E94B1028091B6010E94E40258
:100BB00008EB11E0E801E02E8C2F801B8F1558F414
:100BC00080919A01837019F480E20E94B1028991A8
:100BD0000E94E402F1CF8DEC90E00E94B602809179
:100BE0009A01837029F08091AB010E94E4020EC04B
:100BF0006091AB0170E0759567957195619571098C
:100C00004AE050E08CE092E00E94AA0F8AEC90E06B
:100C10000E94B6028CE092E00E94DF0E80919A0161
:100C2000837090E002978CF185EC90E00E94B60210
:100C300080919801811104C080EC90E00E94B6027E
:100C40008091B60186FF02C08EE301C08CE30E9452
:100C5000B1028091B6018F71805C0E94B102C8EB35
:100C6000D1E08C2F8E198F1560F480E20E94B102C2
:100C7000899190EE980F9F3508F08EE20E94B102A4
:100C8000F0CF8CE092E00E94DF0E8091FD01909108
:100C9000FE01892B19F581E00E94D7028091B601EF
:100CA00085FF19C08091B60187FD15C080919A011A
:100CB00082FD11C087EB90E00E94B6028091B601E0
:100CC00086FD15C08091B6018F71806C40E060E0B8
:100CD00070E00E946D0A80E00E94D7028091960128
:100CE0008823D9F10E946B0A811103C036C080E8C5
:100CF000EDCF81E00E94D70282EB90E00E94B60225
:100D000060914C0170E04AE050E08CE092E00E947B
:100D1000C60F8EEA90E00E94B6028091960181365D
:100D2000D1F080E090914B01992311F09064892BD0
:100D300040914C016EE471E00E946D0A10929601A0
:100D400080E0DF91CF911F910F91FF90EF90DF90A6
:100D5000CF900C94D70280E2E5CFDF91CF911F9125
:100D60000F91FF90EF90DF90CF900895EAE7F0E0C9
:100D7000908180818F77808383B7817F846083BFF8
:100D8000F89483B7816083BF85B7806685BF85B7D8
:100D90008F79806485BF7894889583B78E7F83BF71
:100DA00090937A000895CF92DF92FF920F931F9352
:100DB000CF93DF931F92CDB7DEB780E290E00E9421
:100DC0002A10082F83E290E00E942A10182F84E254
:100DD00090E00E9432106C0160E28CE092E00E9490
:100DE000D80E202F2F7160E4620F8CE092E02983EF
:100DF0000E94D80E6EE071E08CE092E00E94D60E68
:100E00002981622F70E04AE050E08CE092E00E947D
:100E1000AA0F812F8470F82E12FF05C06AE28CE0C1
:100E200092E00E94D80E61E171E08CE092E00E94B5
:100E3000D60E81E290E00E942A104AE050E0682F2E
:100E40008CE092E00E94BF0F64E171E08CE092E0E0
:100E50000E94D60E802F829586958695837081306C
:100E600039F0823041F0833049F463E973E008C01F
:100E700061EB71E005C064E673E002C060E070E021
:100E80004AE050E08CE092E00E94AA0F66E071E038
:100E90008CE092E00E94D60EFF2031F068E171E014
:100EA0008CE092E00E94D60EE0E4CE16E6E0DE068C
:100EB00069F06CE171E08CE092E00E94D60E4AE0AD
:100EC00050E0B6018CE092E00E94C60F13FF06C00E
:100ED0006FE171E08CE092E00E94D60E137071F029
:100EE00063E271E08CE092E00E94D60E612F70E028
:100EF0004AE050E08CE092E00E94AA0F8CE092E081
:100F00000F90DF91CF911F910F91FF90DF90CF90C5
:100F10000C94DF0E8627682F62956827062E66954B
:100F200066956025062E669560256770082E892FC8
:100F3000669507946795902D86270694679590256A
:100F400086270895E8982A988EBD0DB407FEFDCF38
:100F50008EB56EBD0DB407FEFDCF8EB52A9AE89A08
:100F6000089560E00C94A20788E20E94B1078075A2
:100F700021F080E00E94B107F7CF0895CF93C82FEA
:100F800081E00E94B107682F637E6C2B81E8CF91CE
:100F90000C94A20722E0660F771F881F991F2A95DD
:100FA000D1F729E03DE340E050E00E94E10F66E028
:100FB000220F331F441F551F6A95D1F72093B001AC
:100FC0003093B1014093B2015093B30108958091E1
:100FD000A901853021F48091AA01882311F080E0D5
:100FE000089584E08093A9010E94BE0781E00895DE
:100FF0009091A90181E094300CF080E0089588235D
:1010000011F080E001C084E00E94BE0784E080937C
:10101000A9010895CF93DF932A9A229A2A9A84B13C
:101020008C6284B980E58CBD8DB581608DBD6AEA26
:101030008FEA0E94A2078FE20E94B1078A3AB9F7AD
:1010400065E58FEA0E94A2078FE20E94B10785350D
:10105000B9F7C6E9D4E0FE018491882339F03196CE
:10106000649180680E94A2072296F5CF6091AF013B
:1010700081EB0E94A2078091B0019091B101A091F3
:10108000B201B091B301BD018827992787E80E947A
:10109000A2078091B0019091B101A091B201B091ED
:1010A000B301692F7A2F8B2F992788E80E94A20716
:1010B0006091B00189E80E94A20784E08093A901B1
:1010C000DF91CF910895CF93DF93EC018091A90137
:1010D000843019F0853021F14DC01092B701109283
:1010E000AA016091AF018FEF9FEF0E948A07909352
:1010F000AD018093AC01D093A801C093A70185E016
:101100008093A9010E94B40760E885EA0E94A207C3
:1011100080E10E94BE0762E08EE90E94A2072AC019
:101120008091B7012091AA0190E0049630E08217E7
:10113000930724F08091AA018834E0F084E0809342
:10114000A9010E94BE078091B7018334B0F4809159
:10115000AC019091AD01892B81F48091B60186FF9D
:101160000FC09091AE019F3159F08091B6018F71FF
:10117000891731F08FEF9FEF05C081E090E002C04A
:1011800080E090E0DF91CF910895CF934093B70135
:10119000FB0120E030E050E02417350744F4D9018A
:1011A000A854BE4F91919C932F5F3F4FF5CF86FD82
:1011B00004C0807E9091AE01890F8093B60160914A
:1011C000AF018FEF9FEF0E948A079093AD0180934C
:1011D000AC019091B7018EEF891B8093A9010E9409
:1011E000B4078CE00E94BE0760E085EA0E94A20777
:1011F0008091A9018330DCF588E20E94B10787FD68
:10120000F7CF8091A90187FF1BC09091B701809112
:10121000A901E091A701F091A801E90FF11DE80FE4
:10122000F11D87FDFA95C3816C2F8091AC019091DF
:10123000AD010E948A079093AD018093AC010DC06F
:101240008091A901882329F0813031F4C091AD014A
:1012500004C0C091AC0101C0CAEA6C2F80E80E94B2
:10126000A2078091A9018F5F8093A901C1CFCF917F
:101270000895CF938091A901853009F054C060E4AE
:1012800085EA0E94A20784E20E94B1078093AB0125
:101290007894C8E488E20E94B1078075D9F3809100
:1012A000AA0181110FC0E091A701F091A8018091DE
:1012B000AA0191E0980F9093AA019091AF01E80FD5
:1012C000F11D908380E00E94B107E091A701F091A9
:1012D000A8019091AA0121E0290F2093AA01E90F0A
:1012E000F11D8083682F8091AC019091AD010E9427
:1012F0008A079093AD018093AC018091B70183344C
:1013000010F0C093AA018091B7012091AA0190E04A
:10131000049630E082179307ACF08091AA018834DC
:1013200008F4B8CF0FC088E20E94B10783FF0AC05B
:1013300084E08093A9010E94BE0760E885EACF910E
:101340000C94A207CF910895CF92DF92EF92FF9273
:101350001F93CF93DF93C82F162FD42FF901AFEF30
:10136000A60FA33028F4B0E0AA5DBE4FAC9101C037
:10137000A0E0B0E020E836E948E950E00E941F1004
:101380006B017C01212F30E0A4ECB9E00E94091030
:10139000DF019B01AC010E941F10C60ED71EE81E84
:1013A000F91EC701B6010E94CA07D093AF018C2F66
:1013B0008F718093AE0164E170E080E090E00E9464
:1013C000AA0B8091AE01882341F043E050E069E32D
:1013D00079E080E00E94B30A03C080E00E94D30A53
:1013E0000E940A08C093B4018C2FDF91CF911F9106
:1013F000FF90EF90DF90CF900895EF92FF920F93C0
:101400001F93CF93DF931F92CDB7DEB700E210E0BA
:10141000EE24EA94FE2CC8010E942A10E8268E2DA4
:1014200082958E25082E869586958025082E869590
:10143000802587700E2CEF2C869507948795F02CCD
:10144000E82606948795F024E8260F5F1F4F0033A7
:10145000110509F7EF2821F582E290E00E942A1099
:101460008130F1F480E290E00E942A10182F81E28E
:1014700090E00E942A10482F84E290E049830E9465
:1014800032109C01612F70E086E0759567958A9512
:10149000E1F74981812F0E94A409812F8F7101C03A
:1014A00080E00F90DF91CF911F910F91FF90EF900F
:1014B000089585EB91E00E9463089093FE0180936C
:1014C000FD012091FD013091FE0181E02F3F3F4F52
:1014D00009F480E008950C94E7070C94C508EF9296
:1014E000FF921F93CF93DF931F92CDB7DEB7182FD4
:1014F0007B0149830E94E7074981811105C0498327
:101500000E94590A4981F5CFB701812F0F90DF91D1
:10151000CF911F91FF90EF900C94C508CF93C82FE7
:101520000E94F8078823B9F0CC23D1F383B7817FD9
:10153000C33021F0C23021F49CE003C094E001C02C
:1015400090E0892B83BF83B7816083BF889583B781
:101550008E7F83BFE5CFCF91089591E0811190E018
:10156000892F0C94FF078230E8F4E82FF0E0EE0FAB
:10157000FF1FE150FE4F71836083813041F0809105
:1015800069008C7F842B80936900E89A089580918C
:101590006900440F551F440F551F837F842B809390
:1015A0006900E99A0895823068F4813011F0E89872
:1015B00001C0E998E82FF0E0EE0FFF1FE150FE4F69
:1015C0001182108208951F920F920FB60F9211246C
:1015D0002F933F934F935F936F937F938F939F933B
:1015E000AF93BF93EF93FF938091FF01909100021F
:1015F000892B29F0E091FF01F09100020995FF91FC
:10160000EF91BF91AF919F918F917F916F915F917A
:101610004F913F912F910F900FBE0F901F901895F3
:101620001F920F920FB60F9211242F933F934F9357
:101630005F936F937F938F939F93AF93BF93EF933A
:10164000FF938091010290910202892B29F0E09191
:101650000102F09102020995FF91EF91BF91AF91C4
:101660009F918F917F916F915F914F913F912F91BA
:101670000F900FBE0F901F9018951F920F920FB6EC
:101680000F9211242F933F938F939F93AF93BF9308
:101690008091040290910502A0910602B091070288
:1016A0003091030223E0230F2D3720F40196A11D72
:1016B000B11D05C026E8230F0296A11DB11D209380
:1016C00003028093040290930502A0930602B09354
:1016D00007028091080290910902A0910A02B0913C
:1016E0000B020196A11DB11D80930802909309027F
:1016F000A0930A02B0930B02BF91AF919F918F917B
:101700003F912F910F900FBE0F901F9018953FB7EC
:10171000F8948091080290910902A0910A02B09178
:101720000B0226B5A89B05C02F3F19F00196A11DFD
:10173000B11D3FBF6627782F892F9A2F620F711D29
:10174000811D911D42E0660F771F881F991F4A95E2
:10175000D1F70895CF92DF92EF92FF92CF93DF936C
:101760006B017C010E94870BEB01C114D104E104E1
:10177000F10489F00E94CC0F0E94870B6C1B7D0B3B
:10178000683E734090F381E0C81AD108E108F1087F
:10179000C851DC4FEACFDF91CF91FF90EF90DF90FF
:1017A000CF900895789484B5826084BD84B58160BB
:1017B00084BD85B5826085BD85B5816085BDEEE659
:1017C000F0E0808181608083E1E8F0E01082808138
:1017D00082608083808181608083E0E8F0E08081A6
:1017E00081608083E1EBF0E0808184608083E0EBC6
:1017F000F0E0808181608083EAE7F0E080818460AE
:101800008083808182608083808181608083808109
:10181000806880831092C1000895833081F028F49D
:10182000813099F08230A1F008958730A9F0883096
:10183000B9F08430D1F4809180008F7D03C0809115
:1018400080008F7780938000089584B58F7702C0E1
:1018500084B58F7D84BD08958091B0008F7703C0DB
:101860008091B0008F7D8093B0000895CF93DF9377
:1018700090E0FC01E153FB4F2491FC01ED51FB4F43
:101880008491882349F190E0880F991FFC01EF5F54
:10189000FA4FA591B49189509B4FFC01C591D49109
:1018A0009FB7611108C0F8948C91209582238C9386
:1018B000888182230AC0623051F4F8948C91322FCF
:1018C000309583238C938881822B888304C0F8947D
:1018D0008C91822B8C939FBFDF91CF9108950F93B2
:1018E0001F93CF93DF931F92CDB7DEB7282F30E041
:1018F000F901E554FB4F8491F901E153FB4F149139
:10190000F901ED51FB4F04910023C9F0882321F028
:1019100069830E940D0C6981E02FF0E0EE0FFF1F3C
:10192000E950FB4FA591B4919FB7F8948C91611148
:1019300003C01095812301C0812B8C939FBF0F9012
:10194000DF91CF911F910F910895FC01818D228D20
:1019500090E0805C9F4F821B91098F7399270895B7
:10196000FC01918D828D981731F0828DE80FF11D69
:10197000858D90E008958FEF9FEF0895FC01918D84
:10198000828D981761F0828DDF01A80FB11D5D96E1
:101990008C91928D9F5F9F73928F90E008958FEF4F
:1019A0009FEF08958BE39EE0892B49F080E090E063
:1019B000892B29F00E943B0E81110C9400000895A0
:1019C000FC01848DDF01A80FB11DA35ABF4F2C91DC
:1019D000848D8F5F848FA689B7892C93A089B18964
:1019E0008C9180648C93938D848D981306C00288AB
:1019F000F389E02D80818F7D80830895CF93DF93DD
:101A0000EC01888D8823C9F0EA89FB89808185FDF6
:101A100005C0A889B9898C9186FD0FC00FB607FC57
:101A2000F5CF808185FFF2CFA889B9898C9185FF98
:101A3000EDCFCE010E94E00CE7CFDF91CF9108956A
:101A4000CF92DF92FF920F931F93CF93DF931F925A
:101A5000CDB7DEB76C0181E0D60158968C935897CC
:101A60005B969C915B975C968C915C97981307C0F2
:101A70005096ED91FC915197808185FD2AC0F60129
:101A8000038D0F5FF02EF601848DF81211C00FB692
:101A900007FCF9CFD6015096ED91FC9151978081CA
:101AA00085FFF1CFC60169830E94E00C6981EBCF0D
:101AB000838DE80FF11DE35AFF4F6083D6015B96DB
:101AC0000C935B975296ED91FC91539780818062C5
:101AD0000CC0D6015696ED91FC91579760835096B5
:101AE000ED91FC91519780818064808381E090E04A
:101AF0000F90DF91CF911F910F91FF90DF90CF90CA
:101B00000895BF92CF92DF92EF92FF92CF93DF932F
:101B1000EC016A017B01B22EE889F98982E08083B9
:101B2000411581EE580761057105A1F060E079E08B
:101B30008DE390E0A70196010E94E10F2150310949
:101B4000410951095695479537952795211580E10B
:101B5000380798F0E889F989108260E874E88EE126
:101B600090E0A70196010E94E10F2150310941093F
:101B700051095695479537952795EC85FD85308316
:101B8000EE85FF852083188EEC89FD89B082EA8975
:101B9000FB89808180618083EA89FB8980818860FC
:101BA0008083EA89FB89808180688083EA89FB8958
:101BB00080818F7D8083DF91CF91FF90EF90DF90C8
:101BC000CF90BF9008951F920F920FB60F921124DD
:101BD0002F938F939F93EF93FF93E0911C02F091CB
:101BE0001D028081E0912202F091230282FD12C049
:101BF0009081809125028F5F8F732091260282173A
:101C000051F0E0912502F0E0E45FFD4F958F809365
:101C1000250201C08081FF91EF919F918F912F91BB
:101C20000F900FBE0F901F9018951F920F920FB636
:101C30000F9211242F933F934F935F936F937F9352
:101C40008F939F93AF93BF93EF93FF938CE092E0BA
:101C50000E94E00CFF91EF91BF91AF919F918F9106
:101C60007F916F915F914F913F912F910F900FBE98
:101C70000F901F9018958CE092E00E94A50C21E037
:101C8000892B09F420E0822F089510920F02109200
:101C90000E0288EE93E0A0E0B0E0809310029093F3
:101CA0001102A0931202B09313028DE291E090937F
:101CB0000D0280930C0285EC90E0909319028093C2
:101CC000180284EC90E090931B0280931A0280EC3F
:101CD00090E090931D0280931C0281EC90E0909321
:101CE0001F0280931E0282EC90E090932102809369
:101CF000200286EC90E090932302809322021092BF
:101D000025021092260210922702109228020895AE
:101D100008950E94D20B0E94880E0E945003C2EDCB
:101D2000DCE00E94AA032097E1F30E94D20CF9CFD5
:101D3000CF92DF92EF92FF920F931F93CF93DF9397
:101D40006C017A01EB01E60EF71E00E010E0CE1503
:101D5000DF0561F06991D601ED91FC910190F08170
:101D6000E02DC6010995080F191FF1CFC801DF91B9
:101D7000CF911F910F91FF90EF90DF90CF9008953A
:101D80006115710581F0DB010D900020E9F7AD01CF
:101D900041505109461B570BDC01ED91FC9102802B
:101DA000F381E02D099480E090E008950C94C00E3A
:101DB000DC01ED91FC910190F081E02D099469E343
:101DC00071E00C94C00E0F931F93CF93DF93EC013F
:101DD0000E94C00E8C01CE010E94DF0E800F911F69
:101DE000DF91CF911F910F9108950F931F93CF9380
:101DF000DF93EC010E94D80E8C01CE010E94DF0E11
:101E0000800F911FDF91CF911F910F9108958F92B5
:101E10009F92AF92BF92CF92DF92EF92FF920F9379
:101E20001F93CF93DF93CDB7DEB7A1970FB6F8948A
:101E3000DEBF0FBECDBF7C01C42EE52FCB01D22E5D
:101E400019A221E02D1510F02AE0D22E8E010F5D8F
:101E50001F4F8D2C912CA12CB12C6C2D7E2FA50108
:101E600094010E94E10F8C2DD29E80191124015003
:101E700011098A3014F4805D01C0895CF801808307
:101E8000211531054105510521F0C22EE32FCA016C
:101E9000E4CFB801C7010E94C00EA1960FB6F89416
:101EA000DEBF0FBECDBFDF91CF911F910F91FF908D
:101EB000EF90DF90CF90BF90AF909F908F9008955C
:101EC000CF92DF92EF92FF920F931F93CF93DF9306
:101ED000EC016A017B012115310579F4E881F98172
:101EE0000190F081E02D642FDF91CF911F910F9130
:101EF000FF90EF90DF90CF9009942A303105E9F4FC
:101F000077FF1AC06DE20E94D80E8C014427552736
:101F1000BA014C195D096E097F092AE0CE010E94C1
:101F2000070F800F911FDF91CF911F910F91FF90AD
:101F3000EF90DF90CF9008952AE0B701A601CE017F
:101F4000DF91CF911F910F91FF90EF90DF90CF9095
:101F50000C94070F9A01AB01662757FD6095762F09
:101F60000C94600F2115310541F4DC01ED91FC91D9
:101F70000190F081E02D642F09940C94070F9A01D1
:101F8000462F50E060E070E00C94B20F9A01AB0174
:101F900060E070E00C94B20F0895AA1BBB1B51E1E6
:101FA00007C0AA1FBB1FA617B70710F0A61BB70BC9
:101FB000881F991F5A95A9F780959095BC01CD016E
:101FC0000895A1E21A2EAA1BBB1BFD010DC0AA1F7A
:101FD000BB1FEE1FFF1FA217B307E407F50720F092
:101FE000A21BB30BE40BF50B661F771F881F991F0D
:101FF0001A9469F760957095809590959B01AC0156
:10200000BD01CF010895EE0FFF1F0590F491E02D63
:102010000994A29FB001B39FC001A39F700D811DC1
:102020001124911DB29F700D811D1124911D0895E1
:102030000E940910B7FF0895821B930B08950E9418
:102040000910A59F900DB49F900DA49F800D911D28
:1020500011240895F999FECF92BD81BDF89A992770
:1020600080B50895A8E1B0E042E050E00C9448103B
:10207000262FF999FECF1FBA92BD81BD20BD0FB6A4
:10208000F894FA9AF99A0FBE01960895DC01CB01F3
:10209000FC01F999FECF06C0F2BDE1BDF89A319678
:1020A00000B40D9241505040B8F70895F894FFCF16
:1020B000000069038000204D487A002B565A2069A1
:1020C000002067002040200020633100206F0020A6
:1020D0007131002078002B565A00000000200D9826
:1020E0000EA50CBE0CB00CFE0C0D0A006E616E004D
:0A20F000696E66006F7666002E0030
:00000001FF
