:100000000C9476020C94B20B0C94DF0B0C949E02B1
:100010000C949E020C949E020C949E020C949E02E0
:100020000C949E020C949E020C949E020C949E02D0
:100030000C949E020C949E020C949E020C949E02C0
:100040000C940C0C0C949E020C94E60E0C94180F5D
:100050000C949E020C949E020C949E020C949E02A0
:100060000C949E020C949E028B05B30463057D06DE
:100070007D0696055E057306A9047306EC056E06FB
:1000800073067306DD0473065A067D068B056A0542
:1000900073066B067D06610673064406205A7A7A5B
:1000A0002E2E2E0A007465737420003E20002062FC
:1000B0000A00202D3E2000202D3E2061636B0A00A7
:1000C00020494920004153432000204700203F00A1
:1000D0004F4B0043757272656E7420636F6E666974
:1000E0006775726174696F6E3A0A005B524631320D
:1000F00064656D6F2E31325D000A417661696C6115
:10010000626C6520636F6D6D616E64733A0A2020C6
:100110003C6E6E3E206920202020202D20736574C7
:10012000206E6F646520494420287374616E646199
:100130007264206E6F64652069647320617265204B
:10014000312E2E3330290A20203C6E3E20622020A2
:10015000202020202D20736574204D487A20626174
:100160006E64202834203D203433332C2038203D49
:10017000203836382C2039203D20393135290A20C5
:10018000203C6E6E6E6E3E206F2020202D20636816
:10019000616E6765206672657175656E6379206F43
:1001A00066667365742077697468696E2074686523
:1001B0002062616E64202864656661756C7420310C
:1001C000363030290A202020202020202020202006
:1001D0002020202039362E2E3339303320697320E9
:1001E0007468652072616E676520737570706F72D8
:1001F000746564206279207468652052464D3132FE
:10020000420A20203C6E6E6E3E2067202020202D6A
:1002100020736574206E6574776F726B2067726FE0
:100220007570202852464D3132206F6E6C792061F6
:100230006C6C6F7773203231322C2030203D20617E
:100240006E79290A20203C6E3E2063202020202049
:10025000202D2073657420636F6C6C656374206D52
:100260006F64652028616476616E6365642C206E1E
:100270006F726D616C6C792030290A202074202007
:1002800020202020202020202D2062726F616463B6
:10029000617374206D61782D73697A65207465735C
:1002A00074207061636B65742C2072657175657361
:1002B000742061636B0A20202E2E2E2C3C6E6E3E25
:1002C0002061202D2073656E64206461746120704C
:1002D00061636B657420746F206E6F6465203C6E83
:1002E0006E3E2C20726571756573742061636B0AB4
:1002F00020202E2E2E2C3C6E6E3E2073202D20733F
:10030000656E642064617461207061636B65742044
:10031000746F206E6F6465203C6E6E3E2C206E6F95
:100320002061636B0A20203C6E3E2071202020203B
:1003300020202D20736574207175696574206D6FA0
:100340006465202831203D20646F6E27742072651B
:10035000706F727420626164207061636B65747386
:10036000290A20203C6E3E20782020202020202DAD
:1003700020736574207265706F7274696E67206691
:100380006F726D61742028303A20646563696D6115
:100390006C2C20313A206865782C20323A20686530
:1003A000782B6173636969290A2020313233207AFE
:1003B0002020202020202D20746F74616C20706F0D
:1003C00077657220646F776E2C206E65656473208C
:1003D0006120726573657420746F20737461727428
:1003E00020757020616761696E0A52656D6F746572
:1003F00020636F6E74726F6C20636F6D6D616E64DD
:10040000733A0A20203C686368693E2C3C68636C40
:100410006F3E2C3C616464723E2C3C636D643E20F4
:100420006620202020202D204653323020636F6D1F
:100430006D616E642028383638204D487A290A20AC
:10044000203C616464723E2C3C6465763E2C3C6FBB
:100450006E3E206B202020202020202020202020E5
:1004600020202D204B414B5520636F6D6D616E64D4
:100470002028343333204D487A290A00636F6E6692
:1004800069672073617665206661696C65640A003E
:100490000000000800020100000304070000000043
:1004A000000000000102040810204080010204083E
:1004B00010200102040810200404040404040404AD
:1004C000020202020202030303030303000000000E
:1004D00023002600290000000000250028002B0032
:1004E00000000000240027002A00480F11241FBE2E
:1004F000CFEFD8E0DEBFCDBF11E0A0E0B1E0E8EC87
:10050000F2E202C005900D92A834B107D9F723E0BA
:10051000A8E4B1E001C01D92A536B207E1F714E0EE
:10052000CCEED4E004C02297FE010E940811CA3E1E
:10053000D107C9F70E948C0F0C9462110C94000033
:10054000682F88E092E00C94DB0F1F93CF93DF932A
:10055000EC01FE011491112351F01A3019F48DE0D1
:100560000E94A002812F0E94A0022196F2CFDF916B
:10057000CF911F9108958F7060E3680F6A3314F074
:1005800067E3680F88E092E00C94DB0F0F931F93F2
:10059000CF93DF93EC018B0181E00E945A0ACE01D8
:1005A0008A569F4F0E94A10C80E00E945A0AC801FF
:1005B000885C9109DF91CF911F910F910C94A10C50
:1005C0000F931F93CF93DF93EC01683099F4880F5A
:1005D000991F2C2F022E22952025022E2695269536
:1005E00020252F5F26952170C22F20E0D22FC82B07
:1005F000D92B69E08FEF860F41E050E060E070E0BA
:1006000004C0440F551F661F771F8A95D2F78A01D1
:100610000115110581F0C8018C239D23892B19F048
:1006200088E592E002C080E991E0BC010E94C60228
:1006300016950795EDCFDF91CF911F910F910895FA
:10064000CF93C82F61E089E00E94100D61E0C111D5
:1006500060E089E0CF910C94490DCF93C82F909121
:1006600098019370682F70E061F0CB0134E09595AC
:1006700087953A95E1F70E94BB028C2FCF910C949D
:10068000BB024AE050E088E092E0CF910C94C910A0
:100690000F931F93CF93DF9381E080939701E5E958
:1006A000F1E08FEF9FEF21918227282F22952827B5
:1006B000022E269526952025022E26952025277088
:1006C000082E892F269507942795902D822706942A
:1006D00027959025822721E0E33AF20721F79093AE
:1006E000A4018093A3016091950180E290E00E94B3
:1006F000441105E911E0C0E2D0E0F80161918F01F9
:10070000CE010E9444112196C033D105B1F70E9459
:10071000630A882331F0DF91CF911F910F910C94E0
:10072000AF0A8CE794E0DF91CF911F910F910C9469
:10073000A5020F931F93CF93DF9364E670E080E0F0
:1007400090E00E94790C26E040E051EE60E070E01D
:1007500088E092E00E94840E88E092E00E94E20F1E
:100760008BEE90E00E94A5020E94630A882379F034
:1007700005E911E0C0E2D0E0CE010E943611D801B7
:100780008D938D012196C033D105B1F71CC080E156
:10079000E5E9F1E0DF011D928A95E9F781E88093B0
:1007A000950184ED8093960180E496E090939A0100
:1007B00080939901809198018860809398010E94AC
:1007C00048030E94630A0E94AF0A89EF90E00E94EA
:1007D000A50283ED90E00E94A502DF91CF911F91C9
:1007E0000F910C94AF0AAF92BF92CF92DF92EF922B
:1007F000FF920F931F93CF93DF9388E092E00E94C4
:10080000A80D892B09F47FC288E092E00E94C10DF7
:10081000C82F80ED8C0F8A30A8F44091920150913E
:1008200093018AE0849F9001859F300D112420530D
:1008300031092C0F311DC7FD3A9530939301209358
:10084000920161C2CC3281F4E0914B01E63408F0B0
:1008500056C281E08E0F80934B01F0E0E45BFE4FC7
:100860008091920180834BC28FE98C0F8A3148F5C9
:100870008BEA90E00E94A502D0E080914B01D8174E
:1008800088F4ED2FF0E0E45BFE4F608170E04AE019
:1008900050E088E092E00E94C9108CE20E94A00221
:1008A000DF5FEBCF60919201709193014AE050E0DD
:1008B00088E092E00E94C9106C2F88E092E00E94CC
:1008C000F80FCE3391F5E0914B0181E08E0F8093CC
:1008D0004B01F0E0E45BFE4F809192018083209118
:1008E000990130919A0140914D0180914C018430E1
:1008F00031F0883031F0893031F463E005C061E0D7
:1009000003C062E001C060E080914E010E94DD09F9
:1009100040914B01445060E571E080914F010E948D
:10092000A20982E00E94C10954C1C1320CF4E5C1A0
:100930004C2F552747FD5095652F752FFA01E1562D
:10094000F109EA31F10508F0CEC1EC5CFF4F0C94DF
:100950000611809192018F7190919501907E890F7F
:100960008093950127C080919201843031F08830C6
:1009700031F0893031F423E005C021E003C022E0EA
:1009800001C020E0822F90E0909393018093920128
:10099000892B09F4B2C1809195018F7340E4249FA3
:1009A000800D11248093950180E496E090939A0144
:1009B000809399010E944803A0C180919201909177
:1009C00093019C0120563109203E3E4030F4909323
:1009D0009A01809399010E944803E0919501F0E00B
:1009E000A6E0F595E795AA95E1F7CF010197833049
:1009F000910528F4DC01A45FBE4FAC9101C0A0E0DA
:100A0000B0E020EA36E841E050E00E9422116B019C
:100A10007C0129E130E0DF010E941B119B01AC0148
:100A2000A0919901B0919A010E942211C60ED71E81
:100A3000E81EF91EC701B60120E137E240E050E0B0
:100A40000E94E41089019A016B017C014AE050E0A8
:100A5000B80188E092E00E94C9108EE20E94A002D4
:100A6000C60168EE73E00E94D01080E3860F0E94FA
:100A7000A002C60164E670E00E94D010CB01CAE07B
:100A8000D0E0BE010E94D010805D0E94A002C6018D
:100A9000BE010E94D010182FCB01BE010E94D010C1
:100AA000805D0E94A00280E3810F0E94A00267E0A7
:100AB00071E088E092E00E94E60F1FC180919201F0
:100AC0008093960177CF809198019091920190FB4D
:100AD00082F9FEC081E68093940182E480934A010A
:100AE0001092490120914801ECE4F1E080E0982F58
:100AF000920F91938F5F8234D1F785EA90E00E9444
:100B0000A502809148010E942D03809148018F5FCA
:100B100080934801F2C0C093940180914B0180936F
:100B20004A018091920180934901E7C020E436E0B8
:100B300040E062E080E00E94DD0981E00E94200345
:100B4000409192015091930160914E0120914C018E
:100B500030E0322F222780914D01280F311DB22E17
:100B6000C32EA32EC6E0C60FC40FC20FC30FE3E00F
:100B7000DE2EE62EF12C8A011127D0E06DE081E017
:100B800090E00E94E00268E08A2D90E00E94E0027E
:100B900068E08B2D9C2D0E94E00268E0C7010E9456
:100BA000E00268E0C8010E94E00268E0CE010E9415
:100BB000E00261E080E090E00E94E0026AE070E024
:100BC00080E090E00E94790CDA94C1F680E00E9407
:100BD00020030E94630A91C020E436E040E061E017
:100BE00080E00E94DD0981E00E94200300914D0118
:100BF00010E00150110964E0000F111F6A95E1F740
:100C0000166080914C01992787FD909501978F7010
:100C10009927082B192B809192018111186054E0BB
:100C2000D52ECCEDD5E0E12CF12C65E674E087E71C
:100C300091E00E94C602C8010E2C02C095958795CE
:100C40000A94E2F780FF03C085E694E002C087E7DC
:100C500091E0BE01681B790B0E94C6028FEFE81A73
:100C6000F80A9CE0E916F10401F767E771E087E70D
:100C700091E00E94C6026BE070E080E090E00E948C
:100C8000790CDA9481F6A2CF809192019091930130
:100C90008B37910591F58CE990E00E94A50288E0E0
:100CA00092E00E94010E80E00E94660BF8940E9480
:100CB0007F0723C0809198019091920190FB83F966
:100CC00007C0909192019370809198018C7F892B3D
:100CD000809398016FCE8BEE90E00BC080919201D3
:100CE0000E9420030AC089EF90E00E94A50283EDD4
:100CF00090E00E94A5020E94AF0A10924B01109250
:100D00009301109292010E94CD08882309F4ABC090
:100D1000F090AE018091F3019091F401892B29F4B8
:100D200080ED90E00E94A5020DC08091980183FDA6
:100D3000DBC08DEC90E00E94A50244E14F1510F459
:100D400044E1F42E80919801837019F088E50E94A7
:100D5000A00280919601811108C08AEC90E00E9467
:100D6000A5028091AC010E942D0380E20E94A002A6
:100D70008091AD010E942D030FEA11E0E801E02E01
:100D80008C2F801B8F1558F480919801837019F473
:100D900080E20E94A00289910E942D03F1CF88E099
:100DA00092E00E94E20F80919801837090E0029798
:100DB0008CF185EC90E00E94A50280919601811152
:100DC00004C080EC90E00E94A5028091AD0186FFF6
:100DD00002C08EE301C08CE30E94A0028091AD01AD
:100DE0008F71805C0E94A002CFEAD1E08C2F8E1917
:100DF0008F1560F480E20E94A002899190EE980F16
:100E00009F3508F08EE20E94A002F0CF88E092E0C9
:100E10000E94E20F8091F3019091F401892B19F562
:100E200081E00E9420038091AD0185FF19C080916F
:100E3000AD0187FD15C08091980182FD11C087EB3F
:100E400090E00E94A5028091AD0186FD15C08091C1
:100E5000AD018F71806C40E060E070E00E94950908
:100E600080E00E942003809194018823E9F10E9490
:100E70005209811103C038C080E8EDCF81E00E94A3
:100E8000200382EB90E00E94A50260914A0170E08D
:100E90004AE050E088E092E00E94C9108EEA90E0BB
:100EA0000E94A502809194018136E1F080E090914A
:100EB0004901992311F09064892B40914A016CE417
:100EC00071E00E9495091092940180E0DF91CF912A
:100ED0001F910F91FF90EF90DF90CF90BF90AF9058
:100EE0000C94200380E2E3CFDF91CF911F910F910B
:100EF000FF90EF90DF90CF90BF90AF900895EAE71A
:100F0000F0E0908180818F77808383B7817F8460D8
:100F100083BFF89483B7816083BF85B7806685BF40
:100F200085B78F79806485BF7894889583B78E7FE5
:100F300083BF90937A0008958627682F629568276B
:100F4000062E669566956025062E66956025677067
:100F5000082E892F669507946795902D862706940D
:100F600067959025862708952CB521602CBD25B165
:100F700041E050E060E070E00090060104C0440FE2
:100F8000551F661F771F0A94D2F74095422345B933
:100F90009EBD0DB407FEFDCF2EB530E0322F2227C7
:100FA0008EBD0DB407FEFDCF9EB585B141E050E08A
:100FB00060E070E00090060104C0440F551F661FFA
:100FC000771F0A94D2F7842B85B98CB58E7F8CBDA0
:100FD000A901492BCA010895CF9380E090E00E94B7
:100FE000B4078091F501853091F580E090EB0E9487
:100FF000B407682F8091F601811104C09091F90126
:10100000911175C0E091F60181E08E0F8093F60199
:10101000F0E0E455FE4F60838091F3019091F4017C
:101020000E949C079093F4018093F3018091AE019C
:101030002091F60190E0049630E0821793070CF4BB
:1010400061C08091F601873408F05CC060C0809177
:10105000F50187FF1AC0E091AE018091F50191E0A2
:10106000980F9093F501ED5FE80FF0E0E455FE4F27
:10107000C0818091F3019091F4016C2F0E949C0734
:101080009093F4018093F3012EC08091F501833099
:1010900001F154F48823B9F08130F9F48091F3011F
:1010A0009091F401C92F1AC0893059F08A30A9F4FF
:1010B000C091F9019091AE018DEF891B8093F501EC
:1010C0000DC0CDE20BC08091F3019091F401C82FC7
:1010D00005C08DE092E80E94B407CAEA8091F5014C
:1010E0008F5F8093F5018C2F90E098540DC0E091B4
:1010F000F60181E08E0F8093F601F0E0E455FE4F9B
:10110000908380CF8DE092E8CF910C94B407CF917B
:10111000089525B181E090E0A0E0B0E0AC01BD0110
:101120000090060104C0440F551F661F771F0A94E4
:10113000D2F7242B25B924B10090060104C0880FF2
:10114000991FAA1FBB1F0A94D2F7282B24B961E06C
:101150008AE00E94490D61E08AE00E94100D61E082
:101160008BE00E94100D60E08CE00E94100D61E0A9
:101170008DE00E94100D80E58CBD8DB581608DBD28
:1011800060E082E00E94100D61E082E00C94490D65
:10119000E8980E94B407E89A08958091F501853097
:1011A00091F58091AE012091F60190E0049630E037
:1011B0008217930724F08091F601873420F184E0B0
:1011C0008093F5018091F3019091F4019093F401E3
:1011D0008093F3018091AE01833430F081E090E0A0
:1011E0009093F4018093F3018091AD0186FF3EC09E
:1011F0009091FA01892F8F718F31C1F18091AD01EA
:1012000089278F7199F18091F501843069F580917A
:10121000A701882351F08093AE011092AD01109286
:10122000AC0183E08093F60104C01092AE011092ED
:10123000F6018FEF9FEF9093F4018093F30160919B
:10124000F901662351F08091F3019091F4010E941D
:101250009C079093F4018093F30185E08093F5015E
:101260008DED92E80E94B40780E008958091F3012B
:101270009091F401892B49F4E091A501F091A60128
:10128000309719F080E009950BC08FEF9FEFDC01DC
:101290008093A8019093A901A093AA01B093AB01F8
:1012A00081E008958091F501853099F48091F601EF
:1012B00081110FC080E090E00E94C80890FD09C035
:1012C0008DE092E80E94C80884E08093F50181E0F7
:1012D000089580E0089586FD05C0807E9091FA0112
:1012E0009F71890F8093AD01E091A501F091A60156
:1012F000309711F081E009958FEF9FEF9093F40103
:101300008093F3018091F3019091F4016091F901D0
:101310000E949C079093F4018093F30186E08093F0
:10132000F5018DE392E80C94B407CF93C82F409356
:10133000AE0150E08FEA91E00E942D118C2FCF91E9
:101340000C946B09EF92FF921F93CF93DF931F9240
:10135000CDB7DEB7182F7B0149830E94520949811E
:10136000811105C049830E94CD084981F5CFB7019D
:10137000812F0F90DF91CF911F91FF90EF900C94F0
:1013800095099091F5019430B9F08823D1F393B782
:10139000917F833021F0823021F42CE003C024E0DF
:1013A00001C020E0922B93BF93B7916093BF8895C3
:1013B00093B79E7F93BFE5CF0895CF93C62F8093B9
:1013C000FA014093F9013093F8012093F7010E944C
:1013D000890880E090E00E94B40785E092E80E94CE
:1013E000B40780E098EB0E94B40782E00E947F0D72
:1013F000892B19F480E090E0F6CF20E1C29FC00174
:101400001124876C90680E94B4078091F701909135
:10141000F80190560E94B40786E096EC0E94B4074B
:1014200082EA94E90E94B4078CEA92EC0E94B40725
:10143000C091F901CC2341F083E89AEC0E94B407F3
:101440008C2F90E09E6C06C08BE89AEC0E94B4074B
:101450008DE29EEC0E94B40783E894EC0E94B407EE
:1014600080E598E90E94B40787E79CEC0E94B407E6
:1014700080E090EE0E94B40780E098EC0E94B407F0
:1014800089E490EC0E94B40784E08093F501809198
:10149000FA018F7141F040E050E06CEE77E080E0BF
:1014A0000E94820B03C080E00E94A20B8091FA018F
:1014B000CF910895882319F08DE392E802C08DE062
:1014C00092E80C94B407EF92FF920F931F93CF937F
:1014D000DF931F92CDB7DEB710E2E12EF12C0FEFB4
:1014E0001FEFC7010E943611682FC8010E949C0798
:1014F0008C018FEFE81AF80AE0E3EE16F10489F7A1
:10150000012B21F582E290E00E9436118130F1F446
:1015100080E290E00E943611182F81E290E00E9454
:101520003611482F84E290E049830E943E119C01CD
:10153000612F70E0B6E075956795BA95E1F749813E
:10154000812F0E94DD09812F8F7101C080E00F90F3
:10155000DF91CF911F910F91FF90EF900895CF925F
:10156000DF92FF920F931F93CF93DF931F92CDB71C
:10157000DEB780E290E00E943611082F83E290E00F
:101580000E943611182F84E290E00E943E116C01F7
:1015900060E288E092E00E94DB0F202F2F7160E470
:1015A000620F88E092E029830E94DB0F6FE071E018
:1015B00088E092E00E94D90F2981622F70E04AE012
:1015C00050E088E092E00E94AD10812F8470F82EE8
:1015D00012FF05C06AE288E092E00E94DB0F62E140
:1015E00071E088E092E00E94D90F81E290E00E94D1
:1015F00036114AE050E0682F88E092E00E94C21065
:1016000065E171E088E092E00E94D90F802F829519
:10161000869586958370813039F0823041F0833031
:1016200049F463E973E008C061EB71E005C064E66A
:1016300073E002C060E070E04AE050E088E092E0D1
:101640000E94AD1067E071E088E092E00E94D90F3F
:10165000FF2031F069E171E088E092E00E94D90F4B
:10166000E0E4CE16E6E0DE0669F06DE171E088E0C8
:1016700092E00E94D90F4AE050E0B60188E092E083
:101680000E94C91013FF06C060E271E088E092E09A
:101690000E94D90F137071F064E271E088E092E06B
:1016A0000E94D90F612F70E04AE050E088E092E09C
:1016B0000E94AD1088E092E00F90DF91CF911F91D2
:1016C0000F91FF90DF90CF900C94E20FCF93C82F33
:1016D00087FF03C08DE092E80EC0992787FD9095A3
:1016E000956E0E94C80885E092E80E94C808CC2345
:1016F00021F087E092E80E94C80884E08093F50119
:10170000CF9108958230E8F4E82FF0E0EE0FFF1F4C
:10171000E550FE4F71836083813041F08091690014
:101720008C7F842B80936900E89A089580916900EA
:10173000440F551F440F551F837F842B80936900EE
:10174000E99A0895823068F4813011F0E89801C078
:10175000E998E82FF0E0EE0FFF1FE550FE4F1182F1
:10176000108208951F920F920FB60F9211242F939B
:101770003F934F935F936F937F938F939F93AF9319
:10178000BF93EF93FF938091FB019091FC01892B14
:1017900029F0E091FB01F091FC010995FF91EF9197
:1017A000BF91AF919F918F917F916F915F914F9179
:1017B0003F912F910F900FBE0F901F9018951F9281
:1017C0000F920FB60F9211242F933F934F935F9375
:1017D0006F937F938F939F93AF93BF93EF93FF93F9
:1017E0008091FD019091FE01892B29F0E091FD018E
:1017F000F091FE010995FF91EF91BF91AF919F91FB
:101800008F917F916F915F914F913F912F910F90A9
:101810000FBE0F901F9018951F920F920FB60F9248
:1018200011242F933F938F939F93AF93BF938091F6
:10183000000290910102A0910202B0910302309146
:10184000FF0123E0230F2D3720F40196A11DB11DC8
:1018500005C026E8230F0296A11DB11D2093FF01AC
:101860008093000290930102A0930202B0930302BE
:101870008091040290910502A0910602B0910702A6
:101880000196A11DB11D8093040290930502A093BF
:101890000602B0930702BF91AF919F918F913F9144
:1018A0002F910F900FBE0F901F9018953FB7F8948F
:1018B0008091040290910502A0910602B091070266
:1018C00026B5A89B05C02F3F19F00196A11DB11D9B
:1018D0003FBF6627782F892F9A2F620F711D811DB8
:1018E000911D42E0660F771F881F991F4A95D1F717
:1018F0000895CF92DF92EF92FF92CF93DF936B0127
:101900007C010E94560CEB01C114D104E104F104E6
:1019100089F00E94CF100E94560C6C1B7D0B683E14
:10192000734090F381E0C81AD108E108F108C8516A
:10193000DC4FEACFDF91CF91FF90EF90DF90CF9017
:1019400008958230910538F0880F991F880F991FEC
:1019500005970197F1F70895789484B5826084BD66
:1019600084B5816084BD85B5826085BD85B58160A3
:1019700085BDEEE6F0E0808181608083E1E8F0E003
:101980001082808182608083808181608083E0E832
:10199000F0E0808181608083E1EBF0E08081846011
:1019A0008083E0EBF0E0808181608083EAE7F0E013
:1019B0008081846080838081826080838081816077
:1019C00080838081806880831092C1000895833075
:1019D00081F028F4813099F08230A1F008958730A9
:1019E000A9F08830B9F08430D1F4809180008F7DE7
:1019F00003C0809180008F7780938000089584B524
:101A00008F7702C084B58F7D84BD08958091B0002A
:101A10008F7703C08091B0008F7D8093B0000895D0
:101A2000CF93DF9390E0FC01EC55FB4F2491FC0138
:101A3000E854FB4F8491882349F190E0880F991F67
:101A4000FC01E052FB4FA591B4918A529B4FFC01DF
:101A5000C591D4919FB7611108C0F8948C912095DD
:101A600082238C93888182230AC0623051F4F894D7
:101A70008C91322F309583238C938881822B88839D
:101A800004C0F8948C91822B8C939FBFDF91CF91EF
:101A900008950F931F93CF93DF931F92CDB7DEB7B7
:101AA000282F30E0F901E057FB4F8491F901EC5504
:101AB000FB4F1491F901E854FB4F04910023C9F046
:101AC000882321F069830E94E70C6981E02FF0E010
:101AD000EE0FFF1FEA52FB4FA591B4919FB7F89408
:101AE0008C91611103C01095812301C0812B8C93CF
:101AF0009FBF0F90DF91CF911F910F910895CF93CA
:101B0000DF93282F30E0F901E057FB4F8491F90172
:101B1000EC55FB4FD491F901E854FB4FC491CC2311
:101B200091F081110E94E70CEC2FF0E0EE0FFF1F07
:101B3000E453FB4FA591B4912C912D2381E090E0CB
:101B400021F480E002C080E090E0DF91CF91089521
:101B5000FC01818D228D90E0805C9F4F821B91095A
:101B60008F7399270895FC01918D828D981731F01C
:101B7000828DE80FF11D858D90E008958FEF9FEF26
:101B80000895FC01918D828D981761F0828DDF019F
:101B9000A80FB11D5D968C91928D9F5F9F73928F60
:101BA00090E008958FEF9FEF08958EE39FE0892BDB
:101BB00049F080E090E0892B29F00E943E0F8111CE
:101BC0000C9400000895FC01848DDF01A80FB11D65
:101BD000A35ABF4F2C91848D8F5F848FA689B789BC
:101BE0002C93A089B1898C9180648C93938D848D82
:101BF000981306C00288F389E02D80818F7D808351
:101C00000895CF93DF93EC01888D8823C9F0EA898A
:101C1000FB89808185FD05C0A889B9898C9186FDE5
:101C20000FC00FB607FCF5CF808185FFF2CFA889E2
:101C3000B9898C9185FFEDCFCE010E94E30DE7CFEE
:101C4000DF91CF910895CF92DF92FF920F931F9370
:101C5000CF93DF931F92CDB7DEB76C0181E0D60141
:101C600058968C9358975B969C915B975C968C9159
:101C70005C97981307C05096ED91FC915197808125
:101C800085FD2AC0F601038D0F5FF02EF601848DCD
:101C9000F81211C00FB607FCF9CFD6015096ED919E
:101CA000FC915197808185FFF1CFC60169830E9425
:101CB000E30D6981EBCF838DE80FF11DE35AFF4FF0
:101CC0006083D6015B960C935B975296ED91FC91E5
:101CD0005397808180620CC0D6015696ED91FC919D
:101CE000579760835096ED91FC9151978081806465
:101CF000808381E090E00F90DF91CF911F910F9151
:101D0000FF90DF90CF900895BF92CF92DF92EF9235
:101D1000FF92CF93DF93EC016A017B01B22EE88939
:101D2000F98982E08083411581EE580761057105CC
:101D3000A1F060E079E08DE390E0A70196010E94B8
:101D4000E4102150310941095109569547953795BD
:101D50002795211580E1380798F0E889F9891082E4
:101D600060E874E88EE190E0A70196010E94E4101B
:101D700021503109410951095695479537952795C5
:101D8000EC85FD853083EE85FF852083188EEC89F8
:101D9000FD89B082EA89FB89808180618083EA893C
:101DA000FB89808188608083EA89FB8980818068E3
:101DB0008083EA89FB8980818F7D8083DF91CF9149
:101DC000FF90EF90DF90CF90BF9008951F920F92F9
:101DD0000FB60F9211242F938F939F93EF93FF933E
:101DE000E0911802F09119028081E0911E02F091B9
:101DF0001F0282FD12C09081809121028F5F8F733C
:101E000020912202821751F0E0912102F0E0E85F78
:101E1000FD4F958F8093210201C08081FF91EF914A
:101E20009F918F912F910F900FBE0F901F9018953B
:101E30001F920F920FB60F9211242F933F934F933F
:101E40005F936F937F938F939F93AF93BF93EF9322
:101E5000FF9388E092E00E94E30DFF91EF91BF9124
:101E6000AF919F918F917F916F915F914F913F9132
:101E70002F910F900FBE0F901F90189588E092E061
:101E80000E94A80D21E0892B09F420E0822F0895FB
:101E900010920B0210920A0288EE93E0A0E0B0E0EC
:101EA00080930C0290930D02A0930E02B0930F0248
:101EB0008BE291E0909309028093080285EC90E018
:101EC000909315028093140284EC90E09093170293
:101ED0008093160280EC90E0909319028093180290
:101EE00081EC90E090931B0280931A0282EC90E0C8
:101EF00090931D0280931C0286EC90E090931F0249
:101F000080931E021092210210922202109223024C
:101F100010922402089508950E94AC0C0E948B0F29
:101F20000E949903C5EDDDE00E94F3032097E1F3E1
:101F30000E94D50DF9CFCF92DF92EF92FF920F93CF
:101F40001F93CF93DF936C017A01EB01E60EF71E2E
:101F500000E010E0CE15DF0561F06991D601ED914A
:101F6000FC910190F081E02DC6010995080F191F21
:101F7000F1CFC801DF91CF911F910F91FF90EF90AA
:101F8000DF90CF9008956115710581F0DB010D9010
:101F90000020E9F7AD0141505109461B570BDC0108
:101FA000ED91FC910280F381E02D099480E090E0B6
:101FB00008950C94C30FDC01ED91FC910190F08128
:101FC000E02D099467E371E00C94C30F0F931F9306
:101FD000CF93DF93EC010E94C30F8C01CE010E94CE
:101FE000E20F800F911FDF91CF911F910F91089504
:101FF0000F931F93CF93DF93EC010E94DB0F8C01B3
:10200000CE010E94E20F800F911FDF91CF911F91AF
:102010000F9108958F929F92AF92BF92CF92DF92CD
:10202000EF92FF920F931F93CF93DF93CDB7DEB75D
:10203000A1970FB6F894DEBF0FBECDBF7C01C42EB2
:10204000E52FCB01D22E19A221E02D1510F02AE0A8
:10205000D22E8E010F5D1F4F8D2C912CA12CB12CF7
:102060006C2D7E2FA50194010E94E4108C2DD29E30
:1020700080191124015011098A3014F4805D01C0C7
:10208000895CF8018083211531054105510521F056
:10209000C22EE32FCA01E4CFB801C7010E94C30FCB
:1020A000A1960FB6F894DEBF0FBECDBFDF91CF91E2
:1020B0001F910F91FF90EF90DF90CF90BF90AF9066
:1020C0009F908F900895CF92DF92EF92FF920F939F
:1020D0001F93CF93DF93EC016A017B01211531053A
:1020E00079F4E881F9810190F081E02D642FDF918E
:1020F000CF911F910F91FF90EF90DF90CF900994B7
:102100002A303105E9F477FF1AC06DE20E94DB0F37
:102110008C0144275527BA014C195D096E097F09C6
:102120002AE0CE010E940A10800F911FDF91CF910B
:102130001F910F91FF90EF90DF90CF9008952AE0CC
:10214000B701A601CE01DF91CF911F910F91FF90B2
:10215000EF90DF90CF900C940A109A01AB016627A4
:1021600057FD6095762F0C9463102115310541F4CD
:10217000DC01ED91FC910190F081E02D642F099438
:102180000C940A109A01462F50E060E070E00C9425
:10219000B5109A01AB0160E070E00C94B5100895A1
:1021A000AA1BBB1B51E107C0AA1FBB1FA617B7077D
:1021B00010F0A61BB70B881F991F5A95A9F7809599
:1021C0009095BC01CD010895A1E21A2EAA1BBB1B5C
:1021D000FD010DC0AA1FBB1FEE1FFF1FA217B307F3
:1021E000E407F50720F0A21BB30BE40BF50B661F09
:1021F000771F881F991F1A9469F7609570958095CD
:1022000090959B01AC01BD01CF010895EE0FFF1F1A
:102210000590F491E02D0994A29FB001B39FC001F5
:10222000A39F700D811D1124911DB29F700D811D02
:102230001124911D08950E940C11B7FF0895821B6F
:10224000930B08950E940C11A59F900DB49F900DC3
:10225000A49F800D911D11240895FB01DC0102C093
:1022600001900D9241505040D8F70895F999FECF52
:1022700092BD81BDF89A992780B50895A8E1B0E094
:1022800042E050E00C945411262FF999FECF1FBA6A
:1022900092BD81BD20BD0FB6F894FA9AF99A0FBE8F
:1022A00001960895DC01CB01FC01F999FECF06C02F
:1022B000F2BDE1BDF89A319600B40D924150504004
:0822C000B8F70895F894FFCF70
:1022C80000006503800002204D487A002B565A20F2
:1022D80069002067002040200020633100206F0043
:1022E8002071310020780000000000230E9B0FA809
:1022F8000DC10DB30D010E0D0A006E616E00696E01
:0823080066006F7666002E00EE
:00000001FF
