:10000000CFC082CBECCAF1C0F0C0EFC0EEC0EDC0F3
:10001000ECC0EBC0EAC0A5CBE8C0E7C0E6C0E5C0D5
:10002000E4C031C490C3F7C370C36FC36EC3E5C3EC
:100030006CC36EC353C469C368C367C30BC5AFC386
:1000400036C534C462C31FC4F6C35FC344C45DC3B2
:100050003DC45BC39AC520620A00202D3E20002CBF
:1000600000506F7374656420004E6F646520616C8E
:100070006C6F636174696F6E2000202D3E20616398
:100080006B0A004E6577204E6F64652000200020CB
:10009000002047005800203F004F4B000D496E766E
:1000A000616C69640A002C000D496E76616C6964AC
:1000B0000A000D496E76616C69640A00496E6974C4
:1000C00069616C697A65206661696C65640A0052D1
:1000D0006573746F7265640A004261642043524321
:1000E0000A004261636B65642055700A000D496E19
:1000F00076616C69640A007465737420000D496E42
:1001000076616C69640A000D496E76616C69640AF7
:10011000003E000D496E76616C69640A000D496EFF
:1001200076616C69640A003F0A002C003E2000637F
:100130006F6E6669672073617665206661696C65BC
:10014000640A002000202E000D0029200028002035
:10015000736C656570696E6700205420000A5B52FD
:1001600046313264656D6F2E31315D00003A3700E3
:100170003B38003936003240020202010101010120
:100180000101010102048040201008040201000066
:1001900001020304000000000000F600D50E110F5C
:1001A00011241FBECFE5D2E0DEBFCDBF10E0A0E638
:1001B000B0E0ECE8FFE102C005900D92AE39B10766
:1001C000D9F711E0AEE9B0E001C01D92A83DB1073A
:1001D000E1F711E0C0EAD1E003C02297FE01A6DEFC
:1001E000CA39D107D1F706DCCFCE0ACF80EA90E03A
:1001F0006AE0AFD908951F93CF93DF9380E290E038
:10020000ADDE182F8093A40081E290E0A7DE8093FA
:10021000A50082E290E0A2DEC82FD0E0D0939F003C
:10022000C0939E00CE0124E0969587952A95E1F72C
:100230008F70382F3295307F2091A6002F70232B9E
:100240002093A60081FF07C080E496E090939F0072
:1002500080939E000DC083E290E080DECF70D0706E
:100260003C2F2227280F311D30939F0020939E00A2
:10027000E12FF0E0EF71F070EB53FF4F1082DF9150
:10028000CF911F9108950F931F93CF93DF93EC01AC
:100290008B016A30710530F0CB016AE070E0F3DD6C
:1002A000CE01F1DFDE010D900020E9F71197AC1BC4
:1002B000CA0FD11DC8016AE070E0E5DD805D88836A
:1002C000DF91CF911F910F9108958F70682F605D1E
:1002D0006A330CF0695F8CEC91E040E050E0C7DCE1
:1002E00008951F93182F8091C400882339F0812F1F
:1002F00082958F70EADF812FE8DF07C08CEC91E0F8
:10030000612F70E04AE050E0A0DC1F9108951F9338
:10031000CF93DF93EC01FE0121961491112361F03C
:100320001A3019F488E491E0F2DF8CEC91E0612F4F
:1003300040E050E09CDCEFCFDF91CF911F9108951A
:100340006F927F928F929F92AF92BF92CF92DF92E5
:10035000EF92FF920F931F93CF93DF93C8EAD0E001
:100360008AE1FE0111928A95E9F79091A600209109
:100370009E0080919F008F70907D982B9093A60097
:100380002093A7001091A4001F71FE01019000208E
:10039000E9F7E95AF040F0E0EC0FFD1F105C108324
:1003A0001054CE0160E670E0CEDDCE01612F70E02A
:1003B0006ADF8091A40085FF0BC0FE010190002040
:1003C000E9F7E95AF040F0E0EC0FFD1F8AE2808384
:1003D00058EA652E50E0752EC30163E670E0B3DD88
:1003E0006091A500C30170E04EDFC30166E670E0D6
:1003F000AADD8091A40090E046E0959587954A9506
:10040000E1F78093650100919E0010919F0020E02C
:1004100030E0EC0169E170E00BDDAA2797FDA095C3
:10042000BA2FBC01CD01A901980114DD4B015C017B
:1004300020E137E240E050E05CDD79018A01CC0F39
:10044000DD1FCC58DF4F688179816E0D7F1DC301A0
:100450001ADFF30101900020E9F76F0189EA90E0CB
:10046000C81AD90AE0E1F7E28E0E9F1EC801B70153
:1004700020EF38ED4FEF5FEFEDDC860E971EC301E6
:10048000B40101DFDD2484EA90E0C80ED91E8EE2BB
:10049000F6018483C30169E670E055DD8FEF9FEFBD
:1004A0009093C3008093C200F3013497219180910F
:1004B000C2009091C3008227282F22952827022E60
:1004C000269526952025022E269520252770082E74
:1004D000892F269507942795902D82270694279596
:1004E000902582279093C3008093C20080E0E23C75
:1004F000F807E1F600E210E0F801EC57FF4FC80101
:10050000608134DD0F5F1F4F00341105A9F781E0D2
:100510007ED7882319F48FE291E0F9DEDF91CF9145
:100520001F910F91FF90EF90DF90CF90BF90AF9011
:100530009F908F907F906F9008950F931F93CF930C
:10054000DF93C6ECD0E001E010E088818F3F99F0A6
:100550008CEC91E0B8014AE050E077DB8DE491E06B
:10056000D6DE68818CEC91E070E04AE050E06DDB13
:100570008AE491E0CCDE21960F5F1F4F80E0C43DFE
:10058000D80719F78CEC91E085DBDF91CF911F91B3
:100590000F9108951F93DF93CF9300D0CDB7DEB7AF
:1005A000182F8DE591E0B3DE1123A9F089E591E0E4
:1005B000AEDE8091D4019091D501009711F488EDC1
:1005C00091E0BE016F5F7F4F681B790B8CEC91E06F
:1005D0004AE050E08DDB0F900F90CF91DF911F919B
:1005E00008950F931F93CF93DF93062FEC0110E034
:1005F0000BC08881803218F088818F3778F085E4CD
:1006000091E085DE1F5F2196101798F38CEC91E046
:1006100041DBDF91CF911F910F91089583E491E029
:1006200076DE68818CEC91E040E050E020DBEACFA0
:10063000EF92FF920F931F93CF93DF93082F805376
:100640008A3098F480911B0190911C016AE070E05F
:10065000EFDBC097202F332727FD3095820F931FA4
:1006600090931C0180931B019DC20C3299F49091D0
:100670001D01963450F4E92FF0E0E25EFE4F8091C8
:100680001B0180839F5F90931D0110921C011092AB
:100690001B0188C2802F81568A3108F044C28CE247
:1006A00091E035DE10E00FC0E12FF0E0E25EFE4F9A
:1006B00060818CEC91E070E04AE050E0C6DA8AE2BA
:1006C00091E025DE1F5F80911D01181768F360918E
:1006D0001B0170911C018CEC91E04AE050E0B5DA0E
:1006E0008CEC91E0602F40E050E01BDB802F9927DD
:1006F00087FD9095A92FB92FFC01E156F040EA3112
:10070000F10518F4EF5EFF4F099487E291E009C20A
:1007100020911B0130911C01C90101970F9780F4B2
:100720002E30310524F4F901EB53FF4F1082922F44
:100730009F718091A400807E980F9093A4002AC09E
:100740008DE191E0EEC180911B01843011F421E034
:1007500009C0883011F422E005C0893011F020E092
:1007600001C023E0822F90E090931C0180931B0135
:10077000892B91F02295220F220F207C8091A400DA
:100780008F73280F2093A40080E496E090939F003D
:1007900080939E00D5DDF9C183E191E0C2C16091F3
:1007A0009E0070919F008CEC91E04AE050E009DAE5
:1007B00020911B0130911C0121153105D1F0C90197
:1007C00080569040805E9E4088F430939F00209336
:1007D0009E0081E191E09BDD60919E0070919F0001
:1007E0008CEC91E04AE050E06CDAD4CF87E091E005
:1007F00098C18CEC91E04EDAC8C180911B019091B8
:100800001C018F3F910509F01CF48093A500C2CF15
:100810008DEF90E086C180911B0190911C01892B86
:1008200021F08091A400806203C08091A4008F7D9C
:100830008093A400AFCF81E68093180182E4809377
:10084000190110921A019091D40020E030E0F901D2
:10085000EB52FF4F892F820F80832F5F3F4F22344F
:100860003105A9F787EF90E052DD6091D4008CEC60
:1008700091E070E04AE050E03BDA8091D4008F5F75
:100880008093D40082C10093180140911D014093D0
:10089000190180911B0180931A0125ED30E0EEE1F2
:1008A000F1E0C901BF0150E045DB6FC180911B0140
:1008B00090911C01892B21F08091A600806103C0DA
:1008C0008091A6008F7E8093A60064CF80911B014B
:1008D0008093C4005AC181E05DDE57C180911E0142
:1008E0008F3008F03EC0082F10E0F5E0000F111F18
:1008F000FA95E1F7005E1F4FC0E0D0E0C8018C0F11
:100900009D1F2CDBF82E82958F70DFDC8F2DDDDCB8
:10091000FE01EB52FF4FF08280911B0190911C0170
:100920008A9799F480911E01882379F48091A4001C
:1009300090E08F719070E5E0880F991FEA95E1F7DC
:100940008C0F9D1F80966F2D11DB2196C032D10533
:10095000A9F68CEC91E09ED985ED90E060E241DE55
:1009600003C08DEE90E0D3DC80911B0190911C01BF
:10097000009709F40AC18A32910519F482EE90E0D9
:10098000D0C08B37910509F062C080911E01282FDD
:1009900030E08091A40090E08F71907028173907A3
:1009A00009F055C0790175E0EE0CFF1C7A95E1F76E
:1009B00080E290E0E80EF91E0FEF1FEFC0E0D0E0FC
:1009C000C7018C0F9D1FCADA0827802F82958027C8
:1009D000082E869586958025082E86958025877019
:1009E000002E012F869507948795102D08270694D1
:1009F0008795102508272196C032D10509F7012BCC
:100A000019F089ED90E019C0C0E0D0E0C7018C0F6B
:100A10009D1FA4DA182F82958F7057DC812F55DC2B
:100A2000CE018096612FA2DA2196C032D10571F7EE
:100A30008CEC91E02FD98FEC90E069DC81E0E7D479
:100A4000882311F0D8DBA1C08CEB90E06AC082EB68
:100A500090E067C020911E01822F81508E3020F5DA
:100A600080911B0190911C018B379105E9F4E22FD5
:100A7000F0E0EB53FF4F80818823B1F48FEF808348
:100A8000C0E0D0E080911E0190E065E0880F991FE2
:100A90006A95E1F78C0F9D1F80966FEF67DA2196BC
:100AA000C032D10579F771C088EA90E03AC09091E0
:100AB0001E01892F82508D30A8F420911B013091A6
:100AC0001C012F3F310574F4E92FF0E0EB53FF4F89
:100AD0008081882339F42083809164018F5F809323
:100AE000640153C09923D9F480911B0190911C019A
:100AF000892BA9F4609164018CEC91E070E04AE0EC
:100B000050E0A3D886EA90E002DC609117018CECFB
:100B100091E070E04AE050E0EBD80FDD36C08CE9A0
:100B200090E0F5DB32C00E33E9F580911D01E82F2E
:100B3000F0E0E25EFE4F90911B0190838F5F809307
:100B40001D018091200190911E01943011F461E00B
:100B500009C0983011F462E005C0993011F060E0EE
:100B600001C063E020919E0030919F0040911F01E1
:100B7000DFD340911D0144508091210162E271E078
:100B8000A8D382E080D380E042D410921D0110925D
:100B90001C0110921B0186E4EEE1F1E0DF011D92E1
:100BA0008A95E9F7DF91CF911F910F91FF90EF9018
:100BB00008951F93CF93DF9380EA90E0F2D48823C7
:100BC00021F080EA90E0D1D433DD78D2882309F493
:100BD00015C110916A018091660190916701892B7E
:100BE00021F489E990E093DB0BC08091A600807F1F
:100BF00009F02DC186E990E08ADB153108F014E197
:100C00008091C400882319F084E990E080DB809112
:100C1000A500882331F481E990E079DB80916801B7
:100C200060DB8FE890E073DB809169015ADBC0E004
:100C3000D0E00DC08091C400882319F48DE890E0C5
:100C400066DBFE01E559FE4F80814BDB2196C11723
:100C500088F38CEC91E01ED8809166019091670139
:100C6000892B09F0CBC08091690190E08F7590705D
:100C70000F970CF044C0E0916901F0E0EF71F07063
:100C8000EB53FF4F80818F3FD1F580916B018F3FF8
:100C900019F48EEF80936B0183E890E038DB80914C
:100CA00069018F711EDB8CEC91E0F4D7E091690152
:100CB000F0E0EF71F070EB53FF4F108280916A010A
:100CC000803210F010E202C010916A01C0E0D0E062
:100CD00013C080916901FE01E559FE4F608190E0EB
:100CE0008F719070A5E0880F991FAA95E1F7820F88
:100CF000911D80963BD921962C2FC11750F38091DE
:100D0000690185FF7BC08091690187FD77C0809173
:100D1000A40085FD73C08AE790E0F9DA1092D40050
:100D2000809169018F758F31C1F4E6ECF0E011E03C
:100D300080818F3F69F410521093D500105E81E0DE
:100D40008093D40089E690E0E2DA812FCADA44C0C9
:100D50001F5F31961F3061F742C08091690186FDA7
:100D60003EC0E0916901F0E0EF71F070EB53FF4F8E
:100D700080818823A1F1E0916901F0E0EF71F070CA
:100D8000EB53FF4F80818F3F51F1E0916901F0E01B
:100D9000EF71F070EB53FF4F80818093D500E091AD
:100DA0006901F0E0EF71F070EB53FF4F108281E0CA
:100DB0008093D40081E690E0AADA809169018F7176
:100DC00090DA8FE590E0A3DA8091D5008ADA8091FD
:100DD00017018F5F809317018CEC91E05BD78091B6
:100DE000690186FF02C080E804C0809169018F71AB
:100DF000806C65ED70E04091D4005ED28091180166
:100E0000882329F1E9D1882311F18AE590E07FDA7E
:100E1000609119018CEC91E070E04AE050E015D748
:100E200086E590E074DA80911801813611F080E057
:100E300001C080E290911A01992311F09064892BEE
:100E400065ED70E04091190137D210921801DF91E1
:100E5000CF911F9108950F931F93CF93DF9306ECCB
:100E600010E0C0E4D0E0CE0179D8F80180838F3F54
:100E700009F01082A0960F5F1F4FF2E0C030DF072D
:100E800091F768EE73E080E090E0DBD480EA90E0D8
:100E90008BD382ED91E09093CF018093CE01E091CE
:100EA000D201F091D3010190F081E02D099580E00D
:100EB00071DB81E0ACD2882311F09DD914C081E4AC
:100EC0008093A40084ED8093A50080E496E0909345
:100ED0009F0080939E008091A6008F70806C80930D
:100EE000A6001092C600DF91CF911F910F91089537
:100EF000C1989FB990E031E123E13DB92DB99F5FE1
:100F00009830D9F73FB18FB980E021E193E12DB955
:100F10009DB98F5F8830D9F72FB1932F80E0C19AA8
:100F200030E0282B392BC90108952BB72F7B2BBF1D
:100F3000DFDF2BB720642BBF089580E090E0D8DF7F
:100F40008091B601853009F052C080E090EBD0DF8F
:100F5000282F8091BA01882371F49091B7019923C9
:100F600051F08091BA01E82FF0E0E859FE4F9083EC
:100F70008F5F8093BA018091BA01E82FF0E0E859C1
:100F8000FE4F20838F5F8093BA018091660190911C
:100F900067018227282F22952827022E269526953D
:100FA0002025022E269520252770082E892F26958C
:100FB00007942795902D82270694279590258227C0
:100FC000909367018093660180916A012091BA0134
:100FD00090E0049630E0821793072CF08091BA01DC
:100FE000873408F46AC08DE092E882DF089580912A
:100FF000B60187FF2EC0E0916A018091B6018F5F34
:101000008093B6018150ED5FE80FF0E0E859FE4FA4
:10101000E08180916601909167018E27282F2295AB
:101020002827022E269526952025022E2695202556
:101030002770082E892F269507942795902D8227B3
:1010400006942795902582279093670180936601E7
:101050002FC08091B6018F5F8093B601815083309D
:1010600019F184302CF4882399F0813001F516C0F1
:10107000893019F08A30D9F402C0EDE219C0E0914C
:10108000B70190916A018EEF891B8093B60110C061
:101090008091660190916701E82F0AC080916601F6
:1010A00090916701E92F04C08DE092E821DFEAEA20
:1010B0008E2F90E0805098441BDF08958091B601F8
:1010C000853009F042C080916A012091BA0190E018
:1010D000049630E08217930724F08091BA01873498
:1010E000A0F184E08093B60180916A01833430F0EE
:1010F00081E090E09093670180936601809169019F
:1011000086FF12C08091B501282F30E0C9018F7190
:1011100090704F9749F08091690190E08227932762
:101120008F719070892B89F480916601909167018D
:10113000892B09F043C0E091B301F091B4013097DD
:1011400009F43CC080E0099545C08091B601843027
:1011500011F080E0089510926A0180916A018093F5
:10116000BA018FEF9FEF9093670180936601209102
:10117000B7012223D9F08227282F22952827022E73
:10118000269526952025022E269520252770082EA7
:10119000892F269507942795902D822706942795C9
:1011A00090258227909367018093660185E0809364
:1011B000B6018DED92E89CDE80E008958FEF9FEF01
:1011C000AFEFBFEF8093AF019093B001A093B10157
:1011D000B093B20181E008958091B601853089F421
:1011E0008091BA01882369F480E090E09EDE90FD52
:1011F00008C08DE092E899DE84E08093B60181E03A
:10120000089580E00895982F86FD05C0907E809116
:10121000B5018F71980F90936901E091B301F0913E
:10122000B401309711F081E009958FEF9FEF909313
:10123000670180936601809166019091670120911A
:10124000B7018227282F22952827022E269526953A
:101250002025022E269520252770082E892F2695D9
:1012600007942795902D822706942795902582270D
:10127000909367018093660186E08093B6018DE3C9
:1012800092E836DE0895282F12C0222381F095B708
:10129000233011F080E001C080E1977E892B85BF6B
:1012A00085B7806285BF889585B78F7D85BF809122
:1012B000B601843051F708951F93182F40936A01A7
:1012C0002BE631E0C90150E035D6812F9CDF1F911C
:1012D00008950F931F93CF93DF93182FEB01042FE3
:1012E00001C0ECDE79DF8823E1F3812FBE01402FBE
:1012F000E3DFDF91CF911F910F910895C19AB99AC1
:1013000081E061E008D381E061E0E1D285E061E065
:10131000DED284E060E0DBD286E061E0D8D280E11A
:101320008DB982E060E0D3D282E061E0F4D208952A
:101330001F93162F8093B5014093B7013093B901E5
:101340002093B801DBDF80E090E0D2DD85E092E819
:10135000CFDD80E098EB02C080E090E0C9DD82E064
:1013600014D3892BC9F3812F90E064E0880F991F73
:101370006A95E1F7876C9068BBDD8091B801909128
:10138000B90180509046B4DD86E096ECB1DD82EA8A
:1013900094E9AEDD8CEA92ECABDD1091B70111233C
:1013A00039F083E89AECA4DD812F90E09E6C05C0B3
:1013B0008BE89AEC9DDD8DE29EEC9ADD83E894EC5F
:1013C00097DD80E598E994DD87E79CEC91DD80E08E
:1013D00090EE8EDD80E098EC8BDD89E490EC88DD8A
:1013E00084E08093B6018091B50190E08F71907098
:1013F000892B39F080E06DE977E040E050E069D179
:1014000002C080E077D18091B5011F910895AF921D
:10141000BF92CF92DF92EF92FF920F931F93CF93E1
:10142000DF93B82E0FEF1FEFEE24FF24C0E0D0E0D3
:10143000CE01809693D50827902F92959027092E5C
:10144000969596959025092E969590259770002E45
:10145000012F969507949795102D09270694979537
:1014600010250927CE3119F4F82EEE2404C0CF310F
:1014700011F4E80EF11C2196C032D105C9F6012BFA
:1014800011F080E05BC080E290E068D5C82E81E278
:1014900090E064D5A82E82E290E060D5282F30E05D
:1014A000D82ED294AFE0DA22D1FE03C000E416E0D9
:1014B00009C02F703070122F002783E290E04ED5C4
:1014C000080F111DBB2059F08CEC91E06D2D40E10F
:1014D00050E0CDD38CEC91E06EE670E0C6D2C4E271
:1014E000D0E0CE013BD5682F803258F0BB2029F0E8
:1014F0008CEC91E040E050E0BAD32196CE33D10598
:1015000081F7BB2071F08CEC91E060E770E0ADD228
:101510008CEC91E0B70140E150E053D38CEC91E0CA
:10152000B9D36C2D70E0E6E075956795EA95E1F723
:101530008C2D4A2D9801FCDE8C2D8F71DF91CF917F
:101540001F910F91FF90EF90DF90CF90BF90AF90E1
:101550000895FC016093BE0180E09BE4A0E0B0E050
:1015600080839183A283B38308954091BB01442378
:1015700019F42FEF3FEF13C09091BC01ECEBF1E0B9
:10158000242F30E02E0F3F1F02C081818193E2178C
:10159000F307D9F741504093BB01292F30E0C9012F
:1015A00008958091BB0108958091BE0160E08FD1C4
:1015B0008091BE0161E0AFD186E390E09093C001DD
:1015C0008093BF01909A8BB780618BBF8CE690E0CF
:1015D00020E001972FEF8F3F9207D9F708951F92D0
:1015E0000F920FB60F921124EF92FF920F931F9359
:1015F0002F933F934F935F936F937F938F939F931B
:10160000AF93BF93CF93DF93EF93FF938AE0BDD166
:10161000892B09F047C08091BF019091C0010897C4
:1016200020E001972FEF8F3F9207D9F710E0C0E03D
:10163000D0E000E041E0E42EF12C8091BF019091D8
:10164000C0010397880F991F202F01972FEF8F3F1D
:101650009207D9F78AE099D1892B41F0C7010C2E66
:1016600002C0880F991F0A94E2F7182B2196C83000
:10167000D10519F78091BF019091C001880F991F82
:1016800020E001972FEF8F3F9207D9F78091BB01A0
:10169000823040F4E82FF0E0E454FE4F10838F5F77
:1016A0008093BB01FF91EF91DF91CF91BF91AF91FB
:1016B0009F918F917F916F915F914F913F912F916A
:1016C0001F910F91FF90EF900F900FBE0F901F9002
:1016D0001895882371F48FB7F8947093C2016093C2
:1016E000C1018FBF85B78C7F842B85BF8BB780648A
:1016F0008BBF0895882339F48BB78F7B8BBF1092F3
:10170000C2011092C10108951F920F920FB60F925D
:1017100011242F933F934F935F936F937F938F93F6
:101720009F93AF93BF93EF93FF938091C1019091EB
:10173000C201892B29F0E091C101F091C201099504
:10174000FF91EF91BF91AF919F918F917F916F9199
:101750005F914F913F912F910F900FBE0F901F906F
:1017600018951F920F920FB60F9211242F933F934B
:101770008F939F93AF93BF938091C7019091C801BE
:10178000A091C901B091CA013091CB01232F2A5FEA
:101790002D3728F02D570396A11DB11D03C00296C9
:1017A000A11DB11D2093CB018093C7019093C80167
:1017B000A093C901B093CA018091C3019091C40163
:1017C000A091C501B091C6010196A11DB11D8093E4
:1017D000C3019093C401A093C501B093C601BF910A
:1017E000AF919F918F913F912F910F900FBE0F90CE
:1017F0001F9018959FB7F8942091C3013091C401B0
:101800004091C5015091C60182B708B600FE06C0DE
:101810008F3F21F02F5F3F4F4F4F5F4F9FBF542FA0
:10182000432F322F2227280F311D411D511D83E0E8
:10183000220F331F441F551F8A95D1F7B901CA01E2
:101840000895EF92FF920F931F93CF93DF937B0145
:101850008C01D0DFEB010DC0CDDF6C1B7D0B685E12
:101860007340D0F30894E108F10801091109C85147
:10187000DC4FE114F1040105110571F7DF91CF91FF
:101880001F910F91FF90EF900895789480B7836037
:1018900080BF83B7877F83BF83B7887F836083BF21
:1018A00089B7816089BF8EB5887F8EBD8FB58C7FEB
:1018B00081608FBD8EB5877E8EBD8EB5887F83603B
:1018C0008EBD86B1887F866086B9379A0895482F85
:1018D00050E0CA018D579E4FFC01249148585E4F3D
:1018E000FA0184918823B1F0E82FF0E0E459FE4F2B
:1018F000E491F0E0662341F49FB7F894808120954D
:10190000822380839FBF08959FB7F8948081822BA4
:1019100080839FBF0895282F482F50E0CA018D571C
:101920009E4FFC01349148585E4FFA0194919923DF
:1019300059F1223019F480B78F7304C0233021F499
:1019400080B78F7C80BF0AC0243019F48FB58F73A5
:1019500004C0253019F48FB58F7C8FBDE92FF0E0DE
:10196000E159FE4FE491F0E0662341F49FB7F8940B
:1019700080813095832380839FBF08959FB7F8941B
:101980008081832B80839FBF0895282F482F50E0AC
:10199000CA018D579E4FFC01949148585E4FFA0141
:1019A0003491332319F420E030E022C0223019F4BE
:1019B00080B78F7304C0233021F480B78F7C80BF41
:1019C0000AC0243019F48FB58F7304C0253019F480
:1019D0008FB58F7C8FBDE32FF0E0EE58FE4FE49182
:1019E000F0E0808120E030E0892311F021E030E058
:1019F000C90108954ADF2FDADCD8FECF0F931F9379
:101A0000CF93DF938C01EB0109C02196D801ED91B2
:101A1000FC910190F081E02DC80109956881662351
:101A2000A1F7DF91CF911F910F910895EF92FF924F
:101A30000F931F93CF93DF938C017B01EA010CC0BE
:101A4000D7016D917D01D801ED91FC910190F0815C
:101A5000E02DC80109952197209791F7DF91CF914B
:101A60001F910F91FF90EF900895DC01ED91FC9193
:101A70000280F381E02D099508952F923F924F92B5
:101A80005F926F927F928F929F92AF92BF92CF920E
:101A9000DF92EF92FF920F931F93DF93CF93CDB717
:101AA000DEB7A0970FB6F894DEBF0FBECDBF1C0106
:101AB0006A017B01411551056105710541F440E35F
:101AC00050E060E070E020E030E08BD053C088242C
:101AD00099245401422E55246624772401E010E015
:101AE0000C0F1D1F080D191DC701B601A30192019E
:101AF000DED1F80160830894811C911CA11CB11CEB
:101B0000C701B601A3019201D2D1C901DA016C016A
:101B10007D01C114D104E104F10401F781E0E82E54
:101B2000F12CEC0EFD1EE80CF91C3E010894611C22
:101B3000711CD501C4010197A109B1096C01C81834
:101B4000D90815C0F601EE0DFF1D40814A3010F492
:101B5000405D01C0495C552747FD5095652F752FA5
:101B6000C10120E030E03DD00894E108F1086E1496
:101B70007F0441F7A0960FB6F894DEBF0FBECDBF2D
:101B8000CF91DF911F910F91FF90EF90DF90CF9059
:101B9000BF90AF909F908F907F906F905F904F908D
:101BA0003F902F900895DC012115310541F4ED910E
:101BB000FC910190F081E02D642F099508955DDF7F
:101BC0000895EF92FF920F931F939A017B0100E01B
:101BD00010E0B801A701E7DF1F910F91FF90EF9090
:101BE0000895EF92FF920F931F93CF93DF93EC0131
:101BF0007A018B012115310541F4E881F9810190C9
:101C0000F081E02D642F099519C02A303105A9F41F
:101C100077FF0FC04DE250E060E070E020E030E080
:101C2000E0DF10950095F094E094E11CF11C011D9B
:101C3000111DCE01B801A7012AE01FDFDF91CF916E
:101C40001F910F91FF90EF900895EF92FF920F93E5
:101C50001F937B019A010027F7FC0095102FB80114
:101C6000A701BFDF1F910F91FF90EF900895EF92B2
:101C7000FF920F931F93E62E9A01FF24E7FCF09446
:101C80000F2D1F2DB801A701ACDF1F910F91FF9001
:101C9000EF9008950F931F938C014DE050E060E0AA
:101CA00070E020E030E09DDFC8014AE050E060E0F5
:101CB00070E020E030E095DF82E090E01F910F912E
:101CC0000895CF92DF92EF92FF920F931F938C01B2
:101CD0009A016B01EE24FF24B701A60164DFC8015D
:101CE000D9DF1F910F91FF90EF90DF90CF90089573
:101CF000CF92DF92EF92FF920F931F938C016B01B3
:101D00009A01EE24D7FCE094FE2CB701A60169DF0E
:101D1000C801C0DF1F910F91FF90EF90DF90CF902F
:101D20000895CF92DF92EF92FF920F931F938C0151
:101D3000C62E9A01DD24C7FCD094ED2CFD2CB701F2
:101D4000A6014FDFC801A6DF1F910F91FF90EF9012
:101D5000DF90CF9008950895089580E090E0089571
:101D60008FEF9FEF08958FEF9FEF08950895FC0187
:101D7000A281B381ED91FC9111970280F381E02D56
:101D8000CD01099581E090E0089520ED31E0FC015E
:101D900033832283C901DFDF0895FC0188E890E0E6
:101DA00091838083CF01F1DF089580E890E09093E4
:101DB000D1018093D0018CEC91E0EFDF0895B89AC7
:101DC000C09A0895862F880F8E7162956F7060613A
:101DD00022E095E059E0F89407C000000000000000
:101DE0000000000000000000879510F0C09802C0BD
:101DF000C09A0000579510F40000000033E049E558
:101E00004A95F1F700003A95D1F700009A9529F725
:101E100000002A9521F095E0862F54E0E5CF7894D4
:101E200008958AE990E09093D3018093D2010895B8
:101E30005527002480FF02C0060E571F660F771F2C
:101E40006115710521F096958795009799F7952F63
:101E5000802D0895FF27EE27BB27AA2760FF04C027
:101E6000A20FB31FE41FF51F220F331F441F551F7E
:101E7000969587957795679589F70097760771F717
:101E8000CF01BD010895AA1BBB1B51E107C0AA1FCA
:101E9000BB1FA617B70710F0A61BB70B881F991F0B
:101EA0005A95A9F780959095BC01CD010895A1E2BE
:101EB0001A2EAA1BBB1BFD010DC0AA1FBB1FEE1FC4
:101EC000FF1FA217B307E407F50720F0A21BB30B0F
:101ED000E40BF50B661F771F881F991F1A9469F78B
:101EE00060957095809590959B01AC01BD01CF01E7
:101EF000089597FB092E05260ED057FD04D0D7DF95
:101F00000AD0001C38F450954095309521953F4FEC
:101F10004F4F5F4F0895F6F79095809570956195B6
:101F20007F4F8F4F9F4F0895EE0FFF1F0590F49145
:101F3000E02D0994FB01DC0102C001900D9241509B
:101F40005040D8F70895FB01DC010D900020E9F71F
:101F5000119701900D920020E1F70895E199FECFCD
:101F60009FBB8EBBE09A99278DB30895262FE199E8
:101F7000FECF1CBA9FBB8EBB2DBB0FB6F894E29A66
:0C1F8000E19A0FBE01960895F894FFCF7F
:101F8C00206900206700204000204D487A00200086
:101F9C00203078000000AE015C03840300000000D8
:101FAC00AB0EAC0E00000000B70EFE0C160DAD0E05
:0E1FBC00B30EB00EB60E00000000DF0EE20EF7
:00000001FF
