:1000000095C065CB98C7B7C0B6C0B5C0B4C0B3C0C3
:10001000B2C0B1C0B0C088CBAEC0ADC0ACC0ABC088
:10002000AAC0FDC362C3C3C344C343C30BC4B3C3A9
:1000300040C342C33EC343C43CC33BC3ABC47FC302
:10004000D6C490C436C3EBC3C2C333C3A0C431C348
:1000500099C42FC33AC520002C0020620A00202D2D
:100060003E2000506F7374656420004E6F646520FD
:10007000616C6C6F636174696F6E2000202D3E208F
:1000800061636B0A004E6577204E6F646520002027
:100090002E004949202000415343002047005800CA
:1000A000203F004F4B000D496E76616C69640A0079
:1000B0007465737420003E003F0A003E2000636FA9
:1000C0006E6669672073617665206661696C656438
:1000D0000A00202E000D00292000280020736C65E6
:1000E0006570696E67000A5B5246313264656D6FF8
:1000F0002E31315D0020542000003A37003B38009B
:100100003936003240020202010101010101010100
:1001100001020480402010080402010000010203D3
:100120000400000000000000DA0E140F11241FBEAE
:10013000CFE5D2E0DEBFCDBF10E0A0E6B0E0E2E95F
:10014000FFE102C005900D92AE39B107D9F711E079
:10015000AEE9B0E001C01D92A23DB107E1F711E0A8
:10016000CCE2D1E003C02297FE01E3DEC832D10722
:10017000D1F745DC0CCF44CF8F70682F605D6A33B8
:100180000CF0695F86EC91E040E050E075DD089589
:100190001F93CF93DF93EC01FE012196149111235D
:1001A00061F01A3019F485ED90E0F2DF86EC91E011
:1001B000612F40E050E060DDEFCFDF91CF911F91E4
:1001C00008950F931F93CF93DF93062FEC0110E058
:1001D0000BC08881803218F088818F3778F082EDEB
:1001E00090E0D6DF1F5F2196101798F386EC91E020
:1001F00056DDDF91CF911F910F91089586E590E034
:10020000C7DF688186EC91E040E050E035DDEACF61
:100210001F93182F8091C000882339F0812F829579
:100220008F70AADF812FA8DF07C086EC91E0612FD5
:1002300070E04AE050E00EDD1F9108950F931F9388
:10024000CF93DF93C2ECD0E001E010E088818F3FD4
:1002500099F086EC91E0B8014AE050E0FBDC8AEDD1
:1002600090E096DF688186EC91E070E04AE050E033
:10027000F1DC87ED90E08CDF21960F5F1F4F80E06F
:10028000C03DD80719F786EC91E009DDDF91CF91E9
:100290001F910F9108951F93DF93CF9300D0CDB797
:1002A000DEB7182F86EE90E073DF1123A9F085EFFB
:1002B00090E06EDF8091CE019091CF01009711F414
:1002C00082ED91E0BE016F5F7F4F681B790B86EC7A
:1002D00091E04AE050E011DD0F900F90CF91DF9157
:1002E0001F910895EF92FF920F931F938C017B0152
:1002F00081E07CD8C8018A569F4FAADA80E076D880
:10030000C701885C9040A4DA1F910F91FF90EF9095
:1003100008950F931F93CF93DF93EC016830A1F4FE
:100320009C01220F331F082E82958025082E86956A
:1003300086958025C82FD0E02196D595C795C170A8
:10034000D070C22BD32B69E0262F30E021503040F3
:1003500081E090E0A0E0B0E004C0880F991FAA1FE0
:10036000BB1F2A95D2F78C010EC0C8018C239D2398
:10037000892B19F460E971E002C068E572E0CB01F5
:10038000B1DF169507950115110579F7DF91CF912A
:100390001F910F9108950F931F93CF93DF93EC015B
:1003A0008B016A30710530F0CB016AE070E06EDDE0
:1003B000CE01F1DFDE010D900020E9F71197AC1BB3
:1003C000CA0FD11DC8016AE070E060DD805D8883DE
:1003D000DF91CF911F910F9108956F927F928F922D
:1003E0009F92AF92BF92CF92DF92EF92FF920F93C4
:1003F0001F93CF93DF93C4EAD0E08AE1FE0111920C
:100400008A95E9F79091A20020919E0080919F002B
:100410008F70907D982B9093A2002093A300109151
:10042000A0001F71FE0101900020E9F7E55AF0409D
:10043000F0E0EC0FFD1F105C10831054CE0160E65D
:1004400070E084DDCE01612F70E0A5DF8091A00017
:1004500085FF0BC0FE0101900020E9F7E55AF0404E
:10046000F0E0EC0FFD1F8AE2808374EA672E70E0F3
:10047000772EC30163E670E069DD6091A100C301DE
:1004800070E089DFC30166E670E060DD8091A00066
:1004900090E066E0959587956A95E1F78093630112
:1004A00000919E0010919F0020E030E0EC0169E196
:1004B00070E0C1DCAA2797FDA095BA2FBC01CD0141
:1004C000A9019801CADC4B015C0120E137E240E060
:1004D00050E012DD79018A01CC0FDD1FCC58DF4FCF
:1004E000688179816E0D7F1DC30155DFF301019095
:1004F0000020E9F76F0185EA90E0C81AD90AE0E127
:10050000F7E28E0E9F1EC801B70120EF38ED4FEFC6
:100510005FEFA3DC860E971EC301B4013CDFDD2430
:1005200080EA90E0C80ED91E8EE2F6018483C301F2
:1005300069E670E00BDD8FEF9FEF9093BF00809333
:10054000BE00F301349721918091BE009091BF00CD
:100550008227282F22952827022E269526952025AA
:10056000022E269520252770082E892F2695079480
:100570002795902D82270694279590258227909382
:10058000BF008093BE0080E0EE3BF807E1F600E29A
:1005900010E0F801E058FF4FC8016081EADC0F5F0E
:1005A0001F4F00341105A9F781E0D4D7882319F42F
:1005B0008EEB90E0EDDDDF91CF911F910F91FF90D9
:1005C000EF90DF90CF90BF90AF909F908F907F90F3
:1005D0006F900895CF92DF92EF92FF920F931F9347
:1005E000CF93DF93082F80538A3098F480911901BC
:1005F00090911A016AE070E01EDCC097202F33272B
:1006000027FD3095820F931F90931A018093190153
:1006100069C20C3299F490911B01963450F4E92F81
:10062000F0E0E45EFE4F8091190180839F5F90931C
:100630001B0110921A011092190154C2802F815689
:100640008A3108F010C28BEB90E0A2DD10E00FC001
:10065000E12FF0E0E45EFE4F608186EC91E070E017
:100660004AE050E0F7DA88E590E092DD1F5F809184
:100670001B01181768F36091190170911A0186EC3B
:1006800091E04AE050E0E6DA86EC91E0602F40E04D
:1006900050E04CDB802F992787FD9095A92FB92F2B
:1006A000FC01E156F040EA31F10518F4EF5EFF4F2E
:1006B000099488EB90E0D5C12091190130911A017D
:1006C000C90101970F9708F0CAC12E30310524F4F3
:1006D000F901EF53FF4F1082922F9F718091A0007C
:1006E000807E980F9093A00028C0809119018430DB
:1006F00011F421E009C0883011F422E005C08930EE
:1007000011F020E001C023E0822F90E090931A01C5
:1007100080931901892B09F4A2C12295220F220F7F
:10072000207C8091A0008F73280F2093A00080E48C
:1007300096E090939F0080939E004FDEC6C160912B
:100740009E0070919F0086EC91E04AE050E03EDA16
:100750002091190130911A0121153105C1F0C9010B
:1007600080569040805E9E4008F079C130939F0093
:1007700020939E0086EB90E00BDD60919E007091CF
:100780009F0086EC91E04AE050E0A0DAD6CF86ECFC
:1007900091E085DA9AC18091190190911A018F3FF9
:1007A000910511F00CF05BC18093A100C6CF809140
:1007B000190190911A01892B21F08091A00080628B
:1007C00003C08091A0008F7D8093A000B6CF81E60A
:1007D0008093140182E48093150110921601909188
:1007E000D00020E030E0F901EF52FF4F892F820F57
:1007F00080832F5F3F4F22343105A9F780EB90E0D3
:10080000C7DC6091D00086EC91E070E04AE050E0F7
:1008100074DA8091D0008F5F8093D00056C100932E
:10082000140140911B01409315018091190180939F
:10083000160121ED30E0ECE1F1E0C901BF0150E02B
:100840007CDB43C180E062E040E020E436E013D688
:1008500090911C0180E020911D01EC01C20FD11D7F
:10086000D0901E01E0901901FD2E1D2D1A5F1E0D66
:100870001C0F1D0F00E081E090E06DE04ADD8F2D40
:1008800090E068E046DDCE0168E043DD8D2D90E02C
:1008900068E03FDD8E2D90E068E03BDD812F90E049
:1008A00068E037DD80E090E061E033DD6AE070E031
:1008B00080E090E0A9D70F5F0330E9F604C180E043
:1008C00061E040E020E436E0D6D580911D01C82FDC
:1008D000D0E02197A4E0CC0FDD1FAA95E1F7D66008
:1008E00080911C01992787FD909501978F709070DA
:1008F000C82BD92B809119018111D860FF24FCED00
:10090000CF2EF5E0DF2E2BC087E791E065E674E09F
:10091000E9DCCE01002E02C0959587950A94E2F796
:1009200080FD03C087E791E002C085E694E0B60150
:10093000681B790BD7DC0F5F1F4F0C30110521F7B7
:1009400087E791E067E771E0CDDC6BE070E080E085
:1009500090E05AD7F39484E0F81609F4B4C000E0AC
:1009600010E0D2CF8091190190911A01892B21F0CA
:100970008091A200806103C08091A2008F7E80934D
:10098000A200DBCE809119018093C0009EC081E05F
:1009900082DC9BC020911C01822F81508E3008F098
:1009A0005EC08091190190911A018B37910509F071
:1009B00056C0E22FF0E0EF53FF4F8081882309F00B
:1009C0004EC08FEF8083C0E0D0E080911C0190E0AA
:1009D000E5E0880F991FEA95E1F78C0F9D1F80963F
:1009E0006FEFC7DA2196C032D10579F76EC09091CA
:1009F0001C01892F82508D30A8F42091190130916B
:100A00001A012F3F310574F4E92FF0E0EF53FF4F47
:100A10008081882339F42083809162018F5F8093E5
:100A2000620153C09923D9F48091190190911A0160
:100A3000892BA9F46091620186EC91E070E04AE0B4
:100A400050E008D988E590E0A3DB6091130186ECC3
:100A500091E070E04AE050E050D9F0DB36C086EA21
:100A600090E096DB32C00E33E9F580911B01E82F50
:100A7000F0E0E45EFE4F9091190190838F5F8093C8
:100A80001B0180911E0190911C01943011F461E0D2
:100A900009C0983011F462E005C0993011F060E0AF
:100AA00001C063E020919E0030919F0040911D01A4
:100AB000E2D440911B01445080911F0160E271E03B
:100AC000ABD482E07AD480E045D510921B0110921D
:100AD0001A011092190186E4ECE1F1E0DF011D92A8
:100AE0008A95E9F7DF91CF911F910F91FF90EF90D9
:100AF000DF90CF9008951F93CF93DF9380911701DC
:100B0000882311F48FEF04C080911801109217010F
:100B100061DD6ED3882309F433C110916A0180919D
:100B2000660190916701892B21F483EA90E030DB24
:100B30000BC08091A200807F09F04BC180EA90E059
:100B400027DB153108F014E18091C000882319F0EB
:100B50008EE990E01DDB8091A100882331F48BE9C0
:100B600090E016DB8091680153DB86E590E010DBB6
:100B7000809169014DDBC0E0D0E00DC08091C000E4
:100B8000882319F486E590E003DBFE01E559FE4F6A
:100B900080813EDB2196C11788F386EC91E07FD8F7
:100BA0008091C0008230D0F087E990E0F1DA809146
:100BB000A100882319F482E990E0EADA8FE890E056
:100BC000E7DA609169016F71606486EC91E040E062
:100BD00050E052D88BE691E0612FF3DA8091660104
:100BE00090916701892B09F0CBC08091690190E059
:100BF0008F7590700F970CF044C0E0916901F0E0A0
:100C0000EF71F070EF53FF4F80818F3FD1F58091EE
:100C10006B018F3F19F48EEF80936B0185E890E0B4
:100C2000B7DA809169018F71F3DA86EC91E037D8F9
:100C3000E0916901F0E0EF71F070EF53FF4F108227
:100C400080916A01803210F010E202C010916A01B6
:100C5000C0E0D0E013C080916901FE01E559FE4F6C
:100C6000608190E08F719070B5E0880F991FBA9500
:100C7000E1F7820F911D80967CD921962C2FC11708
:100C800050F38091690185FF7BC08091690187FDE8
:100C900077C08091A00085FD73C08CE790E078DA82
:100CA0001092D000809169018F758F31C1F4E2EC10
:100CB000F0E011E080818F3F69F410521093D10071
:100CC000105E81E08093D0008BE690E061DA812FA6
:100CD0009FDA44C01F5F31961F3061F742C0809198
:100CE000690186FD3EC0E0916901F0E0EF71F070AE
:100CF000EF53FF4F80818823A1F1E0916901F0E07B
:100D0000EF71F070EF53FF4F80818F3F51F1E09111
:100D10006901F0E0EF71F070EF53FF4F8081809335
:100D2000D100E0916901F0E0EF71F070EF53FF4FF7
:100D3000108281E08093D00083E690E029DA8091F0
:100D400069018F7165DA88E590E022DA8091D1003F
:100D50005FDA809113018F5F8093130186EC91E03D
:100D60009ED78091690186FF02C080E804C080910F
:100D700069018F71806C61ED70E04091D0003FD3CC
:100D800080911401882329F1C1D2882311F18EE5C5
:100D900090E0FED96091150186EC91E070E04AE0A8
:100DA00050E058D78AE590E0F3D98091140181365C
:100DB00011F080E001C080E290911601992311F0BA
:100DC0009064892B61ED70E04091150118D3109269
:100DD0001401DF91CF911F9108951F93CF93DF935B
:100DE00080E290E0BED8182F8093A00081E290E0CE
:100DF000B8D88093A10082E290E0B3D8C82FD0E0A9
:100E0000D0939F00C0939E00CE0124E096958795D5
:100E10002A95E1F78F70382F3295307F2091A2000C
:100E20002F70232B2093A20081FF07C080E496E05F
:100E300090939F0080939E000DC083E290E091D834
:100E4000CF70D0703C2F2227280F311D30939F0088
:100E500020939E00E12FF0E0EF71F070EF53FF4F11
:100E60001082DF91CF911F9108950F931F93CF931D
:100E7000DF9302EC10E0C0E4D0E0CE0172D8F801BC
:100E800080838F3F09F01082A0960F5F1F4FF2E022
:100E9000C030DF0791F768EE73E080E090E0B4D4F3
:100EA000929A8BB780618BBF8091640190916501AC
:100EB000880F991F20E001972FEF8F3F9207D9F7F6
:100EC00088E060E0F1D488E061E02AD58BE090E032
:100ED00090936501809364018CEC91E09093C9013B
:100EE0008093C801E091CC01F091CD010190F08197
:100EF000E02D099580E0CFD981E02CD3882311F033
:100F00006CDF14C081E48093A00084ED8093A10085
:100F100080E496E090939F0080939E008091A200D1
:100F20008F70806C8093A2001092C200DF91CF91ED
:100F30001F910F9108951F920F920FB60F921124D7
:100F4000EF92FF920F931F932F933F934F935F93D3
:100F50006F937F938F939F93AF93BF93CF93DF93C1
:100F6000EF93FF9388E016D5892B09F044C0809158
:100F7000640190916501089720E001972FEF8F3F62
:100F80009207D9F710E0C0E0D0E000E061E0E62E83
:100F9000F12C80916401909165010397880F991F4E
:100FA000202F01972FEF8F3F9207D9F788E0F2D4D7
:100FB000892B41F0C7010C2E02C0880F991F0A949B
:100FC000E2F7182B2196C830D10519F780916401FA
:100FD00090916501880F991F20E001972FEF8F3FB7
:100FE0009207D9F780911701882329F410931801EB
:100FF00081E080931701FF91EF91DF91CF91BF9135
:10100000AF919F918F917F916F915F914F913F91A0
:101010002F911F910F91FF90EF900F900FBE0F90A7
:101020001F901895C1989FB990E031E123E13DB937
:101030002DB99F5F9830D9F73FB18FB980E021E19A
:1010400093E12DB99DB98F5F8830D9F72FB1932FD8
:1010500080E0C19A30E0282B392BC90108952BB7C5
:101060002F7B2BBFDFDF2BB720642BBF089580E0E1
:1010700090E0D8DF8091B601853009F052C080E061
:1010800090EBD0DF282F8091BA01882371F49091E2
:10109000B701992351F08091BA01E82FF0E0E859A7
:1010A000FE4F90838F5F8093BA018091BA01E82F41
:1010B000F0E0E859FE4F20838F5F8093BA01809162
:1010C0006601909167018227282F22952827022EFA
:1010D000269526952025022E269520252770082E58
:1010E000892F269507942795902D8227069427957A
:1010F00090258227909367018093660180916A0111
:101100002091BA0190E0049630E0821793072CF00A
:101110008091BA01873408F46AC08DE092E882DFDA
:1011200008958091B60187FF2EC0E0916A018091F9
:10113000B6018F5F8093B6018150ED5FE80FF0E05C
:10114000E859FE4FE08180916601909167018E27FA
:10115000282F22952827022E269526952025022E17
:10116000269520252770082E892F269507942795E8
:10117000902D8227069427959025822790936701CA
:10118000809366012FC08091B6018F5F8093B60176
:101190008150833019F184302CF4882399F0813008
:1011A00001F516C0893019F08A30D9F402C0EDE299
:1011B00019C0E091B70190916A018EEF891B80936D
:1011C000B60110C08091660190916701E82F0AC0B6
:1011D0008091660190916701E92F04C08DE092E84B
:1011E00021DFEAEA8E2F90E0805098441BDF0895BB
:1011F0008091B601853009F042C080916A0120914A
:10120000BA0190E0049630E08217930724F08091B1
:10121000BA018734A0F184E08093B60180916A011D
:10122000833430F081E090E0909367018093660111
:101230008091690186FF12C08091B501282F30E0AE
:10124000C9018F7190704F9749F08091690190E0CA
:10125000822793278F719070892B89F48091660182
:1012600090916701892B09F043C0E091B301F0919F
:10127000B401309709F43CC080E0099545C08091E5
:10128000B601843011F080E0089510926A018091D7
:101290006A018093BA018FEF9FEF9093670180936B
:1012A00066012091B7012223D9F08227282F2295A9
:1012B0002827022E269526952025022E26952025C4
:1012C0002770082E892F269507942795902D822721
:1012D0000694279590258227909367018093660155
:1012E00085E08093B6018DED92E89CDE80E0089564
:1012F0008FEF9FEFAFEFBFEF8093AF019093B001FF
:10130000A093B101B093B20181E008958091B6013C
:10131000853089F48091BA01882369F480E090E0F7
:101320009EDE90FD08C08DE092E899DE84E0809317
:10133000B60181E0089580E00895982F86FD05C0EC
:10134000907E8091B5018F71980F90936901E09123
:10135000B301F091B401309711F081E009958FEF5E
:101360009FEF909367018093660180916601909151
:1013700067012091B7018227282F22952827022E66
:10138000269526952025022E269520252770082EA5
:10139000892F269507942795902D822706942795C7
:1013A00090258227909367018093660186E0809361
:1013B000B6018DE392E836DE0895282F12C022236D
:1013C00081F095B7233011F080E001C080E1977E75
:1013D000892B85BF85B7806285BF889585B78F7D4E
:1013E00085BF8091B601843051F70895882319F4A0
:1013F0008DE092E802C08DE392E814DE08951F9319
:10140000182F40936A012BE631E0C90150E095D5D1
:10141000812F93DF1F9108950F931F93CF93DF9335
:10142000182FEB01042F01C0E3DE70DF8823E1F306
:10143000812FBE01402FE3DFDF91CF911F910F91EC
:101440000895C19AB99A81E061E06AD281E061E0D1
:101450002BD285E061E028D284E060E025D286E0EE
:1014600061E022D280E18DB982E060E01DD282E0AD
:1014700061E056D208951F93162F8093B5014093D3
:10148000B7013093B9012093B801DBDF80E090E031
:10149000C9DD85E092E8C6DD80E098EB02C080E01F
:1014A00090E0C0DD82E076D2892BC9F3812F90E0F5
:1014B00064E0880F991F6A95E1F7876C9068B2DD48
:1014C0008091B8019091B90180509046ABDD86E0E3
:1014D00096ECA8DD82EA94E9A5DD8CEA92ECA2DD27
:1014E0001091B701112339F083E89AEC9BDD812F2D
:1014F00090E09E6C05C08BE89AEC94DD8DE29EEC4A
:1015000091DD83E894EC8EDD80E598E98BDD87E75B
:101510009CEC88DD80E090EE85DD80E098EC82DD5B
:1015200089E490EC7FDD84E08093B6018091B50181
:1015300090E08F719070892B39F080E067E378E05C
:1015400040E050E0A9D002C080E0B7D08091B50162
:101550001F910895AF92BF92CF92DF92EF92FF92C8
:101560000F931F93CF93DF93B82E0FEF1FEFEE244F
:10157000FF24C0E0D0E0CE018096F3D40827902F5E
:1015800092959027092E969596959025092E9695D9
:1015900090259770002E012F969507949795102D02
:1015A00009270694979510250927CE3119F4F82EAE
:1015B000EE2404C0CF3111F4E80EF11C2196C032A4
:1015C000D105C9F6012B11F080E05BC080E290E00C
:1015D000C8D4C82E81E290E0C4D4A82E82E290E064
:1015E000C0D4282F30E0D82ED294AFE0DA22D1FE3A
:1015F00003C000E416E009C02F703070122F0027DE
:1016000083E290E0AED4080F111DBB2059F086ECA8
:1016100091E06D2D40E150E02FD386EC91E06EE635
:1016200070E028D2C4E2D0E0CE019BD4682F803293
:1016300058F0BB2029F086EC91E040E050E01CD34C
:101640002196CE33D10581F7BB2071F086EC91E075
:1016500060E770E00FD286EC91E0B70140E150E026
:10166000B5D286EC91E01BD36C2D70E0E6E0759569
:101670006795EA95E1F78C2D4A2D9801FCDE8C2DBB
:101680008F71DF91CF911F910F91FF90EF90DF90BD
:10169000CF90BF90AF900895882371F48FB7F894DE
:1016A0007093BC016093BB018FBF85B78C7F842B87
:1016B00085BF8BB780648BBF0895882339F48BB7BF
:1016C0008F7B8BBF1092BC011092BB0108951F92BB
:1016D0000F920FB60F9211242F933F934F935F9366
:1016E0006F937F938F939F93AF93BF93EF93FF93EA
:1016F0008091BB019091BC01892B29F0E091BB0145
:10170000F091BC010995FF91EF91BF91AF919F912D
:101710008F917F916F915F914F913F912F910F909A
:101720000FBE0F901F9018951F920F920FB60F9239
:1017300011242F933F938F939F93AF93BF938091E7
:10174000C1019091C201A091C301B091C401309137
:10175000C501232F2A5F2D3728F02D570396A11D91
:10176000B11D03C00296A11DB11D2093C501809338
:10177000C1019093C201A093C301B093C4018091B1
:10178000BD019091BE01A091BF01B091C001019631
:10179000A11DB11D8093BD019093BE01A093BF0117
:1017A000B093C001BF91AF919F918F913F912F91C5
:1017B0000F900FBE0F901F9018959FB7F89420912F
:1017C000BD013091BE014091BF015091C00182B76F
:1017D00008B600FE06C08F3F21F02F5F3F4F4F4FEE
:1017E0005F4F9FBF542F432F322F2227280F311DC9
:1017F000411D511D83E0220F331F441F551F8A9541
:10180000D1F7B901CA010895EF92FF920F931F9388
:10181000CF93DF937B018C01D0DFEB010DC0CDDFD7
:101820006C1B7D0B685E7340D0F30894E108F108EF
:1018300001091109C851DC4FE114F104010511053A
:1018400071F7DF91CF911F910F91FF90EF90089565
:10185000019739F0019729F0880F991F0197019797
:10186000F1F70895789480B7836080BF83B7877F4E
:1018700083BF83B7887F836083BF89B7816089BF57
:101880008EB5887F8EBD8FB58C7F81608FBD8EB504
:10189000877E8EBD8EB5887F83608EBD86B1887F42
:1018A000866086B9379A0895282F30E0C901805F95
:1018B0009E4FFC0144912B5F3E4FF9018491882398
:1018C00071F1282F30E0F901E750FF4FE491AE2F7E
:1018D000B0E024503F4FF9018491E82FF0E06623F7
:1018E00051F42FB7F8948C91942F909589238C9371
:1018F000808189230BC0623061F42FB7F8948C91FA
:10190000942F909589238C938081842B80832FBF83
:1019100008959FB7F8948C91842B8C939FBF089562
:10192000282F482F50E0CA01805F9E4FFC01349160
:101930004B5F5E4FFA019491992359F1223019F4CB
:1019400080B78F7304C0233021F480B78F7C80BFB1
:101950000AC0243019F48FB58F7304C0253019F4F0
:101960008FB58F7C8FBDE92FF0E0E450FF4FE491FD
:10197000F0E0662341F49FB7F8948081309583238B
:1019800080839FBF08959FB7F8948081832B8083C5
:101990009FBF0895282F482F50E0CA01805F9E4FB7
:1019A000FC0194914B5F5E4FFA013491332319F49B
:1019B00020E030E022C0223019F480B78F7304C0D9
:1019C000233021F480B78F7C80BF0AC0243019F403
:1019D0008FB58F7304C0253019F48FB58F7C8FBD00
:1019E000E32FF0E0E150FF4FE491F0E0808120E050
:1019F00030E0892311F021E030E0C901089532DFA1
:101A000034DA79D8FECF0F931F93CF93DF938C01F5
:101A1000EB0109C02196D801ED91FC910190F08174
:101A2000E02DC801099568816623A1F7DF91CF9168
:101A30001F910F910895EF92FF920F931F93CF93F1
:101A4000DF938C017B01EA010CC0D7016D917D0110
:101A5000D801ED91FC910190F081E02DC80109952C
:101A60002197209791F7DF91CF911F910F91FF90D0
:101A7000EF900895DC01ED91FC910280F381E02D5F
:101A8000099508952F923F924F925F926F927F92A5
:101A90008F929F92AF92BF92CF92DF92EF92FF927E
:101AA0000F931F93DF93CF93CDB7DEB7A0970FB6F9
:101AB000F894DEBF0FBECDBF1C016A017B0141154A
:101AC00051056105710541F440E350E060E070E0CC
:101AD00020E030E08BD053C0882499245401422E5A
:101AE00055246624772401E010E00C0F1D1F080D1B
:101AF000191DC701B601A3019201DCD1F801608371
:101B00000894811C911CA11CB11CC701B601A30142
:101B10009201D0D1C901DA016C017D01C114D10457
:101B2000E104F10401F781E0E82EF12CEC0EFD1E3A
:101B3000E80CF91C3E010894611C711CD501C4011C
:101B40000197A109B1096C01C818D90815C0F6019F
:101B5000EE0DFF1D40814A3010F4405D01C0495C2C
:101B6000552747FD5095652F752FC10120E030E0C6
:101B70003DD00894E108F1086E147F0441F7A09667
:101B80000FB6F894DEBF0FBECDBFCF91DF911F918E
:101B90000F91FF90EF90DF90CF90BF90AF909F900C
:101BA0008F907F906F905F904F903F902F9008950F
:101BB000DC012115310541F4ED91FC910190F0819A
:101BC000E02D642F099508955DDF0895EF92FF924F
:101BD0000F931F939A017B0100E010E0B801A70169
:101BE000E7DF1F910F91FF90EF900895EF92FF9222
:101BF0000F931F93CF93DF93EC017A018B01211593
:101C0000310541F4E881F9810190F081E02D642FE4
:101C1000099519C02A303105A9F477FF0FC04DE2AC
:101C200050E060E070E020E030E0E0DF10950095EB
:101C3000F094E094E11CF11C011D111DCE01B801CE
:101C4000A7012AE01FDFDF91CF911F910F91FF9035
:101C5000EF900895EF92FF920F931F937B019A01EB
:101C60000027F7FC0095102FB801A701BFDF1F91D7
:101C70000F91FF90EF900895EF92FF920F931F93B3
:101C8000E62E9A01FF24E7FCF0940F2D1F2DB801DA
:101C9000A701ACDF1F910F91FF90EF9008950F9374
:101CA0001F938C014DE050E060E070E020E030E0F8
:101CB0009DDFC8014AE050E060E070E020E030E0E5
:101CC00095DF82E090E01F910F910895CF92DF920F
:101CD000EF92FF920F931F938C019A016B01EE24F8
:101CE000FF24B701A60164DFC801D9DF1F910F915E
:101CF000FF90EF90DF90CF900895CF92DF92EF9218
:101D0000FF920F931F938C016B019A01EE24D7FC75
:101D1000E094FE2CB701A60169DFC801C0DF1F9166
:101D20000F91FF90EF90DF90CF900895CF92DF92C8
:101D3000EF92FF920F931F938C01C62E9A01DD2420
:101D4000C7FCD094ED2CFD2CB701A6014FDFC801D4
:101D5000A6DF1F910F91FF90EF90DF90CF90089535
:101D60000895089580E090E008958FEF9FEF089523
:101D70008FEF9FEF08950895FC01A281B381ED914B
:101D8000FC9111970280F381E02DCD01099581E04E
:101D900090E008952AEC31E0FC0133832283C901ED
:101DA000DFDF0895FC0188E890E091838083CF0114
:101DB000F1DF089580E890E09093CB018093CA0111
:101DC00086EC91E0EFDF0895D39ADB9A0895862F91
:101DD000880F8E7162956F70606122E095E059E026
:101DE000F89407C0000000000000000000000000A0
:101DF0000000879510F0DB9802C0DB9A0000579531
:101E000010F4000000004EE34A95F1F700000000D6
:101E100000009A9539F700002A9521F095E0862F69
:101E200054E0E7CF789408958AE990E09093CD014B
:101E30008093CC0108955527002480FF02C0060E30
:101E4000571F660F771F6115710521F096958795CD
:101E5000009799F7952F802D0895FF27EE27BB2730
:101E6000AA2760FF04C0A20FB31FE41FF51F220FB3
:101E7000331F441F551F969587957795679589F76A
:101E80000097760771F7CF01BD010895AA1BBB1B10
:101E900051E107C0AA1FBB1FA617B70710F0A61B6A
:101EA000B70B881F991F5A95A9F780959095BC018B
:101EB000CD010895A1E21A2EAA1BBB1BFD010DC086
:101EC000AA1FBB1FEE1FFF1FA217B307E407F507EA
:101ED00020F0A21BB30BE40BF50B661F771F881FC6
:101EE000991F1A9469F760957095809590959B015C
:101EF000AC01BD01CF01089597FB092E05260ED038
:101F000057FD04D0D7DF0AD0001C38F45095409517
:101F1000309521953F4F4F4F5F4F0895F6F79095BD
:101F20008095709561957F4F8F4F9F4F0895EE0F6D
:101F3000FF1F0590F491E02D0994FB01DC0102C024
:101F400001900D9241505040D8F70895FB01DC01FB
:101F50000D900020E9F7119701900D920020E1F714
:101F60000895E199FECF9FBB8EBBE09A99278DB370
:101F70000895262FE199FECF1CBA9FBB8EBB2DBBC7
:101F80000FB6F894E29AE19A0FBE01960895F8947C
:021F9000FFCF81
:101F9200206900206700204000204D487A00200080
:101FA200203078000000AE015C03840300000000D2
:101FB200B00EB10E00000000BC0E030D1B0DB20EE0
:0E1FC200B80EB50EBB0E00000000E40EE70ED8
:00000001FF
