:1000000082C09EC737C1A4C0A3C0A2C0A1C0A0C067
:100010009FC09EC09DC0D0C79BC09AC099C098C0C9
:1000200097C004C3A3C2DCC247C346C30AC3D3C23A
:1000300040C392C23EC30DC33FC33BC33AC3BBC21E
:1000400038C31BC339C3F2C2D2C233C328C334C3BB
:100050001BC32FC303C33F0A00205A7A7A2E2E2EC9
:100060000A007465737420003E200020620A00209C
:100070002D3E2000202D3E2061636B0A002049495F
:100080002000415343200029200020280020470061
:10009000203F004F4B002054696E79005B5246317F
:1000A0003264656D6F2E31325D00636F6E66696715
:1000B0002073617665206661696C65640A000104DD
:1000C00002000302048A050506C30B2019421E2CF8
:1000D00025802E902FAA302D370038003C8F3D1000
:1000E0006F20000102048040201008040201020277
:1000F000020101010101010101003936003B380014
:100100003A37820AC30A11241FBECFE5D2E0DEBF10
:10011000CDBF10E0A0E6B0E0E4E6F7E102C0059054
:100120000D92AC38B107D9F721E0ACE8B0E001C0DE
:100130001D92A835B207E1F711E0C6E0D1E003C097
:100140002297FE01B0DAC230D107D1F778D808CBB8
:1001500057CF40E050E0682F80E591E076C91F93CB
:10016000CF93DF93EC01FE011491112341F01A307B
:1001700011F48DE0EEDF812FECDF2196F4CFDF91DB
:10018000CF911F9108958F7060E3680F6A3314F068
:1001900067E3680F40E050E080E591E056C9CF93F7
:1001A000C82F9091DC009370682F70E051F0CB0164
:1001B00024E0959587952A95E1F7E5DF8C2FCF917F
:1001C000E2CF4AE050E080E591E0CF9159C90F932A
:1001D0001F93CF93DF9381E08093DB00E9EDF0E0A4
:1001E0008FEF9FEF21918227282F22952827022E1B
:1001F000269526952025022E269520252770082E47
:10020000892F269507942795902D82270694279568
:100210009025822720E0E73EF20721F79093E8003F
:100220008093E7006091D90080E290E07BDA09EDED
:1002300010E0C0E2D0E0F80161918F01CE0172DAE6
:100240002196C033D105B9F7BCD5811107C08AEA20
:1002500090E0DF91CF911F910F9181CFDF91CF91EE
:100260001F910F91089520E001972FEF8F3F920784
:10027000D9F708951F920F920FB60F921124FF9293
:100280000F931F932F933F934F935F936F937F939E
:100290008F939F93AF93BF93CF93DF93EF93FF938E
:1002A00088E09DD7892B91F58091EB009091EC002F
:1002B0000897D9DFC0E0D0E0F12C01E010E0809198
:1002C000EB009091EC000397880F991FCCDF88E03A
:1002D00086D7892B39F0C8010C2E01C0880F0A94EB
:1002E000EAF7F82A2196C830D10549F78091EB004A
:1002F0009091EC00880F991FB6DF8091E900811181
:1003000005C0F092EA0081E08093E900FF91EF914F
:10031000DF91CF91BF91AF919F918F917F916F911D
:100320005F914F913F912F911F910F91FF900F90EF
:100330000FBE0F901F9018950F931F93CF93DF93CD
:1003400064E670E080E090E0A5D6929A8BB7806179
:100350008BBF8091EB009091EC00880F991F83DF99
:1003600060E088E0D0D661E088E005D78BE090E0DF
:100370009093EC008093EB0086E591E0909353011D
:1003800080935201E0915601F09157010190F08164
:10039000E02D099580E591E078D88CE990E0DFDEEA
:1003A00086E990E0DCDE0DD5882371F009ED10E0E0
:1003B000C0E2D0E0CE01A9D9D8018D938D0121965C
:1003C000C033D105B9F71EC080E1E9EDF0E0DF01EF
:1003D0001D928A95E9F781E88093D90084ED809396
:1003E000DA0080E496E09093DE008093DD00809157
:1003F000DC0088608093DC00EADEDF91CF911F9102
:100400000F91DFC4DF91CF911F910F910895EF926B
:10041000FF920F931F93CF93DF938091E90088237E
:1004200009F450C1C091EA001092E90080ED8C0FF0
:100430008A3088F48091D6009091D7006AE070E00D
:10044000A9D88C0F911DC7FD9A95C0979093D7009E
:100450008093D60037C1CC3281F4E0918F00E6342E
:1004600008F02CC181E08E0F80938F00F0E0E05700
:10047000FF4F8091D600808321C18FE98C0F8A3194
:1004800038F588E690E06BDED0E080918F00D817D9
:1004900078F4ED2FF0E0E057FF4F608170E04AE024
:1004A00050E080E591E0ECD78CE253DEDF5FEDCFEA
:1004B0006091D6007091D7004AE050E080E591E06D
:1004C000DFD740E050E06C2F80E591E0F1D731C0FC
:1004D000CE3379F5E0918F0081E08E0F80938F000D
:1004E000F0E0E057FF4F8091D60080832091DD003F
:1004F0003091DE004091910080919000843031F085
:10050000883031F0893031F463E005C061E003C028
:1005100062E001C060E080919200D0D340918F00F2
:10052000445064E970E080919300B4D482E0CED46A
:100530008EC0C1320CF4C0C08C2F992787FD9095D6
:10054000A92FB92FFC01E156F109EA31F10508F0B4
:10055000B0C0EF5EFF4F09948091D6008F719091EB
:10056000D900907E890F8093D90097C08091D600E2
:10057000843031F0883031F0893031F423E005C027
:1005800021E003C022E001C020E0822F90E09093A0
:10059000D7008093D600892B09F48EC02295220FB4
:1005A000220F207C8091D9008F73280F2093D900CF
:1005B00080E496E00BC08091D6009091D7009C011A
:1005C00020563109203E3E4008F076C09093DE0070
:1005D0008093DD0062C08091D6008093DA005DC018
:1005E0008091DC009091D60090FB82F954C081E6A6
:1005F0008093D80082E480938E0010928D00209129
:100600008C00E0E9F0E080E0982F920F91938F5FEB
:100610008234D1F782E690E0A2DD80918C00BFDDCC
:1006200080918C008F5F80938C0046C0C093D8006F
:1006300080918F0080938E008091D60080938D00F2
:100640003BC020E436E040E062E080E037D3B9D33D
:1006500033C020E436E040E061E0F7CF8091D6007F
:100660009091D7008B37910539F589E590E077DDDA
:1006700080E046D4F8940BD11FC08091DC009091AB
:10068000D60090FB83F907C09091D60093708091BB
:10069000DC008C7F892B8093DC0099DD0DC08CE918
:1006A00090E05DDD86E990E05ADD80E591E0EDD6F1
:1006B00003C086E590E053DD10928F001092D700C2
:1006C0001092D600D4D3882309F4ADC0F090FD0079
:1006D0008091430190914401892B21F483E990E0BA
:1006E0003EDD0CC08091DC0083FDCAC080E990E053
:1006F00036DD84E18F1510F4F4E1FF2E8091DC00EB
:10070000837011F088E525DD8091DA00811106C043
:100710008DE890E024DD8091FB0041DD80E219DD71
:100720008091FC003CDD0EEF10E0E801E02E8C2F04
:10073000801B8F1548F48091DC00837011F480E2F7
:1007400008DD89912CDDF3CF8AE890E008DD809107
:10075000DC00837021F08091F10021DD0DC06091FB
:10076000F10070E0759567957195619571094AE0A2
:1007700050E080E591E071D687E890E0F0DC80E51C
:1007800091E083D68091DC00837090E0029754F171
:1007900082E890E0E4DC8091DA00811103C08DE70B
:1007A00090E0DDDC8091FC0086FF02C08EE301C09A
:1007B0008CE3CFDC8091FC008F71805CCADCCEEFD3
:1007C000D0E08C2F8E198F1550F480E2C2DC899115
:1007D00090EE980F9F3508F08EE2BBDCF2CF80E5FB
:1007E00091E053D68091430190914401892BD9F433
:1007F0008091FC0085FF17C08091FC0087FD13C02D
:100800008091DC0082FD0FC084E790E0A8DC80913D
:10081000FC0086FD10C08091FC008F71806C40E070
:1008200060E070E036D38091D800882349F130D35E
:10083000811103C025C080E8F2CF8FE690E08FDC05
:1008400060918E0070E04AE050E080E591E018D6BB
:100850008BE690E084DC8091D800813679F080E0EE
:1008600090918D00992311F09064892B40918E0016
:1008700060E970E00ED31092D80002C080E2F0CFA1
:10088000DF91CF911F910F91FF90EF90089596B156
:10089000379885B7877E806185BFF89485B7806279
:1008A00085BF85B7846885BF85B78B77806885BF2E
:1008B0007894889585B78F7D85BF96B908958627EA
:1008C000682F62956827062E669566956025062E28
:1008D000669560256770082E892F66950794679541
:1008E000902D8627069467959025862708959BB7B7
:1008F0009F7B9BBFC1988FB988E021E193E12DB91F
:100900009DB98150E1F78FB16FB988E021E193E1A2
:100910002DB99DB98150E1F78FB1C19A9BB7906411
:100920009BBF089560E0E3CF88E2FCDF807519F09B
:1009300080E0F8DFF9CF0895CF93C82F81E0F2DF90
:10094000682F637E6C2B81E8CF91D1CF22E0660FB8
:10095000771F881F991F2A95D1F729E03DE340E0D2
:1009600050E029D666E0220F331F441F551F6A95B9
:10097000D1F72093F6003093F7004093F80050939E
:10098000F90008958091EF00853021F48091F00006
:10099000882311F080E0089584E08093EF00CCDF9D
:1009A00081E008959091EF0081E094300CF080E0B8
:1009B0000895882311F080E001C084E0BDDF84E069
:1009C0008093EF000895CF93DF93C19AB99AC19AAB
:1009D000B99AD99A8AB380638ABB80E18DB96AEAF1
:1009E0008FEA85DF8FE29EDF8A3AC9F765E58FEAF5
:1009F0007EDF8FE297DF8535C9F7CEEBD0E0FE01D1
:100A00008491882331F031966491806870DF22965A
:100A1000F6CF6091F50081EB6ADF8091F60090914E
:100A2000F700A091F800B091F900BD01882799273F
:100A300087E85DDF8091F6009091F700A091F800C3
:100A4000B091F900692F7A2F8B2F992788E84FDF13
:100A50006091F60089E84BDF84E08093EF00DF913E
:100A6000CF910895CF93DF93EC018091EF00843014
:100A700019F08530F9F047C01092FD001092F00097
:100A80006091F5008FEF9FEF1ADF9093F300809352
:100A9000F200D093EE00C093ED0085E08093EF006C
:100AA00043DF60E885EA23DF80E146DF62E08EE92C
:100AB0001EDF29C08091FD002091F00090E0049697
:100AC00030E08217930724F08091F0008834D8F04A
:100AD00084E08093EF0030DF8091FD008334B0F438
:100AE0008091F2009091F300892B81F48091FC00B9
:100AF00086FF0FC09091F4009F3159F08091FC0067
:100B00008F71891731F08FEF9FEF05C081E090E082
:100B100002C080E090E0DF91CF910895CF934093A1
:100B2000FD00FB0120E030E050E02417350744F4DD
:100B3000D901A250BF4F91919C932F5F3F4FF5CFAA
:100B400086FD04C0807E9091F400890F8093FC00A4
:100B50006091F5008FEF9FEFB2DE9093F3008093EA
:100B6000F2009091FD008EEF891B8093EF00DCDE98
:100B70008CE0E2DE60E085EABADE8091EF0083304F
:100B8000C4F588E2CFDE87FDF8CF8091EF0087FFC4
:100B90001AC09091FD008091EF00E091ED00F0917E
:100BA000EE00E90FF11DE80FF11D87FDFA95C381F5
:100BB0006C2F8091F2009091F30081DE9093F3000E
:100BC0008093F2000DC08091EF00882329F08130DE
:100BD00031F4C091F30004C0C091F20001C0CAEA30
:100BE0006C2F80E884DE8091EF008F5F8093EF00B0
:100BF000C4CFCF910895CF938091EF00853009F055
:100C00004FC060E485EA73DE84E28CDE8093F100FD
:100C10007894C8E488E286DE8075E1F38091F00084
:100C200081110FC0E091ED00F091EE008091F00095
:100C300091E0980F9093F0009091F500E80FF11D6E
:100C4000908380E06FDEE091ED00F091EE009091F6
:100C5000F00021E0290F2093F000E90FF11D8083BF
:100C6000682F8091F2009091F30029DE9093F300B9
:100C70008093F2008091FD00833410F0C093F00067
:100C80008091FD002091F00090E0049630E0821702
:100C9000930794F08091F000883408F4BBCF0CC027
:100CA00088E240DE83FF08C084E08093EF0044DEEA
:100CB00060E885EACF911BCECF9108954F925F9265
:100CC0007F928F929F92AF92BF92CF92DF92EF92DC
:100CD000FF920F931F93CF93DF93CDB7DEB7289783
:100CE0000FB6F894DEBF0FBECDBF182F762E042F9F
:100CF0002901EFEFE60FE33028F4F0E0EA59FF4F67
:100D0000608101C060E070E080E090E020E836E9BA
:100D100048E950E072D449015A01672D70E080E043
:100D200090E024EC39E040E050E067D4F901DA01CA
:100D3000B20180E090E09F01AD015FD429833A8346
:100D40004B835C836D837E838F83988769817A81EF
:100D50008B819C81680D791D8A1D9B1DF7DD009399
:100D6000F500812F8F718093F40064E170E080E0E2
:100D700090E090D18091F400882339F043E050E076
:100D80006BEF75E080E0C1D002C080E0CFD01BDE09
:100D90001093FA00812F28960FB6F894DEBF0FBE8D
:100DA000CDBFDF91CF911F910F91FF90EF90DF901A
:100DB000CF90BF90AF909F908F907F905F904F901B
:100DC0000895EF92FF920F931F93CF93DF931F929B
:100DD000CDB7DEB700E210E0EE24EA94FE2CC801A5
:100DE00094D4E8268E2D82958E25082E869586959C
:100DF0008025082E8695802587700E2CEF2C8695F1
:100E000007948795F02CE82606948795F024E82629
:100E10000F5F1F4F0033110511F7EF28F9F482E23D
:100E200090E073D48130D1F480E290E06ED4182F3A
:100E300081E290E06AD4482F84E290E049836DD447
:100E40009C01612F70E086E0759567958A95E1F7C2
:100E50004981812F33DF812F8F7101C080E00F9096
:100E6000DF91CF911F910F91FF90EF9008958BEF3D
:100E700090E0F8DD90934401809343012091430179
:100E80003091440181E02F3F3F4F09F480E0089505
:100E900079CD44CEEF92FF921F93CF93DF931F92B1
:100EA000CDB7DEB7182F7B0149836CDD49818111F5
:100EB00004C04983DCDF4981F7CFB701812F0F9050
:100EC000DF91CF911F91FF90EF9028CECF93C82F45
:100ED00069DD882399F0CC23D9F395B7977EC33089
:100EE00011F480E101C080E0982B95BF95B7906226
:100EF00095BF889595B79F7D95BFEACFCF9108950F
:100F000091E0811190E0892F54CD81110EC08FB7EF
:100F1000F89470934601609345018FBF85B78C7F2D
:100F2000842B85BF8BB780648BBF0895811107C068
:100F30008BB78F7B8BBF10924601109245010895AD
:100F40001F920F920FB60F9211242F933F934F933E
:100F50005F936F937F938F939F93AF93BF93EF9321
:100F6000FF938091450190914601892B29F0E091F2
:100F70004501F09146010995FF91EF91BF91AF9125
:100F80009F918F917F916F915F914F913F912F91A1
:100F90000F900FBE0F901F9018958EB5887F8EBD55
:100FA0008FB58C7F81608FBD8EB5877E8EBD8EB5EF
:100FB000887F83608EBD08951F920F920FB60F92A7
:100FC00011242F933F938F939F93AF93BF9380915F
:100FD000480190914901A0914A01B0914B01309193
:100FE000470126E0230F2D3730F029E8230F039621
:100FF000A11DB11D03C00296A11DB11D2093470183
:101000008093480190934901A0934A01B0934B010A
:1010100080914C0190914D01A0914E01B0914F01F2
:101020000196A11DB11D80934C0190934D01A09399
:101030004E01B0934F01BF91AF919F918F913F911E
:101040002F910F900FBE0F901F9018953FB7F894F7
:1010500080914C0190914D01A0914E01B0914F01B2
:1010600022B708B600FE05C02F3F19F00196A11D5A
:10107000B11D3FBF6627782F892F9A2F620F711DF0
:10108000811D911D43E0660F771F881F991F4A95A8
:10109000D1F70895CF92DF92EF92FF92CF93DF9333
:1010A0006B017C01D3DFEB01C114D104E104F10435
:1010B00071F0CCDF6C1B7D0B683E7340A8F381E0C0
:1010C000C81AD108E108F108C851DC4FEDCFDF9113
:1010D000CF91FF90EF90DF90CF900895789480B7F4
:1010E000836080BF83B7877F83BF83B7887F836038
:1010F00083BF89B7816089BF50DF86B1887F8660F2
:1011000086B9379A0895CF93DF93C82FD0E0FE01B8
:10111000ED51FF4F8491FE01E251FF4FC491CC236A
:1011200039F1D0E0FE01E150FF4FA491B0E0FE01A3
:10113000E450FF4FC491D0E02FB7611108C0F8947C
:101140009C91809598239C93988198230AC0623043
:1011500051F4F8949C91382F309593239C93988167
:10116000982B988304C0F8949C91982B9C932FBF44
:10117000DF91CF910895A82FB0E0FD01ED51FF4F11
:101180009491FD01E251FF4FE491EE2339F1823059
:1011900019F480B78F7304C0833021F480B78F7C3B
:1011A00080BF0AC0843019F48FB58F7304C08530B6
:1011B00019F48FB58F7C8FBDF0E0E450FF4FA49100
:1011C000B0E02FB7611105C0F8948C9190958923F8
:1011D00003C0F8948C91892B8C932FBF0895282FEE
:1011E00030E0F901ED51FF4F9491F901E251FF4FC9
:1011F000E491EE2309F1823019F480B78F7304C0B3
:10120000833021F480B78F7C80BF0AC0843019F40A
:101210008FB58F7304C0853019F48FB58F7C8FBD67
:10122000F0E0E750FF4FE491F0E02081292381E0D6
:1012300090E021F480E0089580E090E008954EDF92
:101240007BD8E5D8FECF0F931F93CF93DF93EC01AC
:101250008B01F80161918F01662341F0E881F981EA
:101260000190F081E02DCE010995F3CFDF91CF9170
:101270001F910F910895EF92FF920F931F93CF93B9
:10128000DF937C018A01EB01060F171FC017D107FE
:1012900051F06991D701ED91FC910190F081E02D21
:1012A000C7010995F3CFDF91CF911F910F91FF9067
:1012B000EF900895DC01ED91FC910190F081E02D1B
:1012C000642F09944F925F926F927F928F929F92B8
:1012D000AF92BF92CF92DF92EF92FF920F931F9344
:1012E000CF93DF93CDB7DEB7A0970FB6F894DEBFEC
:1012F0000FBECDBF5C014115510561057105D9F4E3
:1013000040E350E060E070E0A0960FB6F894DEBFD6
:101310000FBECDBFDF91CF911F910F91FF90EF9046
:10132000DF90CF90BF90AF909F908F907F906F9005
:101330005F904F90BFCF8E010F5F1F4FC12CD12CFC
:1013400076014801422E512C612C712C8FEFC81A66
:10135000D80AE80AF80ACB01BA01A30192012BD1FD
:10136000CA01F80161938F01A901BC014115510522
:101370006105710559F7F1E0CF1AD108E108F108CC
:10138000F401EC0DFD1D80818A3010F440E301C0B2
:1013900047E3480F552747FD5095652F752FC50129
:1013A00089DF81E0C81AD108E108F108EFEFCE1615
:1013B000DE06EE06FE0621F7A0960FB6F894DEBF15
:1013C0000FBECDBFDF91CF911F910F91FF90EF9096
:1013D000DF90CF90BF90AF909F908F907F906F9055
:1013E0005F904F900895CF92DF92EF92FF92CF934C
:1013F000DF93EC016A017B012115310539F4DF919E
:10140000CF91FF90EF90DF90CF9054CF2A303105ED
:1014100091F477FF0FC020E030E04DE250E060E053
:1014200070E0E1DFF094E094D094C094C11CD11C32
:10143000E11CF11C2AE0B701A601CE01DF91CF919A
:10144000FF90EF90DF90CF903DCF9A01462F552728
:1014500047FD5095652F752FC6CF9A01AB016627C2
:1014600057FD6095762FBFCF2115310541F4DC0182
:10147000ED91FC910190F081E02D642F099422CF31
:101480009A01AB0160E070E0EFCFCF93DF93EC0106
:101490004DE050E060E070E00DDF4AE050E060E0D9
:1014A00070E0CE0107DF82E090E0DF91CF910895F8
:1014B000CF93DF93EC019A01462F552747FD5095B6
:1014C000652F752F90DFCE01DF91CF91DECF08958C
:1014D000089580E090E008958FEF9FEF08958FEFDB
:1014E0009FEF08950895DC0112968D919C911397BA
:1014F000DC01ED91FC910280F381E02D099581E002
:1015000090E00895E4E5F1E08DE690E0918380833A
:1015100085E790E09093510180935001F09353013F
:10152000E09352010895D39ADB9A0895862F880F8D
:101530008E7162956F70606122E095E059E0F894D9
:1015400007C00000000000000000000000000000D4
:10155000879510F0DB9802C0DB9A0000579510F4D5
:10156000000000004EE34A95F1F700000000000083
:101570009A9539F700002A9521F095E0862F54E0DE
:10158000E7CF7894089587E890E09093570180938F
:10159000560108950024552704C0080E591F880FCE
:1015A000991F009729F076956795B8F37105B9F7FB
:1015B000802D952F0895A1E21A2EAA1BBB1BFD01B9
:1015C0000DC0AA1FBB1FEE1FFF1FA217B307E40722
:1015D000F50720F0A21BB30BE40BF50B661F771F7A
:1015E000881F991F1A9469F760957095809590955A
:1015F0009B01AC01BD01CF01089568940013E894EC
:10160000A0E0B0E0E5E0FBE01DC0EFEFE7F9590135
:101610006A015E23550FEE08FE2C87019B01AC0189
:101620009E23990F660B762FCB0141D0CDB7DEB745
:10163000EAE024C02F923F924F925F926F927F9286
:101640008F929F92AF92BF92CF92DF92EF92FF92D2
:101650000F931F93CF93DF93CDB7DEB7CA1BDB0B7E
:101660000FB6F894DEBF0FBECDBF09942A88398823
:1016700048885F846E847D848C849B84AA84B9842A
:10168000C884DF80EE80FD800C811B81AA81B98136
:10169000CE0FD11D0FB6F894DEBF0FBECDBFED014A
:1016A0000895EE0FFF1F0590F491E02D0994DF934C
:1016B000CF939F92A0E49A2E0024D001E001F00184
:1016C00016950795F794E794D794C794B794A79481
:1016D00048F41068A20FB31FC41FD51FE61FF71FE1
:1016E000081E191E220F331F441F551F661F771F28
:1016F000881F991F9A9421F79D01AE01BF01C00177
:1017000011249F90CF91DF910895E199FECF9FBB67
:101710008EBBE09A99278DB30895A8E1B0E042E02E
:1017200050E010C0262FE199FECF1CBA9FBB8EBBA4
:101730002DBB0FB6F894E29AE19A0FBE0196089578
:10174000DC01CB01FC01E199FECF06C0FFBBEEBB83
:10175000E09A31960DB20D9241505040B8F708957D
:04176000F894FFCF2B
:101764000000580180002B565A00000000670A68E8
:101774000A00000000730A23093B09690A6F0A6C16
:0C1784000A720A00000000930A960A0096
:00000001FF
