:1000000080C0B9CB6FC7A2C0A1C0A0C09FC09EC016
:100010009DC09CC09BC0DCCB99C098C097C096C0C7
:1000200095C0C0C348C386C363C562C5C6C37DC38C
:100030005FC52BC35DC5FEC35BC567C426C565C36D
:10004000FBC44CC455C5AEC37EC352C55BC450C5CA
:1000500052C420620A00202D3E2000202D3E206147
:10006000636B0A00506F737465642069004E6F649F
:100070006520616C6C6F636174696F6E20004E6502
:1000800077204E6F64652069002049492000415364
:10009000432000204700203F004F4B0074657374DD
:1000A00020003E2000696E6974206661696C656499
:1000B0000A002054696E7920000A5B52463132648E
:1000C000656D6F2E31335D002920003F0A0000006E
:1000D0003A37003B38003936003240020202010153
:1000E0000101010101010102048040201008040205
:1000F0000100000102030400000000000000150FD1
:100100004F0F11241FBECFE5D2E0DEBFCDBF10E000
:10011000A0E6B0E0E2E6FFE102C005900D92A03E4D
:10012000B107D9F711E0A0EEB0E001C01D92AE3CDE
:10013000B107E1F710E0C2E0D1E003C02297FE0171
:10014000EBDECE3FD107D1F7AEDC09CF59CF382F48
:100150001092E1001092E00020E84EEC50E0FA012D
:100160004F5F5F4F9491231741F09923B9F0490FE6
:10017000511D2F5F2F3F99F702C0992379F0A3E11A
:10018000B1E09A0105C0F9012F5F3F4FE491ED9373
:10019000822F841B8917B8F3492F3CC08DE790E06C
:1001A0009093E1008093E00040E013C0E091E00014
:1001B000F091E1004081442369F1231771F0842F0D
:1001C00090E00196E80FF91FF093E100E093E00062
:1001D0002F5F2F3F59F74423E9F08091E000909181
:1001E000E10001969093E1008093E000A3E1B1E08B
:1001F000242F30E02A0F3B1F0AC0E091E000F0916D
:10020000E10081918D93F093E100E093E000A2176B
:10021000B30799F7842F0895EF92FF920F931F93DE
:100220008C017B0181E0CAD8C8018A569F4F64DBEC
:1002300080E0C4D8C701885C90405EDB1F910F91BD
:10024000FF90EF9008950F931F93CF93DF93EC01EE
:100250006830A1F49C01220F331F082E829580255F
:10026000082E869586958025C82FD0E02196D595B5
:10027000C795C170D070C22BD32B69E0262F30E018
:100280002150304081E090E0A0E0B0E004C0880F51
:10029000991FAA1FBB1F2A95D2F78C010EC0C80157
:1002A0008C239D23892B19F460E971E002C068E575
:1002B00072E0CB01B1DF169507950115110579F7AD
:1002C000DF91CF911F910F9108958F70682F605D1E
:1002D0006A330CF0695F82EC91E040E050E020DD91
:1002E00008951F93182F8091E600837080FF07C048
:1002F000812F82958F70E9DF812FE7DF07C082ECC5
:1003000091E0612F70E04AE050E0B4DC1F91089565
:10031000682F82EC91E040E050E002DD0895FF920A
:100320000F931F93CF93DF93F62EEC0100E027C0CD
:100330008091E600837080FF02C080E2E9DF1881CF
:100340008091E600837081FF08C0143610F080E2CF
:10035000DFDF1A3010F080E2DBDF9881892F8052D6
:100360008F3510F08EE201C0892FD2DF8091E60038
:10037000837081FF02C080E2CBDF0F5F21960F15F3
:10038000B8F282EC91E0DFDCDF91CF911F910F9109
:10039000FF9008950F931F93CF93DF93062FEC01E7
:1003A00010E00AC088819DDF8091E600837011F41F
:1003B00080E2AEDF1F5F21961017A0F3DF91CF918F
:1003C0001F910F9108951F93CF93DF93EC01FE01CE
:1003D00021961491112339F01A3011F48DE098DF31
:1003E000812F96DFF4CFDF91CF911F910895CF93A6
:1003F000DF9381E08093E500E3EEF0E02FEF3FEF45
:1004000081912827822F82958227082E86958695AE
:100410008025082E869580258770022E232F8695AD
:1004200007948795302D282706948795302528270F
:1004300080E0E13FF80721F73183208380E290E0FC
:100440006091E3007EDDC0E2D0E0FE01ED53FF4F9E
:10045000CE01608176DD2196C033D105B1F71AD97E
:10046000882311F0D6D703C085EA90E0ACDFDF9196
:10047000CF910895DF93CF9300D0CDB7DEB789EB4E
:1004800090E0A1DF82EB90E09EDF8091CA01909125
:10049000CB01009711F48EEC91E0BE016F5F7F4FAE
:1004A000681B790B82EC91E04AE050E027DC0F906A
:1004B0000F90CF91DF9108958BEC90E084DF089549
:1004C0001F93CF93DF93C4EFD0E011E088818F3F7B
:1004D00049F0812F06DF88E21BDF888102DF88EC8C
:1004E00090E071DF1F5F21961F3181F782EC91E070
:1004F0002ADCDF91CF911F910895CF92DF92EF9286
:10050000FF920F931F93CF93DF93082F80538A306E
:1005100008F58091E600837040915E0150915F0183
:10052000202F332727FD309580FF0EC0A4E0440F15
:10053000551FAA95E1F740535040420F531F509367
:100540005F0140935E01DBC2CA016AE070E0AEDC8D
:10055000C09717C0802F81548630D0F48091E60078
:10056000837080FF15C080915E0190915F01F4E07F
:10057000880F991FFA95E1F7C797202F332727FD9A
:100580003095820F931F90935F0180935E01B7C2F5
:100590000C3211F0003281F490911201963408F07F
:1005A000AAC2E92FF0E0ED5EFE4F80915E018083EC
:1005B0009F5F909312019FC2802F81568A3108F568
:1005C00082EA90E000DF10E009C0E12FF0E0ED5E8C
:1005D000FE4F808186DE8CE29BDE1F5F80911201E0
:1005E000181798F360915E0170915F0182EC91E0C1
:1005F0004AE050E03FDB82EC91E0602F40E050E0C9
:10060000D0DB0E3379F580911201E82FF0E0ED5E3A
:10061000FE4F90915E0190838F5F809312018091D5
:10062000150190911301943011F461E009C09830E4
:1006300011F462E005C0993011F060E001C063E0A0
:100640002091E7003091E80040911401B4D7409127
:10065000120144508091160167E171E0C5D682E035
:1006600094D63AC101320CF444C2802F992787FDF9
:100670009095A92FB92FFC01E156F040E831F10522
:1006800008F036C2EF5EFF4F099420915E01309171
:100690005F01C90101974F9708F02BC2F901ED5096
:1006A000FF4F1082922F9F718091E300807E980F00
:1006B0009093E30028C080915E01843011F421E022
:1006C00009C0883011F422E005C0893011F020E023
:1006D00001C023E0822F90E090935F0180935E0140
:1006E000892B09F406C22295220F220F207C8091CB
:1006F000E3008F73280F2093E30080E496E090934B
:10070000E8008093E70073DEF4C120915E01309130
:100710005F01C90180569040805E9E4008F0E9C1AB
:100720003093E8002093E700EECF80915E01809344
:10073000E400E9CF90915E019170990F990F80913B
:10074000E6008B7FD4C081E680935A0182E48093D7
:100750005B0110925C0180915E0190915F010097B6
:1007600011F0809360012091120190916001E3E10A
:10077000F1E0222311F4908303C080911301808360
:1007800031969F5F81E0E535F80799F78CE990E0B5
:100790001ADE80916001A5DD809160018F5F8093FA
:1007A0006001A7C100935A018091120180935B01FF
:1007B00080915E0180935C019CC180E062E040E03A
:1007C00020E436E0F8D69091130180E020911401E6
:1007D000EC01C20FD11DD0901501E0905E01FD2EFD
:1007E0001D2D1A5F1E0D1C0F1D0F00E081E090E013
:1007F0006DE029DD8F2D90E068E025DDCE0168E019
:1008000022DD8D2D90E068E01EDD8E2D90E068E009
:100810001ADD812F90E068E016DD80E090E061E075
:1008200012DD6AE070E080E090E042D80F5F0330B4
:10083000E9F652C080E061E040E020E436E0BBD65B
:1008400080911401082F10E001501040E4E0000FE7
:10085000111FEA95E1F7166080911301992787FD32
:10086000909501978F709070082B192B80915E01E5
:1008700081111860FF247CEDC72E75E0D72E29C0AA
:1008800087E791E065E674E0C7DCC8010C2E02C082
:10089000959587950A94E2F780FD03C087E791E07C
:1008A00002C085E694E0B601681B790BB5DC2196A1
:1008B000CC30D10529F787E791E067E771E0ACDC40
:1008C0006BE070E080E090E0F3D7F39444E0F4163E
:1008D00019F0C0E0D0E0D4CFDDD60BC190915E011D
:1008E0009170990F990F990F8091E600877F892B5E
:1008F0008093E60008CF90915E0193708091E600AE
:100900008C7FF5CFB7DD85D5F4C080915E019091E5
:100910005F018038910550F11ADCF82E8091E000DB
:100920009091E100892BF1F0FF20E1F083E191E06B
:100930006F2D30DD0091E0001091E1008FEF07DCBA
:100940002F2D30E020953095200F311FE091E000F1
:10095000F091E1003196E01BF10BC901B801AF0144
:10096000DFDA04C010925F0110925E011091120153
:10097000112359F18FEFEBDBE091E000F091E10002
:10098000CF01810F911D8B57904081349105E8F480
:1009900010832091E0003091E1002F5F3F4F43E151
:1009A00051E0C901BA01412F50E0BADA8091120139
:1009B00090E00196E091E000F091E100E80FF91F6E
:1009C000F093E100E093E000108280915E0190914D
:1009D0005F01892B09F08DC000E8802FB8DB182F4C
:1009E0008823D9F0802F7DDC8BE592DC812F79DCA8
:1009F00082EC91E06DE540E050E0D3D983E191E0F5
:100A0000612FC8DC8091E600837021F483E191E0DE
:100A1000612F85DC0F5F0F3F01F78091E0002DE72C
:100A200030E0821B8F5F5DDC8FE272DC80E459DC9A
:100A300082EC91E088D95DC0E0915E01F0915F01A8
:100A40003097A1F46091610182EC91E070E04AE09E
:100A500050E010D98CE25CDC6091590182EC91E0AD
:100A600070E04AE050E086D92BDD43C0EF31F1055C
:100A700008F03FC0ED50FF4F8091130180838091BB
:100A800061018F5F8093610134C0E0911301EF3108
:100A900080F5F0E0ED50FF4F8FEF8083C0E0D0E0B5
:100AA0008091130190E064E0880F991F6A95E1F747
:100AB0008C0F9D1F805C9F4F3CDA182F06DC812F26
:100AC00082958F7002DC1F3F71F08091130190E0DE
:100AD00054E0880F991F5A95E1F78C0F9D1F805C99
:100AE0009F4F6FEF2EDA2196C031D105C9F601C0B4
:100AF000E3DC1092120110925F0110925E01DF910F
:100B0000CF911F910F91FF90EF90DF90CF900895BC
:100B10001F93CF93DF938091E200882329F0809187
:100B20005D011092E200E9DC4BD3882309F437C160
:100B3000109166018091620190916301892B21F4EB
:100B400089E990E040DC0AC08091E60083FD50C155
:100B500086E990E038DC153108F014E18091E60078
:100B6000837080FF02C088E5D3DB8091E400882396
:100B700031F483E990E027DC80916401B2DB80E20C
:100B8000C7DB80916501ADDBC0E0D0E00CC0809197
:100B9000E600837011F480E2BBDBFE01E959FE4FF1
:100BA00080819FDB2196C11790F382EC91E0CBD836
:100BB0008091E600837081FF1BC08EE890E003DC2B
:100BC0008091E400882319F489E890E0FCDB8091AF
:100BD000650186FD02C08CE301C08EE399DB809144
:100BE00065018F71805C94DB87E691E0612F97DB74
:100BF0008091620190916301892B09F0D0C08091AE
:100C0000650190E08F7590704F970CF042C0E091B5
:100C10006501F0E0EF71F070ED50FF4F80818F3F84
:100C2000C1F5809167018F3F19F48FEE80936701C2
:100C30008EE790E0C8DB809165018F7152DBE09117
:100C40006501F0E0EF71F070ED50FF4F1082809180
:100C50006601803110F010E102C010916601C0E021
:100C6000D0E014C080916501FE01E959FE4F60811A
:100C700090E08F719070B4E0880F991FBA95E1F7FA
:100C8000820F911D805C9F4F5CD921962C2FC1173C
:100C900048F38091650185FF82C08091650187FDE1
:100CA0007EC08091E60082FD7AC010921201809190
:100CB00065018F758F31D1F4E4EFF0E011E08081B0
:100CC0008F3F79F4105210931301105E81E08093EE
:100CD00012018DE690E077DB812F03DB89E618DBDC
:100CE0004AC01F5F31961F3151F745C080916501A1
:100CF00086FD41C0E0916501F0E0EF71F070ED50CC
:100D0000FF4F80818823B9F1E0916501F0E0EF7138
:100D1000F070ED50FF4F80818F3F69F1E0916501E8
:100D2000F0E0EF71F070ED50FF4F80818093130180
:100D30000EDA80931201882319F481E08093120166
:100D4000E0916501F0E0EF71F070ED50FF4F10821F
:100D500084E690E038DB809165018F71C2DA80E231
:100D6000D7DA83E191E06091120114DB809159019F
:100D70008F5F809359018BE590E025DB80916501C1
:100D800086FF02C080E804C0809165018F71806C8D
:100D900063E171E0409112011AD310921201809127
:100DA0005A01882329F19AD2882311F186E590E02F
:100DB0000ADB60915B0182EC91E070E04AE050E078
:100DC00059D782E590E0FFDA80915A01813611F01F
:100DD00080E001C080E290915C01992311F0906461
:100DE000892B63E171E040915B01F1D210925A01CD
:100DF000DF91CF911F9108950F931F93CF93DF93AE
:100E000064E670E080E090E053D5B89AC098929A7A
:100E10008BB780618BBF86E190E020E001972FEFD8
:100E20008F3F9207D9F788E060E092D588E061E0D3
:100E3000CBD588EC91E09093C5018093C401E091FB
:100E4000C801F091C9010190F081E02D099512DBF4
:100E500021D4882369F0C0E2D0E0CE016AD8FE0137
:100E6000ED53FF4F80832196C033D105B1F71AC0EF
:100E700080E1E3EEF0E0DF011D928A95E9F781E879
:100E80008093E30084ED8093E40080E496E0909307
:100E9000E8008093E7008091E60088608093E60098
:100EA000A6DAF8D3B6D204EF10E0C0E5D0E0CE0168
:100EB00040D8F80180838F3F09F0108260960F5F61
:100EC0001F4FF2E0C033DF0791F7E091E300F0E05D
:100ED000EF71F070ED50FF4F1082DF91CF911F91B5
:100EE0000F9108951F920F920FB60F921124CF9277
:100EF000DF92EF92FF920F931F932F933F934F93A5
:100F00005F936F937F938F939F93AF93BF93CF9391
:100F1000DF93EF93FF9388E091D5892B09F03AC0D6
:100F200083E090E020E001972FEF8F3F9207D9F701
:100F300010E0C0E0D0E090E1C92ED12C00E081E0CB
:100F4000E82EF12CC601202F01972FEF8F3F92073B
:100F5000D9F788E073D5892B41F0C7010C2E02C068
:100F6000880F991F0A94E2F7182B2196C830D105F3
:100F700049F786E190E020E001972FEF8F3F92073D
:100F8000D9F78091E200882329F410935D0181E074
:100F90008093E200FF91EF91DF91CF91BF91AF91EC
:100FA0009F918F917F916F915F914F913F912F9181
:100FB0001F910F91FF90EF90DF90CF900F900FBE99
:100FC0000F901F901895C1989FB990E031E123E1EF
:100FD0003DB92DB99F5F9830D9F73FB18FB980E007
:100FE00021E193E12DB99DB98F5F8830D9F72FB1F9
:100FF000932F80E0C19A30E0282B392BC901089546
:10100000C1989FB990E031E123E13DB92DB99F5FCF
:101010009830D9F79FB18FB980E021E193E12DB9E4
:101020009DB98F5F8830D9F78FB1C19A08952BB7DA
:101030002F7B2BBFC8DF2BB720642BBF089580E028
:1010400090E0DEDF8091B201853009F052C080E08F
:1010500090EBB9DF282F8091B601882371F490912D
:10106000B501992351F08091B601E82FF0E0EC59D9
:10107000FE4F90838F5F8093B6018091B601E82F79
:10108000F0E0EC59FE4F20838F5F8093B601809192
:101090006201909163018227282F22952827022E32
:1010A000269526952025022E269520252770082E88
:1010B000892F269507942795902D822706942795AA
:1010C000902582279093630180936201809166014D
:1010D0002091B60190E0049630E0821793072CF03F
:1010E0008091B601873408F46AC08DE092E888DF09
:1010F00008958091B20187FF2EC0E0916601809132
:10110000B2018F5F8093B2018150ED5FE80FF0E094
:10111000EC59FE4FE08180916201909163018E272E
:10112000282F22952827022E269526952025022E47
:10113000269520252770082E892F26950794279518
:10114000902D8227069427959025822790936301FE
:10115000809362012FC08091B2018F5F8093B201B2
:101160008150833019F184302CF4882399F0813038
:1011700001F516C0893019F08A30D9F402C0EDE2C9
:1011800019C0E091B501909166018EEF891B8093A3
:10119000B20110C08091620190916301E82F0AC0F2
:1011A0008091620190916301E92F04C08DE092E883
:1011B00027DFEAEA8E2F90E08050984421DF0895DF
:1011C0008091B201853009F042C080916601209182
:1011D000B60190E0049630E08217930724F08091E6
:1011E000B6018734A0F184E08093B201809166015A
:1011F000833430F081E090E090936301809362014A
:101200008091650186FF12C08091B101282F30E0E6
:10121000C9018F7190704F9749F08091650190E0FE
:10122000822793278F719070892B89F480916201B6
:1012300090916301892B09F043C0E091AF01F091D7
:10124000B001309709F43CC080E0099545C0809119
:10125000B201843011F080E008951092660180910F
:1012600066018093B6018FEF9FEF909363018093A7
:1012700062012091B5012223D9F08227282F2295DF
:101280002827022E269526952025022E26952025F4
:101290002770082E892F269507942795902D822751
:1012A000069427959025822790936301809362018D
:1012B00085E08093B2018DED92E8A2DE80E0089592
:1012C0008FEF9FEFAFEFBFEF8093AB019093AC0137
:1012D000A093AD01B093AE0181E008958091B20179
:1012E000853089F48091B601882369F480E090E02C
:1012F0009EDE90FD08C08DE092E899DE84E0809348
:10130000B20181E0089580E00895982F86FD05C020
:10131000907E8091B1018F71980F90936501E0915B
:10132000AF01F091B001309711F081E009958FEF96
:101330009FEF90936301809362018091620190918D
:1013400063012091B5018227282F22952827022E9C
:10135000269526952025022E269520252770082ED5
:10136000892F269507942795902D822706942795F7
:1013700090258227909363018093620186E0809399
:10138000B2018DE392E83CDE0895282F12C022239B
:1013900081F095B7233011F080E001C080E1977EA5
:1013A000892B85BF85B7806285BF889585B78F7D7E
:1013B00085BF8091B201843051F70895882319F4D4
:1013C0008DE092E802C08DE392E81ADE08951F9343
:1013D000182F4093660127E631E0C90150E0A0D5FF
:1013E000812F93DF1F9108950F931F93CF93DF9366
:1013F000182FEB01042F01C0E3DE70DF8823E1F337
:10140000812FBE01402FE3DFDF91CF911F910F911C
:101410000895FF920F931F93CF93DF9380E290E0A4
:1014200088D5F82E83E290E084D5082F85E290E0FD
:1014300080D5182F8093B3011092B40184E290E01C
:1014400078D5312F20E0280F311D3093B40120933F
:10145000B30182EC91E060E240E050E061D46F2D96
:101460006F71605C82EC91E040E050E059D482EC16
:1014700091E060E670E052D36F2D70E06F71707094
:1014800082EC91E04AE050E0F5D310E0E801C4704E
:10149000D07002FF06C082EC91E06AE240E050E0CA
:1014A0003FD482EC91E063E670E038D381E290E0D3
:1014B00040D5682F82EC91E070E04AE050E0DAD34A
:1014C00082EC91E066E670E029D36F2D6295669517
:1014D00066956370613019F461EB71E00CC06230A5
:1014E00019F464E673E007C0633019F060E070E05F
:1014F00002C063E973E082EC91E04AE050E0FED381
:1015000082EC91E06AE670E009D38091B30190919A
:10151000B4018054964071F082EC91E06FE670E087
:10152000FDD26091B3017091B40182EC91E04AE088
:1015300050E0A0D303FF05C082EC91E062E770E0C9
:10154000EDD2CD2B29F082EC91E066E770E0E6D297
:10155000037010700115110559F082EC91E06AE7F3
:1015600070E0DCD282EC91E0B8014AE050E0C6D3F2
:1015700082EC91E0E8D3DF91CF911F910F91FF9022
:101580000895C19AB99A81E061E01ED281E061E0DC
:10159000DFD185E061E0DCD184E060E0D9D186E094
:1015A00061E0D6D180E18DB982E060E0D1D182E006
:1015B00061E00AD208951F93162F8093B1014093E2
:1015C000B5013093B4012093B301DBDF80E090E0FC
:1015D00017DD85E092E814DD80E098EB02C080E042
:1015E00090E00EDD82E02AD2892BC9F3812F90E0B2
:1015F00064E0880F991F6A95E1F7876C906800DDB9
:101600008091B3019091B40180509046F9DC86E05E
:1016100096ECF6DC82EA94E9F3DC8CEA92ECF0DCFE
:101620001091B501112339F083E89AECE9DC812FA0
:1016300090E09E6C05C08BE89AECE2DC8DE29EECBB
:10164000DFDC83E894ECDCDC80E598E9D9DC87E733
:101650009CECD6DC80E090EED3DC80E098ECD0DC33
:1016600089E490ECCDDC84E08093B2018091B101FB
:1016700090E08F719070892B39F080E06FE178E015
:1016800040E050E05DD002C080E06BD08091B101BD
:101690001F910895EF92FF920F931F93CF93DF93C3
:1016A0000FEF1FEFC0E2D0E0CE0143D40827802F18
:1016B00082958027082E869586958025082E86950A
:1016C00080258770002E012F869507948795102D11
:1016D000082706948795102508272196C033D10541
:1016E00019F7012B29F582E290E023D4813001F52E
:1016F00080E290E01ED4F82E81E290E01AD4E82E29
:1017000085E290E016D4182F00E084E290E011D436
:101710006F2D70E0E6E075956795EA95E1F7080FA3
:10172000111D8F2D4E2D980146DF8F2D8F7101C019
:1017300080E0DF91CF911F910F91FF90EF9008957E
:10174000882371F48FB7F8947093B8016093B70150
:101750008FBF85B78C7F842B85BF8BB780648BBF91
:101760000895882339F48BB78F7B8BBF1092B80113
:101770001092B70108951F920F920FB60F92112485
:101780002F933F934F935F936F937F938F939F9389
:10179000AF93BF93EF93FF938091B7019091B801FE
:1017A000892B29F0E091B701F091B8010995FF91DB
:1017B000EF91BF91AF919F918F917F916F915F91C9
:1017C0004F913F912F910F900FBE0F901F90189542
:1017D0001F920F920FB60F9211242F933F938F9366
:1017E0009F93AF93BF938091BD019091BE01A09153
:1017F000BF01B091C0013091C101232F2A5F2D3765
:1018000028F02D570396A11DB11D03C00296A11DFE
:10181000B11D2093C1018093BD019093BE01A0939F
:10182000BF01B093C0018091B9019091BA01A0911C
:10183000BB01B091BC010196A11DB11D8093B901FE
:101840009093BA01A093BB01B093BC01BF91AF913B
:101850009F918F913F912F910F900FBE0F901F90EE
:1018600018959FB7F8942091B9013091BA01409131
:10187000BB015091BC0182B708B600FE06C08F3F85
:1018800021F02F5F3F4F4F4F5F4F9FBF542F432F8C
:10189000322F2227280F311D411D511D83E0220FB9
:1018A000331F441F551F8A95D1F7B901CA01089506
:1018B000EF92FF920F931F93CF93DF937B018C01E5
:1018C000D0DFEB010DC0CDDF6C1B7D0B685E73407C
:1018D000D0F30894E108F10801091109C851DC4F5F
:1018E000E114F1040105110571F7DF91CF911F910A
:1018F0000F91FF90EF900895019739F0019729F02B
:10190000880F991F01970197F1F70895789480B790
:10191000836080BF83B7877F83BF83B7887F8360FF
:1019200083BF89B7816089BF8EB5887F8EBD8FB533
:101930008C7F81608FBD8EB5877E8EBD8EB5887F92
:1019400083608EBD86B1887F866086B9379A089598
:10195000282F30E0C9018A519F4FFC014491255244
:101960003F4FF9018491882371F1282F30E0F9016C
:10197000E153FF4FE491AE2FB0E02E523F4FF901FB
:101980008491E82FF0E0662351F42FB7F8948C91FE
:10199000942F909589238C93808189230BC062308A
:1019A00061F42FB7F8948C91942F909589238C93A0
:1019B0008081842B80832FBF08959FB7F8948C91EA
:1019C000842B8C939FBF0895282F482F50E0CA0185
:1019D0008A519F4FFC01349145525F4FFA01949117
:1019E000992359F1223019F480B78F7304C0233042
:1019F00021F480B78F7C80BF0AC0243019F48FB5E2
:101A00008F7304C0253019F48FB58F7C8FBDE92FFB
:101A1000F0E0EE52FF4FE491F0E0662341F49FB70F
:101A2000F89480813095832380839FBF08959FB76A
:101A3000F8948081832B80839FBF0895282F482F9F
:101A400050E0CA018A519F4FFC01949145525F4F6B
:101A5000FA013491332319F420E030E022C022301F
:101A600019F480B78F7304C0233021F480B78F7CC2
:101A700080BF0AC0243019F48FB58F7304C025309D
:101A800019F48FB58F7C8FBDE32FF0E0EB52FF4F41
:101A9000E491F0E0808120E030E0892311F021E042
:101AA00030E0C901089532DFA7D932D8FECF0F93B5
:101AB0001F93CF93DF938C01EB0109C02196D801CE
:101AC000ED91FC910190F081E02DC80109956881AC
:101AD0006623A1F7DF91CF911F910F910895EF92A7
:101AE000FF920F931F93CF93DF938C017B01EA0149
:101AF0000CC0D7016D917D01D801ED91FC91019051
:101B0000F081E02DC80109952197209791F7DF9189
:101B1000CF911F910F91FF90EF900895DC01ED910F
:101B2000FC910280F381E02D099508952F923F9258
:101B30004F925F926F927F928F929F92AF92BF92DD
:101B4000CF92DF92EF92FF920F931F93DF93CF9389
:101B5000CDB7DEB7A0970FB6F894DEBF0FBECDBFEE
:101B60001C016A017B01411551056105710541F4B4
:101B700040E350E060E070E020E030E08BD053C004
:101B8000882499245401422E55246624772401E0A8
:101B900010E00C0F1D1F080D191DC701B601A30190
:101BA000920196D1F80160830894811C911CA11CBC
:101BB000B11CC701B601A30192018AD1C901DA01A2
:101BC0006C017D01C114D104E104F10401F781E04D
:101BD000E82EF12CEC0EFD1EE80CF91C3E010894D9
:101BE000611C711CD501C4010197A109B1096C01E7
:101BF000C818D90815C0F601EE0DFF1D40814A3006
:101C000010F4405D01C0495C552747FD5095652F94
:101C1000752FC10120E030E03DD00894E108F108C3
:101C20006E147F0441F7A0960FB6F894DEBF0FBE86
:101C3000CDBFCF91DF911F910F91FF90EF90DF907B
:101C4000CF90BF90AF909F908F907F906F905F905C
:101C50004F903F902F900895DC012115310541F4FC
:101C6000ED91FC910190F081E02D642F099508958C
:101C70005DDF0895EF92FF920F931F939A017B010E
:101C800000E010E0B801A701E7DF1F910F91FF907E
:101C9000EF900895EF92FF920F931F93CF93DF93EE
:101CA000EC017A018B012115310541F4E881F981BC
:101CB0000190F081E02D642F099519C02A3031057B
:101CC000A9F477FF0FC04DE250E060E070E020E043
:101CD00030E0E0DF10950095F094E094E11CF11CF9
:101CE000011D111DCE01B801A7012AE01FDFDF9100
:101CF000CF911F910F91FF90EF900895EF92FF9277
:101D00000F931F937B019A010027F7FC0095102F7A
:101D1000B801A701BFDF1F910F91FF90EF900895C9
:101D2000EF92FF920F931F93E62E9A01FF24E7FC98
:101D3000F0940F2D1F2DB801A701ACDF1F910F915B
:101D4000FF90EF9008950F931F938C014DE050E0AA
:101D500060E070E020E030E09DDFC8014AE050E044
:101D600060E070E020E030E095DF82E090E01F91DD
:101D70000F910895CF92DF92EF92FF920F931F93EE
:101D80008C019A016B01EE24FF24B701A60164DFE8
:101D9000C801D9DF1F910F91FF90EF90DF90CF9096
:101DA0000895CF92DF92EF92FF920F931F938C01D1
:101DB000C62E9A01DD24C7FCD094ED2CFD2CB70172
:101DC000A60168DFC801BFDF1F910F91FF90EF9060
:101DD000DF90CF9008950895089580E090E00895F1
:101DE0008FEF9FEF08958FEF9FEF08950895FC0107
:101DF000A281B381ED91FC9111970280F381E02DD6
:101E0000CD01099581E090E0089526EC31E0FC01D8
:101E100033832283C901DFDF0895FC0189EC90E060
:101E200091838083CF01F1DF089581EC90E090935E
:101E3000C7018093C60182EC91E0EFDF0895D39A49
:101E4000DB9A0895862F880F8E7162956F7060619E
:101E500022E095E059E0F89407C00000000000007F
:101E60000000000000000000879510F0DB9802C021
:101E7000DB9A0000579510F4000000004EE34A95ED
:101E8000F1F70000000000009A9539F700002A954C
:101E900021F095E0862F54E0E7CF789408958BEDFC
:101EA00090E09093C9018093C801089555270024BC
:101EB00080FF02C0060E571F660F771F6115710560
:101EC00021F096958795009799F7952F802D089585
:101ED000A1E21A2EAA1BBB1BFD010DC0AA1FBB1F2E
:101EE000EE1FFF1FA217B307E407F50720F0A21BA0
:101EF000B30BE40BF50B661F771F881F991F1A940D
:101F000069F760957095809590959B01AC01BD0136
:101F1000CF010895EE0FFF1F0590F491E02D099475
:101F2000FB01DC0102C001900D9241505040D8F7F6
:101F30000895E199FECF9FBB8EBBE09A99278DB3A0
:101F40000895262FE199FECF1CBA9FBB8EBB2DBBF7
:101F50000FB6F894E29AE19A0FBE01960895F894AC
:021F6000FFCFB1
:101F620020690020670020402000204D487A002090
:101F72006F00207131002063310020780005546524
:101F82007374330000000000000000000000000035
:101F9200000000000000000000000000000000003F
:101FA200000000000000000000000000000000002F
:101FB200000000000000000000000000000000001F
:101FC20000EB0EEC0E00000000F70E570D6F0DED4A
:101FD2000EF30EF00EF60E000000001F0F220F008F
:00000001FF
