:200000000C9463000C942E0B0C945B0B0C948B000C948B000C949B020C9477020C948B0027
:200020000C948B000C948B000C948B000C948B000C948B000C948B000C948B000C948B0068
:200040000C94880B0C948B000C94610D0C94A80D0C948B000C948B000C948B000C948B0033
:200060000C948B000C948B0000000000240027002A0000000000250028002B00000000003D
:20008000230026002900040404040404040402020202020203030303030301020408102071
:2000A0004080010204081020010204081020000000070002010000030406000000000000EB
:2000C00000009B00880E11241FBECFEFD8E0DEBFCDBF11E0A0E0B1E0E6E6F2E202C0059045
:2000E0000D92A632B107D9F712E0A6E2B1E001C01D92A335B107E1F710E0C6ECD0E004C008
:200100002297FE010E941511C23CD107C9F70E94D80E0C9431110C940000442351F4880F7C
:20012000991F680F791FCB01019663E070E00E940011CB01089586E291E060E471E042E056
:200140000E94B30381E08093330183E391E00E94E30584E0809338018093390110923A0164
:2001600010923B0110923C0110923D0110923E0110923F0108950F931F93CF93DF93EC016D
:2001800009818B819C81AD81BE810097A105B10599F01FB7F8940E94D00B2B813C814D81AD
:2001A0005E81621B730B840B950B685B7B408040904008F401E01FBF802FDF91CF911F913E
:2001C0000F91089580E290E00E9416030895BF92CF92DF92EF92FF920F931F93DF93CF935B
:2001E000CDB7DEB72B970FB6F894DEBF0FBECDBF80913B0110923B01882309F454C089E38A
:2002000091E00E94BB00817090912F019E7F982B90932F0100E07E010894E11CF11C8FEF18
:200220000E94A50902C00E948B080E942D098823D1F380E26EE271E045E022E00E94D90982
:200240001B8216C00E948B08882309F40EC180914B0190914C01892B09F007C190914E01CF
:2002600080914501806C981709F0FFC011E008C0C7016AE070E00E940D04882319F310E05F
:2002800080E00E94A509112339F488EE93E00E9416030F5F053019F686E291E060E048E5B1
:2002A00052E00E94740386E291E00E948F04882321F0813009F0E4C0C3C086E291E060E03F
:2002C00048E552E00E947403BB2480912F018E7F11F4BB24B3940E94C1098170880F880FC3
:2002E000909131019B7F982B9093310183E391E061E042EE50E00E94A80683E391E060E09A
:2003000042EE50E00E94A80683E391E0BE016C5F7F4FAE01485F5F4F0E94D5046885798594
:200320008A859B8520E030E040E251E40E94891020E030E040E05FE30E943A0F0E94A20F3C
:200340006B017C0110912F01012F06956C817D818E819F8120E030E040E05FE30E943A0FA1
:200360000E94A20F9B01AC01802F90E0B9014B2D0E948D00880F1170182B10932F01809122
:20038000300110913101912F937056E0880F991F5A95E1F746E0959587954A95E1F7B60170
:2003A0004B2D0E948D008093300193701C7F192B1093310180913801882311F483E101C07C
:2003C000835F61E00E94FD0C8091380181500E946F0C8C0180913801882311F483E101C06B
:2003E000835F60E00E94FD0C00951095169507951695079580912E0190E0602F70E04B2D61
:200400000E948D0080932E0189E391E00E94BB00817090912F019E7F982B90932F018091AB
:2004200044018F5F80934401853050F11092440186E291E061E040E050E00E94740320C0F1
:200440008FEF0E94A50902C00E948B080E942D098823D1F380E06EE271E045E022E00E94C6
:20046000D90980E00E94A5090BC083B7817F83BF83B7816083BF889583B78E7F83BFF8CEDA
:200480002B960FB6F894DEBF0FBECDBFCF91DF911F910F91FF90EF90DF90CF90BF9008956C
:2004A00080E00E94960A8093450180E00E94A50980913901882311F482E101C08D5F61E045
:2004C0000E94FD0C80916D00806880936D008091680084608093680085E08093440186E28E
:2004E00091E060E040E050E00E94740308951F920F920FB60F9211242F933F934F935F93F0
:200500006F937F938F939F93AF93BF93EF93FF930E946E03FF91EF91BF91AF919F918F91C8
:200520007F916F915F914F913F912F910F900FBE0F901F9018951F920F920FB60F921124F7
:200540000F931F932F933F934F935F936F937F938F939F93AF93BF93EF93FF938091390184
:20056000882311F482E101C08D5F0E94300D01E0182F102791F089E391E00E94BB00882317
:2005800011F400933B010E94D00B60933C0170933D0180933E0190933F0110933A01FF9176
:2005A000EF91BF91AF919F918F917F916F915F914F913F912F911F910F910F900FBE0F9010
:2005C0001F901895982F83FF02C088E2982797FF02C090E001C0906484B7877F84BFF894FE
:2005E000809160008861809360009093600078940895EAE7F0E0908180818F77808383B70C
:20060000817F846083BFF89483B7816083BF85B7806685BF85B78F79806485BF78948895D0
:2006200083B78E7F83BF90937A000895CF92DF92EF92FF921F93CF93DF937C01EC0158E0EB
:20064000C52ED12C20C01F5F193029F09695879580329105C0F710924601812F0E94E20285
:200660000E94F9028FEF0E94E202960102C0220F331F1A95E2F7C21BD30B809146018823B7
:2006800051F0C21BD30BC031D10510F461E004C0CE0110E0DDCF60E02091A7013091A80120
:2006A0004091A9015091AA01EC1AFD0AC701A0E0B0E0820F931FA41FB51F8093A701909396
:2006C000A801A093A901B093AA01862FDF91CF911F91FF90EF90DF90CF90089580914601A0
:2006E0008F5F8093460108951F93DC01362F12968D919C9113974817590710F5BC01641B84
:20070000750B20E014C0822F90E0880F991FED91FC911197E80FF91F808191811FEF8F3F64
:20072000910721F0860F971F918380832F5F14968C911497281738F313965C934E93129722
:20074000832F90E0880F991FED91FC911197E80FF91F12968D919C911397481B590B51832E
:2007600040831F910895FC01CB01718360832FEF3FEF338322834483178250E0440F551FCB
:200780006FEF70E050E00E9422110895FC018081882311F482E101C08D5F0E94910C08956F
:2007A000FC018081882311F482E101C08D5F0E94FD0C08950F931F93CF93DF938C01EB0192
:2007C00080E06115710509F081E0F8018283882341F00E94D00B2197C60FD71FF801D1834C
:2007E000C083DF91CF911F910F9108950F931F93FC018281882359F0008111810E94D00B21
:200800009801261B370B8AEE2136380710F020E030E0C9011F910F910895EF92FF920F9333
:200820001F93CF93DF93EC017B018A81882311F400E00FC0088119810E94D00BC801861B55
:20084000970B2AEE8136920710F400E006C0082F0195CE01B7010E94DA03802FDF91CF9192
:200860001F910F91FF90EF900895CF93DF93EC018A819B810097E9F57C814FEF5FEF60E057
:2008800020E030E015C0E881F981E20FF31F808191812E5F3F4F009731F48FEF9FEF918383
:2008A0008083862F39C08417950708F4AC016F5F671748F32FEF4F3F5207C1F020E013C097
:2008C000822F90E0880F991FE881F981E80FF91F808191813FEF8F3F930721F0841B950BBD
:2008E000918380832F5F8C81281750F35B834A8312C08F5F9F4F11F48EEF0EC0CE010596B1
:2009000064E670E00E940D04882329F08A819B8101979B838A838FEFDF91CF910895EF9270
:20092000FF920F931F93CF93DF938C01FC01828193818F5F9F4FE1F48EEF2FC0EC0122E051
:200940008935920710F0C8E5D2E0CE9DC001CF9D900DDE9D900D11240E9416038823E1F028
:20096000F801828193818C1B9D0B9383828303C044E6E42EF12CF801828193810097F1F653
:20098000C80105960E94F6030E941603882321F0C8010E94350401C08FEFDF91CF911F917E
:2009A0000F91FF90EF9008950895AF92BF92CF92DF92EF92FF920F931F93CF93DF936C0144
:2009C000EB015A01FC016181728180E090E00E94D30F2AE037ED43E25CE30E94891027EDC9
:2009E00033EA4EE152E40E94390F7B018C01F5016083718382839383F6016381748180E06A
:200A000090E00E94D30F5B016C01C801B70120E030E048EC51E40E94390F7B018C01C60165
:200A2000B5012CEA35EC47EA58E30E9489102AE037ED43E25CE30E943A0F9B01AC01C80193
:200A4000B7010E9489107B018C01C601B50126EF34E246ED55EB0E948910A60195010E9465
:200A600089109B01AC01C801B7010E943A0F7B018C01C601B5012DEB32E546E15DE30E946A
:200A800089109B01AC01C801B7010E943A0F25EC3EEF42E050E40E94390F688379838A8396
:200AA0009B8320E030E046EC52E40E948510181644F480E090E0A8ECB2E488839983AA83B5
:200AC000BB83688179818A819B812DEC3CEC4CEC5DE30E949E0F882344F48DEC9CECACEC4A
:200AE000BDE388839983AA83BB83DF91CF911F910F91FF90EF90DF90CF90BF90AF9008959D
:200B00000F931F93182F092F60E00E94C603812F902F61E00E94D0031F910F910895FF92B4
:200B20000F931F938C01F62E82E090E00E942A0CF8010081002311F483E102C0802F835FAD
:200B40006F2D0E94FD0C85E090E00E942A0C1F910F91FF9008950F931F93182F092F60E012
:200B60000E948F05812F902F61E00E94C603812F902F61E00E94D003812F902F61E00E94AD
:200B80008F05812F902F60E00E94D003812F902F60E00E948F05812F902F61E00E948F05D2
:200BA000812F902F61E00E94D003812F902F60E00E948F05812F902F0E94800510924701AB
:200BC0001F910F9108951F93CF93DF93EC018881882311F483E101C0835F61E00E94910C75
:200BE000CE0160E00E948F05CE0161E00E94C603CE0161E00E94D00310E0CE0161E00E940E
:200C00008F05CE0160E00E948F051F5F1930A9F7CE010E94AB05DF91CF911F910895DF92E5
:200C2000EF92FF920F931F93CF93DF93EC01D62EEE2480E8F82E00E010E0CE0161E00E9467
:200C40008F058881882311F482E101C08D5F0E94300D8111EF28CE0160E00E948F05F694E0
:200C60000F5F1F4F0830110541F71C2F0D2FCE0161E00E94C60360E0DD2009F461E0812FE5
:200C8000902F0E94D003CE0161E00E948F05CE0160E00E948F05CE010E948005E09100012D
:200CA000F09101018E2D09958E2DDF91CF911F910F91FF90EF90DF900895CF92DF92EF9210
:200CC000FF920F931F93CF93DF93EC01C62ED82EED2E61E00E94C60390E8F92E00E010E03E
:200CE0006F2D6C218D2D9E2D0E94D003CE0161E00E948F05CE0160E00E948F05F6940F5F4E
:200D00001F4F0830110561F7CE010E948005CE0161E00E948F058881882311F482E101C0A6
:200D20008D5F0E94300D182FCE0160E00E948F05E0910001F09101018C2D0995812FDF91F0
:200D4000CF911F910F91FF90EF90DF90CF900895EF92FF920F931F93CF93DF93EC01162FFE
:200D60007A010E94AB05112311F065E001C063E0CE010E945D0600E08881882311F482E158
:200D800001C08D5F0E94300D8823B9F5E12EFF24CE0161E00E940F06182F00E0EE0CFF1C39
:200DA000EC0EFD1EF70112830183CE0161E00E940F0690E0082B192BF7011283018380913D
:200DC0004701682F70E000E040E820E030E00695842F90E086239723892B09F000684695BB
:200DE0002F5F3F4F2830310591F7CE0160E00E940F06801791F480E014C0E114F10419F0B8
:200E0000F701099506C061E070E080E090E00E94040C0F5F0A3F09F0AFCFCE010E94E305DC
:200E200081E0DF91CF911F910F91FF90EF900895782F65B121E030E040E050E000900201D5
:200E400004C0220F331F441F551F0A94D2F7822F8095862385B99EBD0DB407FEFDCF8EB530
:200E60007EBD0DB407FEFDCF8EB585B1282B25B90895E8980E941807E89A089585B121E0C7
:200E800030E040E050E00090020104C0220F331F441F551F0A94D2F7322F922F90959823D8
:200EA00095B91EBC0DB407FEFDCF6EB51EBC0DB407FEFDCF2EB5962F80E0622F70E0682B6D
:200EC000792B77FF0FC080919B01873059F48CB581608CBD1EBC0DB407FEFDCF2EB58CB57D
:200EE0008E7F8CBD85B1382B35B97093490160934801809148019091490197FFF1C080916F
:200F00009B01873009F084C080919E01882371F490919C01992351F080919E01E82FF0E02F
:200F2000E35BFE4F90838F5F80939E0180919E01E82FF0E0E35BFE4F20838F5F80939E010E
:200F400080914B0190914C018227282F22952827022E269526952025022E2695202527700E
:200F6000082E892F269507942795902D8227069427959025822790934C0180934B01809177
:200F80004A01863098F5809148019091490190FF0CC080914A0190E0FC01EE0FFF1FE80FC8
:200FA000F91FEC5FFE4F80810BC080914A0190E0FC01EE0FFF1FE80FF91FEC5FFE4F818128
:200FC00080934A0180914A01863080F480914A0190E0FC01EE0FFF1FE80FF91FEC5FFE4FA2
:200FE000828190E0806A94690E94180780914F0120919E0190E0049630E0821793072CF0BC
:2010000080919E01873408F46BC08DE092E866C080919B0187FF2EC0E0914F0180919B01A2
:201020008F5F80939B018150ED5FE80FF0E0E35BFE4FE08180914B0190914C018E27282F6C
:2010400022952827022E269526952025022E269520252770082E892F269507942795902D1B
:201060008227069427959025822790934C0180934B0130C080919B018F5F80939B01815039
:20108000833019F184302CF4882399F0813009F516C08B3019F08C30E1F402C0EDE21AC046
:2010A000E0919C0190914F018EEF891B80939B0111C080914B0190914C01E82F0BC0809152
:2010C0004B0190914C01E92F05C08DE092E80E941807EAEA8E2F90E0805098440E94180763
:2010E000809148019091490196FF03C086E080939B0180914801909149018091480190917E
:20110000490195FF07C08DE092E80E94180784E080939B01089580919B01873009F042C073
:2011200080914F0120919E0190E0049630E08217930724F080919E018734A0F184E080932A
:201140009B0180914F01833430F081E090E090934C0180934B0180914E0186FF12C0809153
:201160009A01282F30E0C9018F7190704F9749F080914E0190E0822793278F719070892B9D
:2011800089F480914B0190914C01892B09F057C0E0919801F0919901309709F450C080E0EA
:2011A000099559C080919B01843011F080E0089510924F0180914F0180939E018FEF9FEF08
:2011C00090934C0180934B0120919C012223D9F08227282F22952827022E269526952025F3
:2011E000022E269520252770082E892F269507942795902D822706942795902582279093EB
:201200004C0180934B0187E080939B0183E080934A0180914A0190E0FC01EE0FFF1FE80F70
:20122000F91FEC5FFE4F828190E0806A94690E9418078DED92E80E94180780E008958FEFB3
:201240009FEFAFEFBFEF8093940190939501A0939601B093970181E0089580919B0187304C
:20126000A1F480919E01882381F41EBC0DB407FEFDCF0EB400FC09C08DE092E80E9418076E
:2012800084E080939B0181E0089580E00895982F86FD05C0907E80919A018F71980F9093AD
:2012A0004E01E0919801F0919901309711F081E009958FEF9FEF90934C0180934B01809107
:2012C0004B0190914C0120919C018227282F22952827022E269526952025022E26952025E5
:2012E0002770082E892F269507942795902D8227069427959025822790934C0180934B016E
:2013000088E080939B018DE392E80E9418070895282F16C02223A1F093B7233011F484E065
:2013200005C0223011F080E001C08CE0917F892B83BF83B7816083BF889583B78E7F83BFFF
:2013400080919B01843031F708951F93182F87FF03C08DE092E80EC0992787FD9095956E04
:201360000E94390785E092E80E943907112321F087E092E80E94390784E080939B011F91FF
:2013800008958091480190914901892F86958695817008951F93182F40934F0120E531E03D
:2013A000C90150E00E941911812F0E9447091F9108951F93122F0E94CA09812F0E9488092D
:2013C0001F91089525B181E090E0A0E0B0E00090020104C0880F991FAA1FBB1F0A94D2F759
:2013E000282B25B924B1822B84B98AE061E00E94FD0C8AE061E00E94910C8BE061E00E946F
:20140000910C8CE060E00E94910C8DE061E00E94910C80E58CBD8DB581608DBD82E060E09A
:201420000E94910C82E061E00E94FD0C08951F9380939A0140939C0160939D010E94E20994
:2014400080919A0190E08F719070892B41F080E06EE377E040E050E00E94F80A03C080E06C
:201460000E941B0B82E89AEC0E94180780E09EEF0E94180785E080939B0180919B018530CF
:20148000E1F3F89485E092E80E94180780919D0190E074E0880F991F7A95E1F7876C9068B8
:2014A0000E94180780E496EA0E94180786E096EC0E94180782EA94E90E9418078CEA92EC7F
:2014C0000E94180710919C01112341F083E89AEC0E941807812F90E09E6C06C08BE89AEC0D
:2014E0000E9418078DE29EEC0E94180783E894EC0E94180780E598E90E94180787E79CEC28
:201500000E94180780E090EE0E94180780E098EC0E94180789E490EC0E94180784E08093A5
:201520009B01789480919A011F910895FF920F931F93CF93DF93F82E0FEF1FEFC0E2D0E0CD
:20154000CE010E9429110827802F82958027082E869586958025082E869580258770002E18
:20156000012F869507948795102D082706948795102508272196C034D10511F7012B11F02D
:2015800080E030C010E000E0C0E0D0E0CE0180960E942911682FCC2311F4162F0CC0C1308D
:2015A00011F4062F08C0662351F0FF2021F084E392E00E94110F2196CE31D10539F7FF20B9
:2015C00021F084E392E00E94190F612F70E0E6E075956795EA95E1F7812F402F0E94170A72
:2015E000812F8F71DF91CF911F910F91FF900895823000F5E82FF0E0EE0FFF1FE156FE4FC2
:2016000071836083882319F08130A1F408C0809169008C7F842B80936900E89A0895809151
:201620006900440F551F440F551F837F842B80936900E99A0895823080F4882319F08130DB
:2016400021F402C0E89801C0E998E82FF0E0EE0FFF1FE156FE4F1182108208951F920F9257
:201660000FB60F9211242F933F934F935F936F937F938F939F93AF93BF93EF93FF93809146
:201680009F019091A001892B29F0E0919F01F091A0010995FF91EF91BF91AF919F918F915A
:2016A0007F916F915F914F913F912F910F900FBE0F901F9018951F920F920FB60F92112466
:2016C0002F933F934F935F936F937F938F939F93AF93BF93EF93FF938091A1019091A2011B
:2016E000892B29F0E091A101F091A2010995FF91EF91BF91AF919F918F917F916F915F9158
:201700004F913F912F910F900FBE0F901F9018951F920F920FB60F9211242F933F938F934F
:201720009F93AF93BF938091A7019091A801A091A901B091AA013091AB010196A11DB11D09
:20174000232F2D5F2D3720F02D570196A11DB11D2093AB018093A7019093A801A093A901CD
:20176000B093AA018091A3019091A401A091A501B091A6010196A11DB11D8093A301909344
:20178000A401A093A501B093A601BF91AF919F918F913F912F910F900FBE0F901F9018950A
:2017A0008FB7F8942091A7013091A8014091A9015091AA018FBFB901CA0108959FB7F8943B
:2017C0002091A3013091A4014091A5015091A60186B5A89B06C08F3F21F02F5F3F4F4F4F72
:2017E0005F4F9FBF542F432F322F2227280F311D411D511D82E0220F331F441F551F8A9512
:20180000D1F7B901CA010895EF92FF920F931F93CF93DF937B018C010E94DE0BEB010EC056
:201820000E94DE0B6C1B7D0B685E7340C8F30894E108F10801091109C851DC4FE114F1040A
:201840000105110569F7DF91CF911F910F91FF90EF900895019739F0880F991F880F991FE2
:2018600002970197F1F70895789484B5826084BD84B5816084BD85B5826085BD85B5816076
:2018800085BDEEE6F0E0808181608083E1E8F0E01082808182608083808181608083E0E8BF
:2018A000F0E0808181608083E1EBF0E0808184608083E0EBF0E0808181608083EAE7F0E0CE
:2018C0008081846080838081826080838081816080838081806880831092C1000895982FA2
:2018E0008E3008F09E509770809103018295880F880F807C892B80937C0080917A00806435
:2019000080937A0080917A0086FDFCCF2091780040917900942F80E030E0282B392BC9013A
:201920000895CF93DF93482F50E0CA0186569F4FFC0134914A575F4FFA018491882369F1D4
:2019400090E0880F991FFC01E859FF4FA591B491FC01EE58FF4FC591D491662351F42FB7C1
:20196000F8948C91932F909589238C93888189230BC0623061F42FB7F8948C91932F90952F
:2019800089238C938881832B88832FBF06C09FB7F8948C91832B8C939FBFDF91CF9108956F
:2019A000833071F0843028F48130A1F0823021F514C08630B1F08730D1F08430E9F404C041
:2019C000809180008F7703C0809180008F7D80938000089584B58F7702C084B58F7D84BD59
:2019E00008958091B0008F778093B00008958091B0008F7D8093B0000895FF920F931F9311
:201A0000F62E482F50E0CA0182559F4FFC012491CA0186569F4FFC0114914A575F4FFA0138
:201A200004910023C9F0222319F0822F0E94D00CE02FF0E0EE0FFF1FEE58FF4FA591B491AF
:201A40009FB7F894FF2021F48C911095812302C08C91812B8C939FBF1F910F91FF90089586
:201A60000F931F93482F50E0CA0182559F4FFC012491CA0186569F4FFC0104914A575F4FB3
:201A8000FA011491112319F420E030E015C0222319F0822F0E94D00C812F90E0880F991F94
:201AA00084589F4FFC01A591B4918C9120E030E0802311F021E030E0C9011F910F9108954B
:201AC00008951F920F920FB60F9211242F933F934F938F939F93EF93FF934091C600209156
:201AE000EC013091ED012F5F3F4F2F7330708091EE019091EF012817390759F0E091EC01B5
:201B0000F091ED01E455FE4F40833093ED012093EC01FF91EF919F918F914F913F912F91EC
:201B20000F900FBE0F901F901895E0914002F0914102E05CFF4F8191919120813181821B19
:201B4000930B8F739070892B11F00E94600D08951F920F920FB60F9211242F933F938F93E1
:201B60009F93EF93FF93209130023091310280913202909133022817390731F48091C10037
:201B80008F7D8093C10014C0E0913202F0913302E051FE4F208180913202909133020196E5
:201BA0008F73907090933302809332022093C600FF91EF919F918F913F912F910F900FBEAF
:201BC0000F901F901895DC011C96ED91FC911D97E05CFF4F2191319180819181281B390B24
:201BE0002F733070C9010895DC011C96ED91FC911D97E05CFF4F20813181E054F040DF01CD
:201C0000AE5BBF4F8D919C9111972817390719F42FEF3FEF07C08D919C91E80FF91F8081C0
:201C2000282F30E0C9010895DC011C96ED91FC911D97E05CFF4F20813181E054F040DF0167
:201C4000AE5BBF4F8D919C9111972817390719F42FEF3FEF10C08D919C911197E80FF91FD0
:201C600020818D919C91119701968F73907011969C938E9330E0C9010895FC0186859785A5
:201C8000DC01A05CBF4FFC01EE5BFF4F2D913C9111978081918128173907C1F70895CF934D
:201CA000DF93EC01EE85FF85E05CFF4F20813181E054F0402F5F3F4F2F733070DF01AE5B46
:201CC000BF4F8D919C91119728173907D1F3E05CFF4F80819181E054F040E80FF91F6083CD
:201CE000EE85FF85E05CFF4F31832083EE89FF89208181E090E00D8C02C0880F991F0A9453
:201D0000E2F7282B208381E090E0DF91CF910895109237021092360288EE93E0A0E0B0E008
:201D20008093380290933902A0933A02B0933B028AE191E090933502809334028CEA91E0A3
:201D4000909341028093400280EF91E0909343028093420285EC90E0909345028093440285
:201D600084EC90E0909347028093460280EC90E0909349028093480281EC90E090934B02C8
:201D800080934A0286EC90E090934D0280934C0284E080934E0283E080934F0287E0809327
:201DA000500285E08093510281E0809352020895CF93DF930E94340C0E945002C5E9DDE08C
:201DC0000E94E7002097E1F30E94950DF9CFCF92DF92EF92FF920F931F93CF93DF937C015A
:201DE0006B018A01C0E0D0E00FC0D6016D916D01D701ED91FC910190F081E02DC701099532
:201E0000C80FD91F015010400115110571F7CE01DF91CF911F910F91FF90EF90DF90CF90F3
:201E20000895DC01ED91FC910190F081E02D09950895EF92FF920F931F938C01DC01ED9185
:201E4000FC910190F081E02D6DE009957C01D801ED91FC910190F081E02DC8016AE00995DA
:201E60009C012E0D3F1DC9011F910F91FF90EF9008955058BB27AA270ED00DC1FED030F074
:201E800003D120F031F49F3F11F41EF4F3C00EF4E095E7FBE9C0E92F0FD180F3BA176207EA
:201EA00073078407950718F071F49EF527C10EF4E0950B2EBA2FA02D0B01B90190010C01CF
:201EC000CA01A0011124FF27591B99F0593F50F4503E68F11A16F040A22F232F342F44272A
:201EE000585FF3CF469537952795A795F0405395C9F77EF41F16BA0B620B730B840BBAF062
:201F00009150A1F0FF0FBB1F661F771F881FC2F70EC0BA0F621F731F841F48F4879577953B
:201F20006795B795F7959E3F08F0B3CF9395880F08F09927EE0F97958795089571D008F4E0
:201F400081E0089504D06894B111D9C00895BCD088F09F5790F0B92F9927B751A0F0D1F040
:201F6000660F771F881F991F1AF0BA95C9F712C0B13081F0C3D0B1E00895C0C0672F782F3C
:201F80008827B85F39F0B93FCCF3869577956795B395D9F73EF490958095709561957F4F2B
:201FA0008F4F9F4F0895E89409C097FB3EF490958095709561957F4F8F4F9F4F9923A9F08B
:201FC000F92F96E9BB279395F695879577956795B795F111F8CFFAF4BB0F11F460FF1BC095
:201FE0006F5F7F4F8F4F9F4F16C0882311F096E911C0772321F09EE8872F762F05C06623CD
:2020000071F096E8862F70E060E02AF09A95660F771F881FDAF7880F9695879597F90895C5
:20202000990F0008550FAA0BE0E8FEEF16161706E807F907C0F012161306E407F50798F08A
:20204000621B730B840B950B39F40A2661F0232B242B252B21F408950A2609F4A140A695C0
:202060008FEF811D811D089597F99F6780E870E060E008959FEF80EC089500240A94161659
:20208000170618060906089500240A9412161306140605060895092E0394000C11F488230A
:2020A00052F0BB0F40F4BF2B11F460FF04C06F5F7F4F8F4F9F4F089557FD9058440F551FC6
:2020C00059F05F3F71F04795880F97FB991F61F09F3F79F087950895121613061406551FDB
:2020E000F2CF4695F1DF08C0161617061806991FF1CF86957105610508940895E894BB273F
:2021000066277727CB0197F908958ADF08F48FEF08950BD0C0CFB1DF28F0B6DF18F09523B4
:2021200009F0A2CFA7CF1124EACFC6DFA0F3959FD1F3950F50E0551F629FF001729FBB2774
:20214000F00DB11D639FAA27F00DB11DAA1F649F6627B00DA11D661F829F2227B00DA11DD8
:20216000621F739FB00DA11D621F839FA00D611D221F749F3327A00D611D231F849F600DD8
:20218000211D822F762F6A2F11249F5750408AF0E1F088234AF0EE0FFF1FBB1F661F771F17
:2021A000881F91505040A9F79E3F510570F05CCFA6CF5F3FECF3983EDCF3869577956795EF
:2021C000B795F795E7959F5FC1F7FE2B880F911D9695879597F90895AA1BBB1B51E107C07F
:2021E000AA1FBB1FA617B70710F0A61BB70B881F991F5A95A9F780959095BC01CD010895EE
:2022000097FB092E07260AD077FD04D0E5DF06D000201AF4709561957F4F0895F6F7909566
:2022200081959F4F0895EE0FFF1F0590F491E02D0994FB01DC0102C001900D924150504032
:20224000D8F70895DC0101C06D9341505040E0F70895F999FECF92BD81BDF89A992780B56C
:202260000895F894FFCFD40402010908000200010B0A020501030D0C040E04050000000024
:202280004F0EE70EE30D140EF40D3D0EE5DF06D000201AF4709561957F4F0895F6F790954E
:2022A00081959F4F0895EE0FFF1F0590F491E02D0994FB01DC0102C001900D9241505040B2
:2022C000D8F70895DC0101C06D9341505040E0F70895F999FECF92BD81BDF89A992780B5EC
:2022E0000895F894FFCFD40402010908000200010B0A020501030D0C040E040500000000A4
:202300000E941E118C01C6010E948610080F191FC8011F910F91FF90EF90DF90CF9008957F
:202320000E94A6100895EF92FF920F931F937C010E94A6108C01C7010E948610080F191F91
:20234000C8011F910F91FF90EF9008955058BB27AA270ED00DC1FED030F003D120F031F4BB
:202360009F3F11F41EF4F3C00EF4E095E7FBE9C0E92F0FD180F3BA1762077307840795076D
:2023800018F071F49EF527C10EF4E0950B2EBA2FA02D0B01B90190010C01CA01A0011124EA
:2023A000FF27591B99F0593F50F4503E68F11A16F040A22F232F342F4427585FF3CF469592
:2023C00037952795A795F0405395C9F77EF41F16BA0B620B730B840BBAF09150A1F0FF0F51
:2023E000BB1F661F771F881FC2F70EC0BA0F621F731F841F48F4879577956795B795F79503
:202400009E3F08F0B3CF9395880F08F09927EE0F97958795089571D008F481E0089504D0FD
:202420006894B111D9C00895BCD088F09F5790F0B92F9927B751A0F0D1F0660F771F881F7B
:20244000991F1AF0BA95C9F712C0B13081F0C3D0B1E00895C0C0672F782F8827B85F39F01A
:20246000B93FCCF3869577956795B395D9F73EF490958095709561957F4F8F4F9F4F0895CC
:20248000E89409C097FB3EF490958095709561957F4F8F4F9F4F9923A9F0F92F96E9BB2786
:2024A0009395F695879577956795B795F111F8CFFAF4BB0F11F460FF1BC06F5F7F4F8F4FBF
:2024C0009F4F16C0882311F096E911C0772321F09EE8872F762F05C0662371F096E8862FCE
:2024E00070E060E02AF09A95660F771F881FDAF7880F9695879597F90895990F0008550F61
:20250000AA0BE0E8FEEF16161706E807F907C0F012161306E407F50798F0621B730B840B2F
:20252000950B39F40A2661F0232B242B252B21F408950A2609F4A140A6958FEF811D811DAB
:20254000089597F99F6780E870E060E008959FEF80EC089500240A941616170618060906E4
:20256000089500240A9412161306140605060895092E0394000C11F4882352F0BB0F40F42F
:20258000BF2B11F460FF04C06F5F7F4F8F4F9F4F089557FD9058440F551F59F05F3F71F0D9
:2025A0004795880F97FB991F61F09F3F79F087950895121613061406551FF2CF4695F1DFD2
:2025C00008C0161617061806991FF1CF86957105610508940895E894BB2766277727CB01CF
:2025E00097F908958ADF08F48FEF08950BD0C0CFB1DF28F0B6DF18F0952309F0A2CFA7CFE7
:202600001124EACFC6DFA0F3959FD1F3950F50E0551F629FF001729FBB27F00DB11D639FA2
:20262000AA27F00DB11DAA1F649F6627B00DA11D661F829F2227B00DA11D621F739FB00D70
:20264000A11D621F839FA00D611D221F749F3327A00D611D231F849F600D211D822F762FAF
:202660006A2F11249F5750408AF0E1F088234AF0EE0FFF1FBB1F661F771F881F91505040AE
:20268000A9F79E3F510570F05CCFA6CF5F3FECF3983EDCF3869577956795B795F795E795CE
:2026A0009F5FC1F7FE2B880F911D9695879597F90895629FD001739FF001829FE00DF11D91
:2026C000649FE00DF11D929FF00D839FF00D749FF00D659FF00D9927729FB00DE11DF91FFA
:2026E000639FB00DE11DF91FBD01CF0111240895AA1BBB1B51E107C0AA1FBB1FA617B707F3
:2027000010F0A61BB70B881F991F5A95A9F780959095BC01CD01089597FB092E07260AD016
:2027200077FD04D0E5DF06D000201AF4709561957F4F0895F6F7909581959F4F0895A1E2ED
:202740001A2EAA1BBB1BFD010DC0AA1FBB1FEE1FFF1FA217B307E407F50720F0A21BB30B18
:20276000E40BF50B661F771F881F991F1A9469F760957095809590959B01AC01BD01CF01D7
:202780000895EE0FFF1F0590F491E02D0994FB01DC0102C001900D9241505040D8F7089565
:2027A000DC0101C06D9341505040E0F70895F999FECF92BD81BDF89A992780B50895F8944A
:2027C000FFCF50495220002061636B2000206E6F2061636B2100524F4F4D2D4A204C696754
:2027E00068743D00204D6F7665643D002048756D693D002054656D703D00204C6F42617493
:202800003D0020566F6C746167653D000A5B726F6F6D4E6F64652E335D00BB050201090812
:20282000000200010B0A020501030D0C040E040500000000BC0F5410500F810F610FAA0FFA
:20284000FFCF50495220002061636B2000206E6F2061636B2100524F4F4D2D4A204C6967D3
:2028600068743D00204D6F7665643D002048756D693D002054656D703D00204C6F42617412
:20288000FFFFFFFFFFFFFFFFFFFFFFFFFFFFFFFFFFFFFFFFFFFFFFFFFFFFFFFFFFFFFFFF58
:2028A000FFFFFFFFFFFFFFFFFFFFFFFFFFFFFFFFFFFFFFFFFFFFFFFFFFFFFFFFFFFFFFFF38
:2028C000FFFFFFFFFFFFFFFFFFFFFFFFFFFFFFFFFFFFFFFFFFFFFFFFFFFFFFFFFFFFFFFF18
:2028E000FFFFFFFFFFFFFFFFFFFFFFFFFFFFFFFFFFFFFFFFFFFFFFFFFFFFFFFFFFFFFFFFF8
:207E000085E08093810082E08093C00088E18093C10086E08093C20080E18093C40084B749
:207E200014BE81FFD0D08EE0C8D0259A86E020E33CEF91E0309385002093840096BBB09B6B
:207E4000FECF1D9AA8958150A9F7DD24D394A5E0EA2EF1E1FF2EA4D0813421F481E0BED0BF
:207E600083E024C0823411F484E103C0853419F485E0B4D08AC08535A1F492D0082F10E007
:207E800010930102009300028BD090E0982F8827802B912B880F991F909301028093000275
:207EA00073C0863529F484E099D080E071D06DC0843609F043C07CD0E0910002F091010223
:207EC00083E080935700E895C0E0D1E069D08993809102028150809302028823B9F778D012
:207EE00007B600FCFDCF4091000250910102A0E0B1E02C9130E011968C91119790E0982FC5
:207F00008827822B932B1296FA010C01D0925700E89511244E5F5F4FF1E0A038BF0749F722
:207F2000E0910002F0910102E0925700E89507B600FCFDCFF0925700E89527C08437B9F4DA
:207F400037D046D0E0910002F09101023196F0930102E09300023197E4918E2F19D0809157
:207F60000202815080930202882361F70EC0853739F42ED08EE10CD085E90AD08FE096CFF6
:207F8000813511F488E019D023D080E101D063CF982F8091C00085FFFCCF9093C600089511
:207FA000A8958091C00087FFFCCF8091C6000895F7DFF6DF80930202F3CFE0E6F0E098E15B
:207FC00090838083089580E0F8DFEE27FF270994E7DF803209F0F7DF84E1DACF1F93182F91
:0C7FE000DFDF1150E9F7F4DF1F91089576
:00000001FF
