:100000000C9459020C94FD0F0C942A100C9481024C
:100010000C9481020C9481020C9481020C94810254
:100020000C9481020C9481020C9481020C94810244
:100030000C9481020C9481020C9481020C94810234
:100040000C9457100C9481020C941C120C94810295
:100050000C9481020C9481020C9481020C94810214
:100060000C9481020C9481020A417661696C616290
:100070006C6520636F6D6D616E64733A0A20203C7D
:100080006E6E3E206920202020202D207365742074
:100090006E6F646520494420287374616E646172D8
:1000A00064206E6F6465206964732061726520311D
:1000B0002E2E3236290A2020202020202020202009
:1000C0002020202020286F7220656E7465722061C8
:1000D0006E20757070657263617365202741272EED
:1000E0002E275A2720746F20736574206964290AAB
:1000F00020203C6E3E20622020202020202D2073D6
:100100006574204D487A2062616E64202834203D59
:10011000203433332C2038203D203836382C2039F9
:10012000203D20393135290A20203C6E6E6E3E205C
:1001300067202020202D20736574206E6574776FF2
:10014000726B2067726F7570202852464D313220D5
:100150006F6E6C7920616C6C6F7773203231322C4A
:100160002030203D20616E79290A20203C6E3E20FF
:10017000632020202020202D2073657420636F6C65
:100180006C656374206D6F64652028616476616EB0
:100190006365642C206E6F726D616C6C7920302900
:1001A0000A202074202020202020202020202D2004
:1001B00062726F616463617374206D61782D73691D
:1001C0007A652074657374207061636B65742C208C
:1001D000776974682061636B0A20202E2E2E2C3CD8
:1001E0006E6E3E2061202D2073656E642064617404
:1001F00061207061636B657420746F206E6F64653D
:10020000203C6E6E3E2C20776974682061636B0A17
:1002100020202E2E2E2C3C6E6E3E2073202D20731F
:10022000656E642064617461207061636B65742025
:10023000746F206E6F6465203C6E6E3E2C206E6F76
:100240002061636B0A20203C6E3E206C2020202021
:1002500020202D207475726E206163746976697434
:1002600079204C4544206F6E20504231206F6E2023
:100270006F72206F66660A20203C6E3E207120203F
:10028000202020202D2073657420717569657420ED
:100290006D6F6465202831203D20646F6E277420C7
:1002A0007265706F727420626164207061636B6547
:1002B0007473290A52656D6F746520636F6E747272
:1002C0006F6C20636F6D6D616E64733A0A20203C21
:1002D000686368693E2C3C68636C6F3E2C3C6164CB
:1002E00064723E2C3C636D643E20662020202020FA
:1002F0002D204653323020636F6D6D616E6420286F
:10030000383638204D487A290A20203C61646472CE
:100310003E2C3C6465763E2C3C6F6E3E206B20206C
:100320002020202020202020202020202D204B4174
:100330004B5520636F6D6D616E642028343333201C
:100340004D487A290A00466C6173682073746F7295
:1003500061676520284A65654C696E6B207632209E
:100360006F6E6C79293A0A202064202020202020FA
:10037000202020202020202020202020202020207D
:10038000202020202020202020202D2064756D702A
:1003900020616C6C206C6F67206D61726B6572738D
:1003A0000A20203C73683E2C3C736C3E2C3C74331A
:1003B0003E2C3C74323E2C3C74313E2C3C74303E1E
:1003C000207220202D207265706C61792066726F1A
:1003D0006D20737065636966696564206D61726B19
:1003E00065720A20203132332C3C6268693E2C3C15
:1003F000626C6F3E206520202020202020202020BD
:100400002020202020202D20657261736520344B30
:1004100020626C6F636B0A202031322C33342077DA
:1004200020202020202020202020202020202020CC
:10043000202020202020202020202D20776970657A
:1004400020656E7469726520666C617368206D65E5
:100450006D6F72790A0000000000240027002A0056
:1004600000000000250028002B00000000002300F1
:100470002600290004040404040404040202020205
:100480000202030303030303010204081020408057
:1004900001020408102001020408102000000007D7
:1004A000000201000003040600000000000000003C
:1004B000181311241FBECFEFD8E0DEBFCDBF11E06F
:1004C000A0E0B1E0EEE0FBE202C005900D92AA3B95
:1004D000B107D9F714E0AAEBB1E001C01D92AE3527
:1004E000B107E1F714E0C2EBD4E004C02297FE01AB
:1004F0000E948115C03BD107C9F70E9452130C948A
:1005000085150C940000FB01DC0102C001900D92E6
:1005100041505040D8F70895FB01DC010D900020B8
:10052000E9F7119701900D920020E1F70895FB0182
:10053000DC0101900D920020E1F7089525E0F89488
:1005400028982EBD0DB407FEFDCF9EB51EBC0DB480
:1005500007FEFDCF9EB5289A78949F3F11F090FD3D
:10056000EECFF89428988EBD0DB407FEFDCF8EB562
:1005700008951F93182F86E00E949E02289A78946F
:10058000812F0E949E021F910895DF92EF92FF92A9
:100590000F931F93CF93DF938C01D62E7A01E9013D
:1005A00083E00E949E021EBD0DB407FEFDCF8EB5F6
:1005B0000EBD0DB407FEFDCF8EB5DEBC0DB407FE3B
:1005C000FDCF8EB520E030E00BC01EBC0DB407FEA1
:1005D000FDCF8EB5F701E20FF11D80832F5F3F4FF6
:1005E0002C173D0790F3289A7894DF91CF911F91B3
:1005F0000F91FF90EF90DF9008950F931F93CF938B
:10060000DF938C01EB0182E00E94B9021EBD0DB4A4
:1006100007FEFDCF8EB50EBD0DB407FEFDCF8EB526
:100620001EBC0DB407FEFDCF8EB520E030E0FE010C
:10063000E20FF11D80818EBD0DB407FEFDCF8EB59A
:100640002F5F3F4F81E02030380789F7289A789450
:10065000DF91CF911F910F91089580E090E060E0CD
:1006600070E040E050E020E030E00E94C5020895D4
:100670001F93CF93DF93EC01FE0121961491112378
:1006800089F01A3039F48BE494E06DE040E050E0FA
:100690000E94AD148BE494E0612F40E050E00E9492
:1006A000AD14EACFDF91CF911F91089588E690E0D5
:1006B0000E9438038091640290916502892B21F099
:1006C00086E493E00E9438038BE494E060E071E0FC
:1006D0000E94FC1481E00E945A0F0895EF92FF924D
:1006E0000F931F938C017B0181E00E94E60DC801EE
:1006F0008A569F4F0E94061180E00E94E60DC701B6
:10070000885C90400E9406111F910F91FF90EF901E
:1007100008950F931F93CF93DF93EC016830A1F4FA
:100720009C01220F331F082E82958025082E869566
:1007300086958025C82FD0E02196D595C795C170A4
:10074000D070C22BD32B69E0262F30E021503040EF
:1007500081E090E0A0E0B0E004C0880F991FAA1FDC
:10076000BB1F2A95D2F78C010FC0C8018C239D2393
:10077000892B19F460E971E002C068E572E0CB01F1
:100780000E946E03169507950115110571F7DF910B
:10079000CF911F910F9108950F931F938C018BE4BC
:1007A00094E067E171E00E9490138BE494E0B8015B
:1007B0004AE050E00E94E31480E20E94B9021EBDAC
:1007C0000DB407FEFDCF8EB50EBD0DB407FEFDCFF7
:1007D0008EB51EBC0DB407FEFDCF8EB5289A789459
:1007E0000E942D031F910F91089560916603662367
:1007F00009F49CC020916402309165022F5F3F4F45
:100800008FE12030380710F020E032E030936502AD
:100810002093640282E02030380749F480915E031F
:1008200090915F03019690935F0380935E038FEF37
:100830009FEF9093650380936403E6E6F2E090E017
:100840004FEF5FEF7FEF961718F0983F08F4708333
:1008500081914827842F82958427082E8695869536
:100860008025082E869580258770042E452F869535
:1008700007948795502D482706948795502548273B
:100880009F5F9E3F01F75093650340936403C90146
:1008900066E672E00E94FD02109266030E942D033C
:1008A0008BE494E06DE171E00E949013609164022A
:1008B000709165028BE494E04AE050E00E9441149C
:1008C0008BE494E060E240E050E00E94AD1460915F
:1008D0005E0370915F038BE494E04AE050E00E9475
:1008E00041148BE494E060E240E050E00E94AD14DB
:1008F00040916003509161036091620370916303C2
:100900008BE494E02AE030E00E94071580916402B5
:1009100090916502882351F480509F4F2FE18030E1
:10092000920710F080E092E00E94CC0308950E94AC
:100930009F1028EE33E040E050E00E944215CA01CB
:10094000B90108950F931F93CF93DF93EC018B01AF
:100950006A30710540F0CB016AE070E00E942E150C
:10096000CE010E94A204DE010D900020E9F711974C
:10097000AC1BCA0FD11DC8016AE070E00E942E15A1
:10098000805D8883DF91CF911F910F9108951F9310
:10099000CF93DF93CDEBD1E08CE1FE0111928A95EC
:1009A000E9F7CE0163E271E00E9497021091BB016A
:1009B0001F71FE0101900020E9F7EE5BF140F0E0CD
:1009C000EC0FFD1F105C10831054CE0165E271E046
:1009D0000E948C02CE01612F70E00E94A2048091DF
:1009E000BB0185FF0BC0FE0101900020E9F7EE5B23
:1009F000F140F0E0EC0FFD1F8AE280838DEB91E087
:100A000068E271E00E948C026091BC018DEB91E084
:100A100070E00E94A2048DEB91E06BE271E00E9415
:100A20008C02E091BB01F0E066E0F595E7956A95F0
:100A3000E1F7EE0FFF1FE056FE4F608171818DEBF5
:100A400091E00E94A2048DEB91E06FE271E00E94C0
:100A50008C028FEF9FEF9093DA018093D901EBEB3B
:100A6000F1E021918091D9019091DA018227282F1C
:100A700022952827022E269526952025022E26959A
:100A800020252770082E892F269507942795902DCD
:100A9000822706942795902582279093DA018093E8
:100AA000D90181E0E93DF807E1F680E290E0FC0140
:100AB000E556FE4FE081F999FECF1FBA92BD81BD88
:100AC000E0BD0FB6F894FA9AF99A0FBE01968034F9
:100AD000910569F781E00E945A0F882331F48BE475
:100AE00094E065E371E00E94FC14DF91CF911F91C7
:100AF00008951F93182F89E061E00E944B1160E078
:100B0000112309F461E089E00E9471111F91089599
:100B10002F923F924F925F926F927F928F929F920D
:100B2000AF92BF92CF92DF92EF92FF920F931F93FB
:100B3000DF93CF93CDB7DEB764970FB6F894DEBFDF
:100B40000FBECDBF8BE494E00E94AA12892B09F45A
:100B500034C48BE494E00E94D512182F80538A305D
:100B600058F4809120022AE0829FC0011124805312
:100B7000810F8093200221C41C3289F490912102BC
:100B8000923450F4E92FF0E0EE5DFD4F80912002A9
:100B900080839F5F90932102109220020EC4812FC8
:100BA00081568A3108F0F7C38BE494E068E471E081
:100BB0000E949013609120028BE494E070E04AE080
:100BC00050E00E949A148BE494E0612F40E050E0E2
:100BD0000E941215193689F11A36B4F4143609F444
:100BE00035C1153644F4123679F113360CF04BC08A
:100BF000113601F569C0163609F47FC016360CF4BB
:100C000089C31736B9F43AC0123709F489C11337CA
:100C10004CF41C3609F46CC0113709F4ACC31B3614
:100C200049F4B2C01437E9F114370CF44DC017374A
:100C300009F485C30E945603A2C3909120029F71BC
:100C40008091BB01807E14C080912002883011F415
:100C500092E005C0893011F091E001C093E09093DB
:100C600020029295990F990F907C8091BB018F7310
:100C7000980F9093BB010E94C70481C3809120020A
:100C80008093BC01F8CF80912002882321F08091CD
:100C9000BB01806203C08091BB018F7D8093BB014B
:100CA000EACF81E68093DB0182E48093DC0110923D
:100CB000DD0180E090E0FC01E252FE4F808301966E
:100CC00082349105C1F75BC31093DB01409121028F
:100CD0004093DC01809120028093DD012EED31E014
:100CE000E2E2F2E0C901BF0150E00E94830247C383
:100CF000809120020E94790542C380E062E044EDC9
:100D00000E940A0E81E00E9479059091220280E003
:100D1000209123027C01E20EF11CB0902402C090CD
:100D20002002DF2C1B2D1C0D1A5F1E0D1F0D00E075
:100D300081E090E06DE00E9489038D2D90E068E0F5
:100D40000E948903C70168E00E9489038B2D90E00F
:100D500068E00E9489038C2D90E068E00E9489037E
:100D6000812F90E068E00E94890380E090E061E0DC
:100D70000E9489036AE070E080E090E00E94AD107C
:100D80000F5F0330A9F65BC080E061E044ED0E9494
:100D90000A0E81E00E94790580912302082F10E05D
:100DA0000150104024E0000F111F2A95E1F7166052
:100DB00080912202992787FD909501978F709070FE
:100DC000082B192B8091200281111860DD249CEDE5
:100DD000A92E95E0B92E30C087E791E065E674E072
:100DE0000E946E03C8010E2C02C0959587950A9447
:100DF000E2F780FD03C087E791E002C085E694E05A
:100E0000B501681B790B0E946E030894E11CF11C6C
:100E10002CE0E216F10401F787E791E067E771E063
:100E20000E946E036BE070E080E090E00E94AD10E5
:100E3000D39484E0D81619F0EE24FF24CDCF80E0BF
:100E40000E94790581E00E945A0F99C28091640244
:100E500090916502892B09F492C28BE494E00E9480
:100E6000D51297FFFACF00E012E08DE0E82EF12CCA
:100E7000EC0EFD1E8BE494E00E94D51297FF7FC21A
:100E8000C80168EF70E0A70128E030E00E94C502C9
:100E90008D859E858F5F9F4FD9F18BE494E06BE445
:100EA00071E00E9490138BE494E0B8014AE050E0B6
:100EB0000E9441148BE494E061E571E00E9490137C
:100EC0006D857E858BE494E04AE050E00E944114F9
:100ED0008BE494E060E240E050E00E94AD144F8566
:100EE000588969897A898BE494E02AE030E00E948D
:100EF00064148BE494E060E240E050E00E94AD14A2
:100F00006B897C898BE494E04AE050E00E94E31412
:100F10000F5F1F4FBFE100301B0709F0ABCF2FC29F
:100F20008091640290916502892B09F428C2909106
:100F3000220280E0892B19F480912302811181E043
:100F4000282E33249091240280E0892B11F031E087
:100F500005C080912502811181E0382F90912602F1
:100F600080E0892B11F021E005C0809120028111E1
:100F700081E0282F832F90E0A0E0B0E0DC019927EA
:100F80008827E22EFF2400E010E0E82AF92A0A2B45
:100F90001B2BC12CA2E0DA2EAA24AA94BA2C8824F6
:100FA0009924F7E06F2E712C6C0E7D1E2E01089493
:100FB000411C511CC60168EF70E0A30126E030E03F
:100FC0000E94C5022F813885EFEF2F3F3E07E9F0E1
:100FD0002215330568F02A153B0550F4D201F301C0
:100FE00086E001900D928150E1F7A980BA80460118
:100FF0002A153B0551F489859A85AB85BC85E81691
:10100000F9060A071B070CF046010894C11CD11C05
:10101000F0E0CF16FFE1DF0669F68BE494E065E5CA
:1010200071E00E9490138BE494E0B4014AE050E038
:101030000E9441148BE494E060E240E050E00E94A2
:10104000AD1460916402709165028BE494E04AE013
:1010500050E00E94E3148BE494E00E94D51297FFC5
:10106000FACFC0905E03D0905F0310C18BE494E090
:101070000E94D51297FF12C10894811C911C20E098
:1010800082162FE1920618F0812CE2E09E2EC40118
:1010900060E070E046E652E020E031E00E94C502E8
:1010A00080915E0390915F038F5F9F4F09F4EEC0C4
:1010B000E6E6F2E00FEF1FEF81910827802F82957F
:1010C0008027082E869586958025082E8695802572
:1010D0008770002E012F869507948795102D08277D
:1010E0000694879510250827B3E0E636FB0721F71D
:1010F0000115110511F410E08BC08BE494E06EE54E
:1011000071E00E9490138BE494E0B4014AE050E057
:101110000E9441148BE494E060E240E050E00E94C1
:10112000AD148BE494E0B8014AE050E00E94E3146F
:10113000ADC08BE494E00E94AA12892B09F073C021
:101140008BE494E065E671E00E94901360915E0389
:1011500070915F038BE494E04AE050E00E944114F8
:101160008BE494E060E240E050E00E94AD14012F77
:101170000F5FF7018081409160035091610360919E
:10118000620370916303480F511D611D711D8BE453
:1011900094E02AE030E00E9464148BE494E060E282
:1011A00040E050E00E94AD141E5FE02FF0E0EA59ED
:1011B000FD4F60818BE494E070E04AE050E00E94D3
:1011C0009A14E12FF0E0EA59FD4FE0801F5FF12E05
:1011D0000E2D15C08BE494E060E240E050E00E94E8
:1011E000AD14EF2DF0E0EA59FD4F6081F3948BE4EC
:1011F00094E070E04AE050E00E949A14015000230D
:1012000049F71E0D8BE494E00E94C114183F58F476
:10121000E12EFF2486E692E0E80EF91ED7018C91BC
:101220008F3F09F086CF8BE494E068E671E00E947E
:1012300090138BE494E0B4014AE050E00E94411422
:101240008BE494E060E240E050E00E94AD146091D5
:101250005E0370915F038BE494E04AE050E00E94EB
:1012600041148BE494E060E240E050E00E94AD1451
:101270004091600350916103609162037091630338
:101280008BE494E02AE030E00E940715809164022C
:10129000909165028816990609F0E8CE10926603CF
:1012A0000894C11CD11CD0925F03C0925E038BE4F2
:1012B00094E067E171E00E94901360916402709184
:1012C00065028BE494E04AE050E00E9441148BE414
:1012D00094E060E240E050E00E94AD1460915E0353
:1012E00070915F038BE494E04AE050E00E94411467
:1012F0008BE494E060E240E050E00E94AD140E9474
:101300009F10AB01BC018BE494E02AE030E00E9426
:10131000D81435C08091640290916502892B79F1CF
:10132000809122028B3759F59091230280E0209121
:10133000200230E0822B932B0E94CC0320C08091AE
:10134000640290916502892BD1F0809122028C3049
:10135000B1F480912002823291F48BE494E06EE645
:1013600071E00E94FC1480E60E94B902289A7894E9
:101370000E942D0304C0809120028093BA01109234
:1013800021021092200282E4E2E2F2E0DF011D92EB
:101390008A95E9F712C0812F81548A3150F41F7168
:1013A0008091BB01807E810F8093BB010E94C704A6
:1013B00004C0113214F00E9456030E94E10C8823ED
:1013C00009F4EDC0F0906B0380916703909168037E
:1013D000892B39F48BE494E063E771E00E94901369
:1013E00010C08091BA01882309F011C18BE494E008
:1013F00066E771E00E949013B4E1BF1510F474E148
:10140000F72E8091BC01882379F48BE494E069E79E
:1014100071E00E949013609169038BE494E070E0A6
:101420004AE050E00E949A148BE494E060E240E0CD
:1014300050E00E94AD1460916A038BE494E070E088
:101440004AE050E00E949A1400E010E014C08BE4DF
:1014500094E060E240E050E00E94AD14F801E459ED
:10146000FC4F60818BE494E070E04AE050E00E9421
:101470009A140F5F1F4F0F1550F38BE494E00E94F6
:10148000C1148091670390916803892B09F087C08C
:1014900081E00E9479058091640290916502892B18
:1014A00009F459C010916B031E5F80916603882375
:1014B00051F40E94970460936003709361038093DA
:1014C0006203909363030E949704AB01BC01809177
:1014D000600390916103A0916203B0916303481B84
:1014E000590B6A0B7B0B4F3F5105610571054CF49D
:1014F0008091660390E00196810F911D893F9105CF
:1015000080F00E94F5030E9497046093600370933B
:101510006103809362039093630340E050E060E0D6
:1015200070E020916603E22FF0E0EA59FD4F40831E
:101530002F5F2093660330E02A593D4F4AE653E07F
:10154000C901BA01412F50E00E94830280916603D5
:10155000810F8093660380916A0385FF1DC080918F
:101560006A0387FD19C08091BB0185FD15C08BE41E
:1015700094E06CE771E00E94FC1480916A0386FF9E
:1015800002C080E804C080916A038F71806C60E0C3
:1015900070E040E00E94FB0D80E00E9479058091A0
:1015A000DB018823A1F10E94730D882381F181E082
:1015B0000E9479058BE494E064E871E00E94901346
:1015C0006091DC018BE494E070E04AE050E00E941E
:1015D0009A148BE494E069E871E00E94FC14809115
:1015E000DB01813611F080E001C080E29091DD01E5
:1015F000992311F09064892B6EED71E04091DC012C
:101600000E94FB0D1092DB0180E00E947905649638
:101610000FB6F894DEBF0FBECDBFCF91DF911F9103
:101620000F91FF90EF90DF90CF90BF90AF909F9081
:101630008F907F906F905F904F903F902F90089584
:10164000CF92DF92EF92FF920F931F93DF93CF938E
:1016500000D0CDB7DEB78BE494E040E051EE60E01F
:1016600070E00E944D128BE494E06CE871E00E94FF
:10167000901381E00E945A0F8823A9F0F999FECFB8
:1016800080E290E092BD81BDF89A80B58093BB0165
:10169000F999FECF81E290E092BD81BDF89A80B5C4
:1016A0008093BC0108C081E48093BB0184ED8093EA
:1016B000BC010E94C704289A88E061E00E944B1197
:1016C0008FE90E949E021EBC0DB407FEFDCF3EB501
:1016D0001EBC0DB407FEFDCF2EB5932F80E0289AD7
:1016E000789430E0822B932B8052904209F065C0B1
:1016F00081E00E94B9021EBC0DB407FEFDCF8EB57D
:10170000289A789410925F0310925E038FEF9EE107
:10171000909365028093640200E012E03FEFE32EB5
:101720003EE1F32E6E010894C11CD11CC80168EF84
:1017300070E0A60122E030E00E94C50289819A8112
:101740002FEF8F3F920739F0019690935F038093BC
:101750005E03780105C0C8010197E816F90631F06B
:101760000F5F1F4F8FE10030180701F7F0926502FD
:10177000E09264028BE494E06AE971E00E949013C5
:1017800060916402709165028BE494E04AE050E05D
:101790000E9441148BE494E060E240E050E00E943B
:1017A000AD1460915E0370915F038BE494E04AE0B6
:1017B00050E00E94E3140E94F5030E9456030F902C
:1017C0000F90CF91DF911F910F91FF90EF90DF90DD
:1017D000CF9008952A981EBC0DB407FEFDCF8EB59C
:1017E0001EBC0DB407FEFDCF8EB52A9A8091B703BB
:1017F000853009F068C02A9880EB8EBD0DB407FED5
:10180000FDCF3EB51EBC0DB407FEFDCF2EB580E06A
:101810002A9A282B8091B903882371F49091B803F8
:10182000992351F08091B903E82FF0E0E759FC4F7C
:1018300090838F5F8093B9038091B903E82FF0E024
:10184000E759FC4F20838F5F8093B9038091670332
:10185000909168038227282F22952827022E26950B
:1018600026952025022E269520252770082E892FC3
:10187000269507942795902D8227069427959025E5
:101880008227909368038093670380916B03209174
:10189000B90390E0049630E0821793072CF0809112
:1018A000B903873408F48CC02A9882E88EBD0DB441
:1018B00007FEFDCF8EB58DE08EBD0DB407FEFDCFCA
:1018C0008EB52A9A08958091B70387FF2EC0E091C4
:1018D0006B038091B7038F5F8093B7038150ED5FF7
:1018E000E80FF0E0E759FC4FE081809167039091A9
:1018F00068038E27282F22952827022E26952695C5
:101900002025022E269520252770082E892F269522
:1019100007942795902D8227069427959025822756
:1019200090936803809367033AC08091B7038F5FF9
:101930008093B7038150833019F184302CF48823CD
:1019400099F0813059F516C0893019F08A3031F597
:1019500002C0EDE224C0E091690390916B038EEF29
:10196000891B8093B7031BC0809167039091680324
:10197000E82F15C08091670390916803E92F0FC08D
:101980002A9882E88EBD0DB407FEFDCF8EB58DE09E
:101990008EBD0DB407FEFDCF8EB52A9AEAEA2A98CD
:1019A00088EB8EBD0DB407FEFDCF8EB58E2F90E077
:1019B000805098448EBD0DB407FEFDCF8EB52A9A97
:1019C00008958091B7038530E1F580916B032091F4
:1019D000B90390E0049630E08217930724F08091D9
:1019E000B903873470F184E08093B70380916B036F
:1019F000833430F081E090E0909368038093670334
:101A000080916A0386FF0CC020916A038091B6031F
:101A100090E030E0822793278F719070892B89F4B2
:101A20008091670390916803892B09F04EC0E09183
:101A3000B403F091B503309709F447C080E00995ED
:101A400050C08091B703843011F080E00895109267
:101A50006B0380916B038093B9038FEF9FEF90939B
:101A60006803809367032091B8032223D9F082276B
:101A7000282F22952827022E269526952025022EEE
:101A8000269520252770082E892F269507942795BF
:101A9000902D82270694279590258227909368039E
:101AA0008093670385E08093B7032A9882E88EBD10
:101AB0000DB407FEFDCF8EB58DED8EBD0DB407FEC6
:101AC000FDCF8EB52A9A80E008958FEF9FEFAFEF9C
:101AD000BFEF8093B0039093B103A093B203B09390
:101AE000B30381E008958091B703853011F58091AB
:101AF000B9038823F1F41EBC0DB407FEFDCF0EB46C
:101B000000FC17C02A9882E88EBD0DB407FEFDCFF9
:101B10008EB58DE08EBD0DB407FEFDCF8EB52A9A31
:101B200084E08093B7038091B8038093690381E0D8
:101B3000089580E00895982F86FD05C0907E8091DD
:101B4000B6038F71980F90936A03E091B403F091FC
:101B5000B503309711F081E009958FEF9FEF9093D7
:101B600068038093670380916703909168032091D5
:101B700069038227282F22952827022E269526954D
:101B80002025022E269520252770082E892F2695A0
:101B900007942795902D82270694279590258227D4
:101BA000909368038093670386E08093B7032A9835
:101BB00082E88EBD0DB407FEFDCF8EB58DE38EBDE0
:101BC0000DB407FEFDCF8EB52A9A0895882319F427
:101BD0002DE032E802C02DE332E82A9882E88EBD7B
:101BE0000DB407FEFDCF8EB52EBD0DB407FEFDCFA3
:101BF0008EB52A9A08951F93182F40936B032CE6F5
:101C000033E0C90150E00E948302812F0E949B0DA6
:101C10001F9108951F93162F8093B6034093B80326
:101C20008AE061E00E9471118AE061E00E944B113C
:101C30008BE061E00E944B118CE060E00E944B1150
:101C40008DE061E00E944B1181E58CBD8DB5816016
:101C50008DBD82E060E00E944B1182E061E00E9455
:101C600071112A981EBC0DB407FEFDCF8EB51EBCA7
:101C70000DB407FEFDCF8EB52A9A2A9882E88EBD54
:101C80000DB407FEFDCF8EB585E08EBD0DB407FE09
:101C9000FDCF8EB52A9A2A9888EB8EBD0DB407FE2B
:101CA000FDCF8EB51EBC0DB407FEFDCF0AC02A982D
:101CB0001EBC0DB407FEFDCF8EB51EBC0DB407FED5
:101CC000FDCF8EB52A9A82E00E94C911892B79F343
:101CD000612F70E0E4E0660F771FEA95E1F7676C2B
:101CE00070682A987EBD0DB407FEFDCF8EB56EBD1F
:101CF0000DB407FEFDCF8EB52A9A2A9886EA8EBDCE
:101D00000DB407FEFDCF8EB580E48EBD0DB407FE89
:101D1000FDCF8EB52A9A2A9886EC8EBD0DB407FEAB
:101D2000FDCF8EB586E08EBD0DB407FEFDCF8EB51E
:101D30002A9A2A9884E98EBD0DB407FEFDCF8EB590
:101D400082EA8EBD0DB407FEFDCF8EB52A9A2A9881
:101D500082EC8EBD0DB407FEFDCF8EB58CEA8EBD34
:101D60000DB407FEFDCF8EB52A9A9091B803992342
:101D7000E1F02A988AEC8EBD0DB407FEFDCF8EB53A
:101D800083E88EBD0DB407FEFDCF8EB52A9A892F4C
:101D900090E09E6C2A989EBD0DB407FEFDCF2EB537
:101DA0008EBD0DB407FEFDCF1AC02A988AEC8EBDF9
:101DB0000DB407FEFDCF8EB58BE88EBD0DB407FECA
:101DC000FDCF8EB52A9A2A988EEC8EBD0DB407FEF3
:101DD000FDCF8EB58DE28EBD0DB407FEFDCF8EB565
:101DE0002A9A2A9884EC8EBD0DB407FEFDCF8EB5DD
:101DF00083E88EBD0DB407FEFDCF8EB52A9A2A98D2
:101E000088E98EBD0DB407FEFDCF8EB580E58EBD91
:101E10000DB407FEFDCF8EB52A9A2A988CEC8EBDA4
:101E20000DB407FEFDCF8EB587E78EBD0DB407FE5E
:101E3000FDCF8EB52A9A2A9880EE8EBD0DB407FE8E
:101E4000FDCF8EB51EBC0DB407FEFDCF8EB52A9A10
:101E50002A9888EC8EBD0DB407FEFDCF8EB51EBC52
:101E60000DB407FEFDCF8EB52A9A2A9880EC8EBD60
:101E70000DB407FEFDCF8EB589E48EBD0DB407FE0F
:101E8000FDCF8EB52A9A84E08093B7038091B60384
:101E900090E08F719070892B41F080E06AEE7BE0DA
:101EA00040E050E00E94C70F03C080E00E94EA0FAC
:101EB0001F910895EF92FF920F931F93CF93DF939B
:101EC000E82E4FEF5FEF20E230E0F999FECF32BD10
:101ED00021BDF89A80B54827842F82958427082E43
:101EE000869586958025082E869580258770042EF8
:101EF000452F869507948795502D482706948795FA
:101F0000502548272F5F3F4F2034310509F0DDCFA2
:101F1000452B11F080E034C000E0FF2410E0C0E267
:101F2000D0E0F999FECFD2BDC1BDF89A60B51123BA
:101F300011F4062F0EC0113011F4F62E0AC06623DC
:101F400061F0EE2031F08BE494E040E050E00E943C
:101F500052141F5F21961E3121F7EE2021F08BE4F1
:101F600094E00E94C114602F70E0F6E075956795CB
:101F7000FA95E1F7802F4F2D0E940A0E802F8F7166
:101F8000DF91CF911F910F91FF90EF9008958230D4
:101F900000F5E82FF0E0EE0FFF1FE654FC4F7183D1
:101FA0006083882319F08130A1F408C08091690012
:101FB0008C7F842B80936900E89A08958091690052
:101FC000440F551F440F551F837F842B8093690056
:101FD000E99A0895823080F4882319F0813021F441
:101FE00002C0E89801C0E998E82FF0E0EE0FFF1F6B
:101FF000E654FC4F1182108208951F920F920FB683
:102000000F9211242F933F934F935F936F937F937E
:102010008F939F93AF93BF93EF93FF938091BA03F6
:102020009091BB03892B29F0E091BA03F091BB0397
:102030000995FF91EF91BF91AF919F918F917F9102
:102040006F915F914F913F912F910F900FBE0F9025
:102050001F9018951F920F920FB60F9211242F9375
:102060003F934F935F936F937F938F939F93AF9320
:10207000BF93EF93FF938091BC039091BD03892B95
:1020800029F0E091BC03F091BD030995FF91EF9118
:10209000BF91AF919F918F917F916F915F914F9180
:1020A0003F912F910F900FBE0F901F9018951F9288
:1020B0000F920FB60F9211242F933F938F939F93FC
:1020C000AF93BF938091C2039091C303A091C403C7
:1020D000B091C5033091C6030196A11DB11D232FF8
:1020E0002D5F2D3720F02D570196A11DB11D209396
:1020F000C6038093C2039093C303A093C403B09319
:10210000C5038091BE039091BF03A091C003B0911D
:10211000C1030196A11DB11D8093BE039093BF031F
:10212000A093C003B093C103BF91AF919F918F91D2
:102130003F912F910F900FBE0F901F9018958FB762
:10214000F8942091C2033091C3034091C40350918D
:10215000C5038FBFB901CA0108959B01AC017FB7C8
:10216000F8948091BE039091BF03A091C003B091F9
:10217000C10366B5A89B05C06F3F19F00196A11D6C
:10218000B11D7FBFBA2FA92F982F8827860F911DC9
:10219000A11DB11D62E0880F991FAA1FBB1F6A9580
:1021A000D1F7BC012DC0FFB7F8948091BE03909188
:1021B000BF03A091C003B091C103E6B5A89B05C0C1
:1021C000EF3F19F00196A11DB11DFFBFBA2FA92F36
:1021D000982F88278E0F911DA11DB11DE2E0880F59
:1021E000991FAA1FBB1FEA95D1F7861B970B885E24
:1021F0009340C8F2215030404040504068517C4FDD
:10220000211531054105510571F60895019739F001
:10221000880F991F880F991F02970197F1F708956A
:10222000789484B5826084BD84B5816084BD85B5B1
:10223000826085BD85B5816085BDEEE6F0E0808178
:1022400081608083E1E8F0E0108280818260808399
:10225000808181608083E0E8F0E08081816080831C
:10226000E1EBF0E0808184608083E0EBF0E080814E
:1022700081608083EAE7F0E08081846080838081F0
:102280008260808380818160808380818068808398
:102290001092C1000895482F50E0CA0188579B4F03
:1022A000FC0124914C585B4FFA0184918823C1F0C2
:1022B000E82FF0E0EE0FFF1FEA5AFB4FA591B49113
:1022C000662341F49FB7F8948C91209582238C93D8
:1022D0009FBF08959FB7F8948C91822B8C939FBFDA
:1022E0000895482F50E0CA0184569B4FFC01249169
:1022F000CA0188579B4FFC0134914C585B4FFA013F
:102300009491992309F444C0222351F1233071F0B0
:10231000243028F42130A1F0223011F514C02630E9
:10232000B1F02730C1F02430D9F404C0809180008E
:102330008F7703C0809180008F7D8093800010C0D4
:1023400084B58F7702C084B58F7D84BD09C080912C
:10235000B0008F7703C08091B0008F7D8093B00074
:10236000E92FF0E0EE0FFF1FE05AFB4FA591B4916B
:10237000662341F49FB7F8948C91309583238C9316
:102380009FBF08959FB7F8948C91832B8C939FBF28
:102390000895682F70E0CB0184569B4FFC01249177
:1023A000CB0188579B4FFC0144916C587B4FFB013C
:1023B0009491992319F420E030E03CC0222351F19C
:1023C000233071F0243028F42130A1F0223011F5AF
:1023D00014C02630B1F02730C1F02430D9F404C045
:1023E000809180008F7703C0809180008F7D8093E3
:1023F000800010C084B58F7702C084B58F7D84BD06
:1024000009C08091B0008F7703C08091B0008F7DAC
:102410008093B000892F90E0880F991F86599B4FB9
:10242000FC01A591B4918C9120E030E0842311F05F
:1024300021E030E0C90108951F920F920FB60F926C
:1024400011242F933F934F938F939F93EF93FF9379
:102450004091C600E0914704F091480431969F01F5
:102460002F77307031978091490490914A04281752
:10247000390739F0E953FC4F4083309348042093E7
:102480004704FF91EF919F918F914F913F912F9131
:102490000F900FBE0F901F901895CF93DF93EC0114
:1024A0009A01AB01E885F985203081EE380780E09C
:1024B000480780E0580709F449C081E090E00A88A5
:1024C00002C0880F991F0A94E2F7808360E079E0E8
:1024D0008DE390E00E946415215030404040504010
:1024E000CA01B90122E030E040E050E00E946415EA
:1024F000EC81FD813083EE81FF812083EA85FB85BD
:10250000208141E050E0CA010E8402C0880F991F6B
:102510000A94E2F7282B2083EA85FB852081CA01F3
:102520000F8402C0880F991F0A94E2F7282B20839A
:10253000EA85FB858081088802C0440F551F0A94F4
:10254000E2F7842B8083DF91CF910895108220E100
:1025500030E0CECFDC011296ED91FC911397E0585C
:10256000FF4F2191319180819181281B390B2F7769
:102570003070C9010895DC011296ED91FC9113971A
:10258000EE57FF4F2081318192918291E058F040C7
:102590008217930719F42FEF3FEF05C0E20FF31FE7
:1025A0008081282F30E0C9010895DC011296ED9159
:1025B000FC911397DF01AE57BF4F2D913C911197BE
:1025C000E058FF4F80819181E058F04082179307D7
:1025D00019F42FEF3FEF0BC0E20FF31F80812F5F45
:1025E0003F4F2F7730702D933C93282F30E0C90157
:1025F0000895DC011296ED91FC911397EE57FF4F71
:1026000080819181929382930895FC01A085B18588
:1026100021898C9190E0022E02C0959587950A94AD
:10262000E2F780FFF6CF0484F585E02D60830895FE
:102630008CEA91E090934C0480934B0487EC93E0F8
:1026400090934E0480934D0485EC90E09093500459
:1026500080934F0484EC90E0909352048093510453
:1026600080EC90E0909354048093530481EC90E0CC
:10267000909356048093550486EC90E09093580410
:102680008093570484E08093590483E080935A0434
:1026900087E080935B0485E080935C0481E0809315
:1026A0005D0408950E9410110E94200B0E9488056D
:1026B000FDCF0F931F93CF93DF938C01EB0109C0E4
:1026C0002196D801ED91FC910190F081E02DC80197
:1026D000099568816623A1F7DF91CF911F910F9132
:1026E0000895EF92FF920F931F93CF93DF938C0186
:1026F0007B01EA010CC0D7016D917D01D801ED91FC
:10270000FC910190F081E02DC80109952197209757
:1027100091F7DF91CF911F910F91FF90EF90089566
:10272000DC01ED91FC910280F381E02D0995089583
:102730002F923F924F925F926F927F928F929F92D1
:10274000AF92BF92CF92DF92EF92FF920F931F93BF
:10275000DF93CF93CDB7DEB7A0970FB6F894DEBF67
:102760000FBECDBF1C016A017B01411551056105FA
:10277000710549F440E350E060E070E020E030E0B3
:102780000E94641456C0882499245401422E552472
:102790006624772401E010E00C0F1D1F080D191DA1
:1027A000C701B601A30192010E944215F80160839E
:1027B0000894811C911CA11CB11CC701B601A30186
:1027C00092010E944215C901DA016C017D01C11418
:1027D000D104E104F104F1F681E0E82EF12CEC0ED5
:1027E000FD1EE80CF91C3E010894611C711CD5010A
:1027F000C4010197A109B1096C01C818D90816C014
:10280000F601EE0DFF1D40814A3010F4405D01C01D
:10281000495C552747FD5095652F752FC10120E074
:1028200030E00E9464140894E108F1086E147F04FB
:1028300039F7A0960FB6F894DEBF0FBECDBFCF918B
:10284000DF911F910F91FF90EF90DF90CF90BF909D
:10285000AF909F908F907F906F905F904F903F9040
:102860002F900895DC012115310541F4ED91FC9183
:102870000190F081E02D642F099508950E9498132E
:102880000895EF92FF920F931F939A017B0100E04E
:1028900010E0B801A7010E9432141F910F91FF9020
:1028A000EF900895EF92FF920F931F939A01E62EF7
:1028B000FF2400E010E0B801A7010E9432141F912C
:1028C0000F91FF90EF900895EF92FF920F931F9357
:1028D000CF93DF93EC017A018B012115310541F48F
:1028E000E881F9810190F081E02D642F09951BC0EA
:1028F0002A303105B1F477FF10C04DE250E060E0BE
:1029000070E020E030E00E94641410950095F0948F
:10291000E094E11CF11C011D111DCE01B801A701BD
:102920002AE00E949813DF91CF911F910F91FF90A1
:10293000EF900895EF92FF920F931F937B019A01FE
:102940000027F7FC0095102FB801A7010E9464141E
:102950001F910F91FF90EF900895EF92FF920F93C8
:102960001F93E62E9A01FF24E7FCF0940F2D1F2DF4
:10297000B801A7010E9464141F910F91FF90EF907E
:1029800008950F931F938C014DE050E060E070E0DC
:1029900020E030E00E946414C8014AE050E060E0AA
:1029A00070E020E030E00E9464141F910F910895C0
:1029B0000F931F938C010E943214C8010E94C1140E
:1029C0001F910F910895CF92DF92EF92FF920F9394
:1029D0001F938C019A016B01EE24FF24B701A6011D
:1029E0000E943214C8010E94C1141F910F91FF90E0
:1029F000EF90DF90CF9008950F931F938C010E946A
:102A00009013C8010E94C1141F910F9108950F9354
:102A10001F938C010E946414C8010E94C1141F916D
:102A20000F910895CF92DF92EF92FF920F931F9331
:102A30008C01C62E9A01DD24C7FCD094ED2CFD2C10
:102A4000B701A6010E946414C8010E94C1141F911D
:102A50000F91FF90EF90DF90CF900895AA1BBB1BC2
:102A600051E107C0AA1FBB1FA617B70710F0A61B8E
:102A7000B70B881F991F5A95A9F780959095BC01AF
:102A8000CD010895A1E21A2EAA1BBB1BFD010DC0AA
:102A9000AA1FBB1FEE1FFF1FA217B307E407F5070E
:102AA00020F0A21BB30BE40BF50B661F771F881FEA
:102AB000991F1A9469F760957095809590959B0180
:102AC000AC01BD01CF01089597FB092E05260ED05C
:102AD00057FD04D0D7DF0AD0001C38F4509540953C
:102AE000309521953F4F4F4F5F4F0895F6F79095E2
:102AF0008095709561957F4F8F4F9F4F0895EE0F92
:0E2B0000FF1F0590F491E02D0994F894FFCF8B
:102B0E0043757272656E7420636F6E666967757257
:102B1E006174696F6E3A0044462045200044462099
:102B2E005320002000206900206700204020002054
:102B3E004D487A2000636F6E666967207361766513
:102B4E00206661696C6564003E2000206466232067
:102B5E0000203A2000723A207061676520004446DA
:102B6E0020433F200052200044462052200044467D
:102B7E002057004F4B00203F00472000202D3E20C5
:102B8E0061636B00202D3E20002062000A5B5246DE
:102B9E00313264656D6F2E375D004446204920004A
:102BAE003B01B101640393030000000005135913A8
:0A2BBE007113AA12D512BB12F9120E
:00000001FF
